:020000040800F2
:1000000000080020F96900083507000837070008D4
:100010003B0700083F0700084307000800000000F6
:10002000000000000000000000000000470700087A
:1000300049070008000000004B0700084D070008B2
:10004000136A0008136A0008136A0008136A00089C
:10005000136A0008136A0008136A0008136A00088C
:10006000136A0008136A0008136A0008136A00087C
:10007000136A0008136A0008136A0008136A00086C
:10008000136A0008136A0008136A0008136A00085C
:10009000136A0008136A0008136A0008136A00084C
:1000A000136A0008136A0008136A0008136A00083C
:1000B000136A0008136A0008136A0008136A00082C
:1000C000136A0008136A0008136A0008136A00081C
:1000D000136A0008CB850008E52C0008136A0008A5
:1000E000136A0008136A0008136A0008136A0008FC
:1000F000136A0008136A0008136A0008136A0008EC
:10010000136A0008136A0008136A0008136A0008DB
:10011000136A0008136A0008136A0008136A0008CB
:10012000136A0008136A0008136A0008136A0008BB
:1001300000F002F800F04DF80AA090E8000C8244AC
:100140008344AAF10107DA4501D100F042F8AFF289
:10015000090EBAE80F0013F0010F18BFFB1A43F0A5
:100160000103184770DA000090DA0000103A24BF4B
:1001700078C878C1FAD8520724BF30C830C144BF0C
:1001800004680C607047000000230024002500264E
:10019000103A28BF78C1FBD8520728BF30C148BFEA
:1001A0000B60704766290BF09081642908F0C082CB
:1001B000782908F0F982002070471FB508F02EFF5B
:1001C0000400002000210AF02FF8E0601FBD10B5E8
:1001D00010BD09F04FF81146FFF7EFFF00F034F8BB
:1001E00009F06DF803B4FFF7F2FF03BC08F08EF9D5
:1001F00008B50121102006F0A9FF04208DF80300A6
:100200002020ADF8000003208DF802006946EA487E
:1002100006F0E0FC2021E94806F08BFD01210420D6
:1002200006F094FF10208DF803002020ADF80000A8
:1002300003208DF802006946E14806F0CBFC20213E
:10024000DF4806F076FD08BD1CB508F0F5F8FFF7AD
:10025000CFFF00F06DFB02E0322008F02AF92021E8
:10026000D64806F04AFD0028F6D002F013FD01F052
:10027000F8FF00F05DFB00F04CFC02F0ADFD02F079
:100280000FFE05F038FF4FF6FF7001F0ADFF1F20A5
:10029000CC490880CCA018210B46C822CDE900101B
:1002A0000A211E2002F0C2FCCCA010210B46C8225D
:1002B000CDE9001028211E2002F0B8FCCCA01021AE
:1002C0000B46C822CDE900103C211E2002F0AEFCF6
:1002D000CBA010210B46C822CDE9001050211E20D2
:1002E00002F0A4FCCBA010210B46C822CDE90010DF
:1002F00064211E2002F09AFCCAA010210B46C822DD
:10030000CDE9001078211E2002F090FCCBA0102136
:100310000B46C822CDE900108C211E2002F086FC7D
:10032000CAA010210B46C822CDE90010A0211E2032
:1003300002F07CFCCAA010210B46C822CDE90010B7
:10034000B4211E2002F072FCCAA010210B46C82264
:10035000CDE9001011461E2002F068FCCBA0102150
:100360000B46C822CDE90010DC211E2002F05EFC05
:10037000CBA010210B46C822CDE90010F0211E2091
:1003800002F054FCCBA010210B46C822CDE900108E
:100390004FF482711E2002F049FC0BE118E0CAA064
:1003A00010210B46C822CDE900102821822002F03E
:1003B0003DFCC82008F07DF84FF6FF709223EF2235
:1003C00028210090822002F07BF9C82008F071F803
:1003D00004F0EEFD0028E2D150E000F01AFBBEA0D0
:1003E00010210B46C822CDE900102821872002F0F9
:1003F0001DFCBBA010210B464FF49672CDE90010F6
:100400004FF491711E2002F011FC02F07DFDBA49FB
:100410000860084600680AF0B9FC05462A460B4603
:10042000B6A1B84808F048F9B64810210B46642236
:10043000CDE900107821822002F0F8FB002405E0CD
:1004400006F0ACF8322008F034F8641C042CF7DB1A
:100450004FF6FF704FF49E73C8224FF491710090D5
:100460001E2002F02DF9002405E006F097F8322056
:1004700008F01FF8641C042CF7DB00BFA2480078CA
:100480005728AAD02AE0A1A010210B46C822CDE906
:1004900000102821872002F0C9FB9F48006805282A
:1004A00013D2DFE800F00306090C0F0000F0B1FAE8
:1004B0000EE000F0F0FA0BE000F003FB08E000F0C3
:1004C000D4FA05E000F0BBFA02E000F0A2FA00BFA7
:1004D00000BF322007F0EDFF06F060F88A48007890
:1004E0004228D0D062E08DA010210B46C822CDE971
:1004F00000102821872002F099FB02F005FD7E49BB
:100500000860084600680AF041FC05462A460B468A
:100510007AA17C4808F0D0F87A4810210B46642272
:10052000CDE90010DC21822002F080FB7E480168CA
:10053000714800680AF022FF04D800F080FA06F043
:100540002DF832E000F065FA0A2007F0B2FF19201A
:1005500000F0D4FA02F0D8FC74490860072000F0DB
:10056000CDFA02F0D1FC724908600F2000F0C6FA03
:100570006F4801686D4800680AF000FF02D200F081
:100580008AFA01E000F09DFA002405E006F006F882
:10059000282007F08EFF641C042CF7DB00F039FAEA
:1005A00005F0FCFF322007F084FF00BF56480078BA
:1005B000552898D0F2E600000014014000100140D8
:1005C000000801402400002053544D333220205AAB
:1005D0005A48277320436172000000002053746161
:1005E0007465202020203A202020202000000000D8
:1005F00020426C7565546F6F74683A20204F6E000E
:100600002043616D6572612020203A20204F66668C
:100610000000000020536572766F202020203A20D1
:10062000204F6E002044697374616E6365203A2028
:1006300020202020202020636D0000002054656DC4
:10064000703A202020202E202043000020416363A8
:10065000583A202020202E20206D6D2F735E32000E
:1006600020416363593A202020202E20206D6D2FD9
:10067000735E32004779726F5A3A202020202E2074
:10068000204465677265652F7300000050697463CC
:10069000683A202020202E2020446567726565007E
:1006A00020526F6C6C3A202020202E202044656759
:1006B0007265650020596177203A202020202E2085
:1006C00020446567726565004D50553630353020E1
:1006D0004572726F7200000053746F70000000006A
:1006E00057616974696E6720466F7220436F6D6D44
:1006F000616E642E2E2E00000000002025332E3364
:1007000066000000AC00002030000020436F6E74D3
:10071000726F6C6C656400002C00002041766F697C
:1007200064656E63650000000C000020040000207A
:1007300008000020704700BFFEE700BFFEE700BFD3
:10074000FEE700BFFEE77047704770477047000044
:100750000CB50020019000906C48006840F4803097
:100760006A49086000BF6948006800F400300090E2
:100770000198401C0190009818B90198B0F5A06F3D
:10078000F1D16248006800F4003010B101200090FF
:1007900001E0002000900098012843D15C480068E7
:1007A00040F010005A4908600846006820F0030035
:1007B00008600846006840F002000860534840683E
:1007C000524948600846406848600846406840F41E
:1007D000806048600846406820F47C104860084605
:1007E000406840F4E81048600846006840F08070B7
:1007F000086000BF4548006800F000700028F9D08C
:100800004248406820F0030040494860084640687C
:1008100040F00200486000BF3C48406800F00C0017
:100820000828F9D10CBD10B5FFF792FF10BD10B527
:100830003648006840F001003449086008464068C6
:100840003449084031494860084600683249084048
:100850002E4908600846006820F480200860084699
:10086000406820F4FE0048604FF41F008860FFF7E6
:10087000DAFF4FF000602949086010BD10B5002173
:1008800000200022214B5B6803F00C0121B10429F8
:1008900006D0082928D107E0214B224C236027E00D
:1008A0001F4B204C236023E0184B5B6803F470104F
:1008B000164B5B6803F48032022303EB904022B9AD
:1008C000194B4343174C23600DE0104B5B6803F456
:1008D000003323B1144B4343124C236003E0104B0D
:1008E0004343104C236003E00D4B0E4C236000BFCC
:1008F00000BF064B5B68C3F303130C4CE15C094B70
:100900001B68CB40074C236010BD00000010024064
:10091000002002400000FFF8FFFFF6FE08ED00E0B7
:1009200000127A001000002000093D001400002091
:1009300000B589B00121042006F008FC0121084619
:1009400006F004FC01216A4806F015FA4FF47040E5
:10095000ADF8200003208DF8220010208DF8230030
:1009600008A9644806F036F94FF47041614806F072
:10097000E0F90121C80206F0E9FB0121084606F072
:10098000E5FB4FF41060ADF8200003208DF8220045
:1009900018208DF8230008A9564806F01BF963209B
:1009A000ADF8180040F2CF20ADF814000020ADF8EB
:1009B0001A00ADF8160005A94F4806F0FFFC6020AC
:1009C000ADF804000020ADF80C000120ADF80600E1
:1009D0000020ADF80A0001A9474806F02CFD01A946
:1009E000454806F002FE0121434807F04FF8082170
:1009F000414807F06FF908213F4807F08AF90121C3
:100A00003D4807F037F901213B4807F033F809B0BA
:100A100000BD10B54FF48051364806F08AF94FF406
:100A20000051344806F085F94FF48041314806F012
:100A300080F94FF400412F4806F07BF910BD10B546
:100A40004FF480512B4806F072F94FF400512948B9
:100A500006F06FF94FF48041264806F068F94FF42C
:100A60000041244806F065F910BD10B54FF48051DF
:100A7000204806F05EF94FF400511E4806F057F981
:100A80004FF480411B4806F054F94FF400411948D7
:100A900006F04DF910BD10B54FF48051154806F021
:100AA00046F94FF40051134806F043F94FF48041E2
:100AB000104806F03EF94FF400410E4806F037F9B1
:100AC00010BD10B54FF480510A4806F032F94FF4CA
:100AD0000051084806F02BF94FF48041054806F014
:100AE00026F94FF40041034806F023F910BD000039
:100AF0000004300000080140002C014010B50446FD
:100B0000A1B2244807F052FA4FF42F7007F0D1FC3D
:100B100010BD00B589B00121042006F024FB01219D
:100B2000082006F013FB18208DF823004FF4807086
:100B3000ADF8200003208DF8220008A9164806F021
:100B400049F80020ADF81A00ADF81600C720ADF83E
:100B5000180041F61F40ADF8140005A90D4806F035
:100B60002DFC6020ADF804000020ADF80C00012041
:100B7000ADF806006420ADF80A0001A9054806F0AA
:100B8000E9FC0121034806F075FF0F20FFF7B6FFCF
:100B900009B000BD00080040000C01404FF4807116
:100BA000FD4A516149005161FC4908608021516151
:100BB00011618900116170474FF48071F64A11612B
:100BC00049005161F5490860802151611161890036
:100BD0001161704710B54FF08830F0490C3908604A
:100BE000091D08600020ED4908608815EA49086180
:100BF0004000486140204861E948808848F68911F2
:100C0000884202D1022007F030FCE448001F00684F
:100C100084B24020E0490861C00008614FF03330E1
:100C2000DE490C390860091D08604FF6FF70DB498A
:100C30000860204610BD10B504460B462046FFF75D
:100C4000ADFF4FF48070D449086140004861D3483B
:100C500003608020486108618000086110BD10B504
:100C600004462046FFF79AFFFFF7B4FF10BD00B51A
:100C7000CB490889FFF792FF00BD4FF48071C64A47
:100C8000116149005161C5490860802151611161BC
:100C900089001161704730B5014601F01F04C1F3AE
:100CA0004513CA0AE50205EB43151544A8B230BD49
:100CB00000BF0100A0F10102D0B2FAD1704730B5F7
:100CC00004460D46B648808849F24131884205D035
:100CD000B348808845F21031884240D1B0494889F4
:100CE000FFF75CFF4FF48070AB490861400048613A
:100CF0002012AA4908608020A74948610861800045
:100D000008614010086140004861E0B2A3490860F2
:100D10008020A1494861086180000861A049888954
:100D2000FFF73CFF4FF480709B4908614000486129
:100D300028129A490860802097494861086180001C
:100D400008614010086140004861E8B293490860BA
:100D50008020914948610861800008618CE19048D9
:100D6000808846F60401884249D18D48807901285F
:100D700004D18B480088401E001B84B288494889F2
:100D8000FFF70CFF4FF48070834908614000486111
:100D900020128249086080207F49486108618000F4
:100DA00008614010086140004861E0B27B4908607A
:100DB0008020794948610861800008617849888904
:100DC000FFF7ECFE4FF48070734908614000486102
:100DD00028127249086080206F49486108618000CC
:100DE00008614010086140004861E8B26B49086042
:100DF0008020694948610861800008613CE16848D9
:100E0000808841F6631188427ED165488079002848
:100E10003FD163480088401E001B84B26049488966
:100E2000FFF7BCFE4FF480705B49086140004861E9
:100E300000205A49086080205749486108618000B5
:100E40000861401008614000486100205349086073
:100E500080205149486108618000086140100861A4
:100E60004000486120124D49086080204A4948618D
:100E70000861800008614010086140004861E0B2EC
:100E80004649086080204449486108618000086143
:100E900041E043494889FFF781FE4FF480703E49A5
:100EA00008614000486120123C49086080203A49AE
:100EB0004861086180000861401008614000486195
:100EC000E0B23649086080203349486108618000FB
:100ED0000861401008614000486131480088401EA8
:100EE00000122E49086080202B494861086180006B
:100EF0000861401008614000486129480078401EA0
:100F0000C0B22649086000E04CE0802022494861D8
:100F100008618000086122498889FFF73FFE4FF48D
:100F200080701D4908614000486128121B49086013
:100F300080201949486108618000086140100861FB
:100F400040004861E8B215490860802012494861B4
:100F50000861800008614010086140004861104845
:100F60004088401E00120D49086080200A494861EF
:100F7000086180000861401008614000486108482D
:100F80008078401EC0B2054908608020024948614F
:100F90000861800008616FE0001001400C0C014006
:100FA000B6000020F748808845F21051884250D1A1
:100FB000F4494889FFF7F2FD4FF48070F249086167
:100FC000400048612012F14908608020EE494861E4
:100FD000086180000861EB494989491C88B2FFF724
:100FE000DDFD4FF48070E849086140004861E0B2DF
:100FF000E64908608020E449486108618000086192
:10100000E0498889FFF7CAFD4FF48070DE49086126
:10101000400048612812DD4908608020DA494861B3
:10102000086180000861D7498989491C88B2FFF7A7
:10103000B5FD4FF48070D449086140004861E8B2C2
:10104000D24908608020D049486108618000086169
:1010500012E0CC488079012804D1CA480088401E9B
:10106000001B84B2C74948892146FFF7E4FDC54902
:1010700088892946FFF7DFFD30BD2DE9F04105469F
:101080000E46C0480088A84203DDBE484088B042F2
:1010900002DC0020BDE8F08131462846FFF70FFE54
:1010A000B848808849F24131884211D0B5488088DB
:1010B00046F6040188420BD0B248808845F21031D0
:1010C000884205D0AF48808841F66311884203D139
:1010D0002E20FFF763FD0DE0AA48808845F21051ED
:1010E000884204D14FF43850FFF758FD02E0222027
:1010F000FFF754FD4FF08830A4490C390860091DF2
:1011000008604FF6FF70A149086088159E49086184
:1011100040004861402048610220FFF7C9FD9B481C
:10112000001F006884B24020974908619548808874
:1011300041F66311884210D14FF400709249086162
:101140004FF0333091490C390860091D08604FF6A3
:10115000FF708E49086020469CE740208A4948611C
:101160000220FFF7A5FD8948001F006884B24020D7
:10117000854908618348808849F2413188420BD013
:101180008048808845F21031884205D07D488088AB
:1011900045F21051884213D140207B49486102201A
:1011A000FFF786FD7948001F00681FFA80F840208D
:1011B00075490861E7B24FF6FF7000EA07270DE0B6
:1011C0007048808846F60401884207D140206E4965
:1011D000486108616D48001F006884B24FF40070D8
:1011E000694908614FF0333068490C390860091DBE
:1011F00008604FF6FF70654908606248808849F2D0
:101200002531884216D05F48808844F235518842A3
:1012100010D05C488088091F88420BD059488088CC
:1012200048F68911884205D0564880884BF205510E
:10123000884201D120462DE75248808849F2413149
:1012400088420BD04F48808845F21031884205D043
:101250004C48808845F21051884207D1E012C00204
:10126000B91240EA411040EAE82013E72046FFF7B0
:1012700012FD0FE700B54348808849F241318842AA
:1012800011D04048808846F6040188420BD03D4882
:10129000808845F21031884205D03A48808841F66E
:1012A0006311884203D12920FFF778FC0FE035480D
:1012B000808845F21051884204D14FF42450FFF742
:1012C0006DFC04E040F273110720FFF7B4FC00BD91
:1012D00000B52C48808849F24131884211D0294814
:1012E000808846F6040188420BD02648808845F263
:1012F0001031884205D02348808841F66311884226
:1013000003D12820FFF74AFC0EE01E48808845F2F2
:101310001051884204D14FF42050FFF73FFC03E006
:1013200000210720FFF787FC00BDF0B5054600242B
:1013300000271448807901280BD11248808846F68E
:101340000401884205D00F48808841F66311884225
:1013500008D10C48807920BB0A48808841F6631187
:1013600088421ED1082D1BD2DFE805F00406080ACA
:1013700012141618062513E0072511E004250FE0C6
:1013800005250DE0B6000020001001400C0C0140C6
:10139000012505E0002503E0032501E0022500BF4B
:1013A00000BFF848808849F24131884217D0F5489B
:1013B000808846F60401884211D0F248808845F2C0
:1013C000103188420BD0EF48808845F21051884296
:1013D00005D0EC48808841F6631188427ED1082D03
:1013E0001CD2DFE805F00406090C0F12151800BF27
:1013F00014E044F0800411E044F040040EE044F0B6
:10140000C0040BE044F0200408E044F0600405E070
:1014100044F0A00402E044F0E00400BF00BFD9485B
:10142000808845F21051884202D14FF4585700E0AD
:101430003627D448808845F2103188420DD0D148F3
:10144000808845F21051884207D0CE48808841F606
:101450006311884201D044F00804CA48808846F6E7
:101460000401884201D144F0020421463846FFF7C6
:10147000E2FBC448808841F6631188421DD004F025
:10148000200068B1BF480088BE494988884214DA04
:10149000BC4806884088BB490880084646800CE066
:1014A000B8480088B7494988884206DDB5480688AB
:1014B0004088B449088008464680B248808845F292
:1014C000105188427ED1AF494889FFF767FB4FF43E
:1014D0008070AD4908614000486100E029E10020CA
:1014E000AA4908608020A849486108618000086115
:1014F000A4494989491C88B2FFF750FB4FF480701A
:10150000A1490861400048610020A049086080208E
:101510009D4948610861800008619A494989891C90
:1015200088B2FFF73BFB4FF4807097490861400099
:10153000486194480088401E001294490860802049
:10154000914948610861800008618E494989C91C38
:1015500088B2FFF723FB4FF480708B49086140008D
:10156000486188480078401EC0B2884908608020E1
:101570008549486108618000086182498889FFF7D0
:101580000DFB4FF4807080490861400048610020E5
:101590007E49086080207C494861086180000861BC
:1015A00078498989491C88B2FFF7F8FA4FF48070AE
:1015B0007549086140004861002074490860802036
:1015C000714900E034E048610861800008616D49BC
:1015D0008989891C88B2FFF7E1FA4FF480706A4963
:1015E00008614000486167484088401E0012674912
:1015F0000860802064494861086180000861614991
:101600008989C91C88B2FFF7C9FA4FF480705E4916
:101610000861400048615B488078401EC0B25B4969
:101620000860802058494861086180000861A7E08F
:1016300054494889FFF7B2FA4FF480705249086163
:101640004000486100205149086080204E494861AF
:101650000861800008614010086140004861002076
:101660004A49086080204849486108618000086153
:10167000401008614000486142480088401E001246
:101680004249086080204049486108618000086143
:1016900040100861400048613A480078401EC0B2DE
:1016A0003A49086080203849486108618000086133
:1016B00034498889FFF772FA4FF480703249086123
:1016C0004000486100203149086080202E4948616F
:1016D00008618000086140100861400048610020F6
:1016E0002A49086080202849486108618000086113
:1016F000401008614000486122484088401E0012A6
:101700002249086080202049486108618000086102
:1017100040100861400048611A488078401EC0B2FD
:101720001A490860802018494861086180000861F2
:1017300026E0082D1CD2DFE805F004070A0D0F1281
:10174000151844F0300413E044F0100410E044F0A5
:1017500020040DE000BF0BE044F0380408E044F042
:10176000280405E044F0180402E044F0080400BF37
:1017700000BF032744F4805421463846FFF75BFA44
:10178000F0BD0000B6000020001001400C0C01402C
:1017900030B504460D4629462046FFF790FAFFF77C
:1017A00066FA4FF48070FE49086140004861FD48C8
:1017B0000088FD4908608020F9494861086180007F
:1017C000086130BD70B504460D461646F74880885E
:1017D00049F24131884205D0F448808845F2103101
:1017E000884240D1F1494889FFF7D8F94FF4807019
:1017F000EB490861400048612012EB4908608020F5
:10180000E7494861086180000861401008614000B4
:101810004861E0B2E44908608020E149486108611C
:1018200080000861E1498889FFF7B8F94FF48070BA
:10183000DB490861400048612812DB4908608020CC
:10184000D749486108618000086140100861400084
:101850004861E8B2D44908608020D14948610861F4
:10186000800008613DE1D148808845F210518842EE
:1018700050D1CE494889FFF791F94FF48070C8499B
:101880000861400048612012C74908608020C449AF
:101890004861086180000861C4494989491C88B2CF
:1018A000FFF77CF94FF48070BD4908614000486142
:1018B000E0B2BD4908608020B949486108618000F4
:1018C0000861BA498889FFF769F94FF48070B44913
:1018D0000861400048612812B34908608020B0497F
:1018E0004861086180000861B0498989491C88B253
:1018F000FFF754F94FF48070A9490861400048612E
:10190000E8B2A94908608020A549486108618000C3
:101910000861E6E0A548808841F6631188427DD1E0
:10192000A248807920B9A1480088401E001B84B2DB
:101930009E494889FFF732F94FF480709849086151
:10194000400048612012984908608020944948610D
:101950000861800008614010086140004861E0B201
:101960009149086080208E494861086180000861C3
:10197000401008614000486120128B4908608020B7
:101980008749486108618000086140100861400093
:101990004861E0B28449086080208149486108615B
:1019A0008000086181498889FFF7F8F84FF480705A
:1019B0007B4908614000486128127B49086080200B
:1019C0007749486108618000086140100861400063
:1019D0004861E8B274490860802071494861086133
:1019E00080000861401008614000486128126E497B
:1019F000086080206A4948610861800008614010E1
:101A0000086140004861E8B2674908608020644985
:101A1000486108618000086163E0FFE763488088EF
:101A200046F60401884249D160488079012804D1F2
:101A30005E480088401E001B84B25C494889FFF75D
:101A4000ADF84FF48070564908614000486120129B
:101A5000554908608020524948610861800008614A
:101A60004010086140004861E0B24F4908608020A2
:101A70004B4948610861800008614C498889FFF73B
:101A80008DF84FF480704649086140004861281283
:101A9000454908608020424948610861800008612A
:101AA0004010086140004861E8B23F49086080206A
:101AB0003B49486108618000086112E03B48807939
:101AC000012804D139480088401E001B84B23749E0
:101AD00048892146FFF7AFF8344988892946FFF73E
:101AE000AAF84FF480702E494861400048612F48A1
:101AF00000892D49086080202949486108618000DB
:101B00000861401008614000486127480660802055
:101B1000486108618000086170BD2DE9F04104460C
:101B2000BE20FFF73BF84FF480701D49086140006C
:101B3000486105201C4908608020194948610861F6
:101B4000800008614010086140004861204608F0AC
:101B50002FFE05464FF06632154B08F03DFE074656
:101B600008F0E2FD1049086080200D4948610861D5
:101B700080000861401008614000486101200A4966
:101B800008608020064948610861800008614010B3
:101B9000086140004861FF2003490860802009E097
:101BA00000100140240000200C0C0140B600002071
:101BB00066660440FE494861086180000861401083
:101BC0000861400048610020FA4908608020F84917
:101BD0004861086180000861401008614000486168
:101BE0000020F44908608020F149486108618000C4
:101BF0000861BDE8F08110B50446002C66D1EE49BD
:101C00008871F02008804FF4A070488008468088D2
:101C100049F2413188420BD0E748808846F60401FA
:101C2000884205D0E448808845F2103188421AD1B4
:101C30002C20E14908812A2048812B2088810846F0
:101C4000808846F60401884205D0DB48808845F24A
:101C50001031884206D14FF4A070D74908804FF464
:101C6000F0704880A1E0D448808845F21051884245
:101C700010D14FF43050D04908814FF4285048819A
:101C80004FF42C5088814FF4F07008804FF4487066
:101C900048808AE0C848808841F6631188420DD1A7
:101CA0002C20C54908812B2048812A2088814FF4A7
:101CB000F07008804FF44870488076E02220BE49DA
:101CC000088120204881212088816EE00120BA49C6
:101CD00088714FF4A0700880F02048800846808802
:101CE00049F24131884205D0B348808845F210312D
:101CF000884207D12C20B04908812A2048812B2016
:101D000088813FE0AC48808846F60401884207D1CC
:101D10002C20A94908812B2048812A20888131E084
:101D2000A548808845F21051884210D14FF43050B8
:101D3000A14908814FF4285048814FF42C508881E4
:101D40004FF4487008804FF4F07048801AE09A48C9
:101D5000808841F6631188420DD12C209649088174
:101D60002A2048812B2088814FF4487008804FF446
:101D7000F070488006E022208F49088121204881A8
:101D8000202088818C48808846F60401884205D04E
:101D90008948808845F21031884206D14FF4F070AE
:101DA000854908804FF4A07048800020FFF7BDFAF5
:101DB00010BD2DE9F04F86B004460D469046994679
:101DC00004EB0800401E86B205EB0900401E87B2F6
:101DD0007948808849F24131884215D07648808818
:101DE00045F2103188420FD07348808846F60401CE
:101DF000884209D07048807901287BD16E4880885C
:101E000041F66311884275D16B494889FEF7C6FED9
:101E10004FF48070664908614000486120126549AE
:101E200008608020624948610861800008614010B4
:101E3000086140004861E0B25E49086080205C496A
:101E400048610861800008614010086140004861F5
:101E50003012584908608020554948610861800067
:101E600008614010086140004861F0B251490860C3
:101E700080204F4948610861800008614E49888987
:101E8000FEF78CFE4FF480704949086140004861BC
:101E9000281248490860802045494861086180004F
:101EA00008614010086140004861E8B2414908609B
:101EB00080203F4948610861800008614010086146
:101EC0004000486138123B49086080203849486129
:101ED0000861800008614010086140004861F8B264
:101EE00034490860802032494861086180000861F7
:101EF00077E1FFE73048808841F6631188427DD161
:101F00002D480088A0EB0800001B84B205EB0900F7
:101F1000401E1FFA80F928494889FEF73FFE4FF41A
:101F200080702349086140004861201221490860FF
:101F300080201F49486108618000086140100861E5
:101F400040004861E0B21B490860802018494861A0
:101F5000086180000861401008614000486104EB9E
:101F60000800401E00121349086080201049486193
:101F7000086180000861401008614000486104EB7E
:101F80000800401EC0B20B49086080200849486123
:101F900008618000086108498889FEF7FFFD4FF459
:101FA000807003490861400048612812014905E03A
:101FB000001001400C0C0140B60000200860802099
:101FC000FE494861086180000861401008614000D6
:101FD0004861E8B2FA4908608020F8494861086120
:101FE0008000086140100861400048614FEA2920E4
:101FF000F34908608020F149486100E011E0086180
:1020000080000861401008614000486109F0FF004D
:10201000EB4908608020E949486108618000086157
:10202000DFE0E848808845F2105188427ED1E549DA
:102030004889FEF7B3FD4FF48070E0490861400025
:1020400048612012DE4908608020DC49486108614F
:1020500080000861DB494989491C88B2FEF79EFD72
:102060004FF48070D549086140004861E0B2D4491E
:1020700008608020D1494861086180000861D14929
:102080004989891C88B2FEF789FD4FF48070CB49DD
:102090000861400048613012C94908608020C74982
:1020A0004861086180000861C6494989C91C88B235
:1020B000FEF774FD4FF48070C0490861400048612C
:1020C000F0B2BF4908608020BC49486108618000C7
:1020D0000861BC498889FEF761FD4FF48070B749FB
:1020E0000861400048612812B54908608020B34962
:1020F0004861086180000861B2498989491C88B239
:10210000FEF74CFD4FF48070AC4908614000486117
:10211000E8B2AB4908608020A849486108618000A6
:102120000861A8498989891C88B200E026E0FEF789
:1021300035FD4FF48070A1490861400048613812B4
:102140009F49086080209D494861086180000861BE
:102150009C498989C91C88B2FEF720FD4FF4807024
:102160009649086140004861F8B2954908608020AE
:102170009249486108618000086132E091488079A5
:1021800001280ED1AA46BB468E480088801B401EFF
:1021900080B201908B480088001B401E80B20090E6
:1021A00003E0A246B34601950097502005905120C8
:1021B0000490522003905320029051460598FEF758
:1021C0003AFD59460498FEF736FD01990398FEF74B
:1021D00032FD00990298FEF72EFD29462046FEF7B3
:1021E0006EFD06B0BDE8F08F70B504460026754858
:1021F0000588408845437348808846F60401884234
:1022000016D170488079012812D100206D4988715B
:102210002A2048812B20888100210846FEF74FFDA7
:102220000120684988712B2048812A20888103E099
:1022300000210846FEF743FDFEF719FD00260DE0DC
:102240004FF480705D490861400048615C4804605B
:1022500080204861086180000861761CAE42EFD39F
:1022600070BD08B50121192004F070FF0121564806
:1022700004F081FD4FF4F860ADF8000010208DF8F7
:10228000030003208DF8020069464C4804F0A2FCCC
:102290004FF4F861494804F04AFD4FF6FF70ADF87D
:1022A0000000694646480C3804F094FC4FF6FF7174
:1022B00043480C3804F03BFD322006F0FAF80121C7
:1022C0000020FEF7B8FC322006F0F3F80020FEF7FD
:1022D000C6FC3C49888008468088FF280ADB0846FF
:1022E00080884FF6FF71884204D036488088B0F568
:1022F000134F62D1D320FEF751FCFEF76BFCFEF7C3
:1023000069FCFEF767FC2F498880084680884FF6F5
:10231000FF7101EA00202B498880FEF75BFC294908
:1023200089880843274988800846808849F24131D6
:10233000884242D0BF20FEF731FCFEF74BFCFEF78F
:1023400049FCFEF747FCFEF745FC1E49888008461D
:1023500080884FF6FF7101EA00201A498880FEF755
:1023600039FC1849898808431649888008468088BE
:1023700046F6040188427CD0D420FEF70FFCFEF71D
:1023800029FCFEF727FCFEF725FC0E49888008464D
:1023900080884FF6FF7101EA00200A498880FEF725
:1023A00019FC0849898808430649888008468088BE
:1023B00045F2103188425CD008E05AE0001001403C
:1023C0000C0C0140B6000020000430004FF45A40CD
:1023D000FEF7E4FBFEF7FEFB4FF45B40FEF7DEFB8F
:1023E000FEF7F8FBF7498880084680884FF6FF71B2
:1023F00001EA0020F34988804FF45C40FEF7CEFBF1
:10240000FEF7E8FBEF4989880843EE4988800846D3
:102410008088B0F5004F02D145F210508880E9481D
:10242000808845F21051884223D0A120FEF7B6FBE8
:10243000FEF7D0FBE3498880FEF7CCFBE1498880BA
:10244000084680884FF6FF7101EA0020DD49888048
:10245000FEF7C0FBDB4989880843DA4988800846D3
:10246000808845F26171884203D141F66310D549F5
:102470008880D448808849F2413188427ED1CF207B
:10248000FEF78CFB0020FEF797FBC120FEF794FBC4
:102490003020FEF791FBED20FEF780FB6420FEF775
:1024A0008BFB0320FEF788FB1220FEF785FB8120C3
:1024B000FEF782FBE820FEF771FB8520FEF77CFB30
:1024C0001020FEF779FB7A20FEF776FBCB20FEF793
:1024D00065FB3920FEF770FB2C20FEF76DFB00201A
:1024E000FEF76AFB3420FEF767FB0220FEF764FB71
:1024F000F720FEF753FB2020FEF75EFBEA20FEF7F5
:102500004DFB0020FEF758FB0020FEF755FBC020D6
:10251000FEF744FB1B20FEF74FFBC120FEF73EFBFE
:102520000120FEF749FBC520FEF738FB3020FEF7FF
:1025300043FB3020FEF740FBC720FEF72FFBB72000
:10254000FEF73AFB3620FEF729FB4820FEF734FB66
:102550003A20FEF723FB5520FEF72EFBB120FEF7B5
:102560001DFB0020FEF728FB1A20FEF725FBB620F6
:10257000FEF714FB0A20FEF71FFB00E095E0A22007
:10258000FEF71AFBF220FEF709FB0020FEF714FB12
:102590002620FEF703FB0120FEF70EFBE020FEF7EE
:1025A000FDFA0F20FEF708FB2A20FEF705FB282086
:1025B000FEF702FB0820FEF7FFFA0E20FEF7FCFAFA
:1025C0000820FEF7F9FA5420FEF7F6FAA920FEF7E4
:1025D000F3FA4320FEF7F0FA0A20FEF7EDFA0F2097
:1025E000FEF7EAFA0020FEF7E7FA0020FEF7E4FA29
:1025F0000020FEF7E1FA0020FEF7DEFAE120FEF708
:10260000CDFA0020FEF7D8FA1520FEF7D5FA1720EC
:10261000FEF7D2FA0720FEF7CFFA1120FEF7CCFA28
:102620000620FEF7C9FA2B20FEF7C6FA5620FEF761
:10263000C3FA3C20FEF7C0FA0520FEF7BDFA1020D1
:10264000FEF7BAFA0F20FEF7B7FA3F20FEF7B4FA0A
:102650003F20FEF7B1FA0F20FEF7AEFA2B20FEF76F
:102660009DFA0020FEF7A8FA0020FEF7A5FA012047
:10267000FEF7A2FA3F20FEF79FFA2A20FEF78EFA15
:102680000020FEF799FA0020FEF796FA0020FEF7E8
:1026900093FAEF20FEF790FA1120FEF77FFA7820E8
:1026A00005F007FF2920FEF779FA0020FFF7A3FACB
:1026B0000120454908604FF6FF70FFF795FD08BD02
:1026C0002DE9FC4F05460E4617469846DDF82C903E
:1026D000002001903B48808846F60401884229D1B9
:1026E00038488079012825D1AB46354635480088E1
:1026F000C01B401E86B2474632480088A0EB0B0044
:10270000401E1FFA80F800202E4988712A20488137
:102710002B20888143463A4631462846CDF8009022
:10272000FFF7CEFF0120274988712B2048812A20FE
:10273000888127E0781B401C80B2019034461FE05E
:1027400021462846FEF7BBFAFEF791FA4FF0000A41
:1027500011E04FF480701D490861400048611C4839
:10276000C0F80090802048610861800008610AF18B
:1027700001001FFA80FA01988245EADB601C84B2EE
:102780004445DDDDBDE8FC8F2DE9F84F07460D46D9
:1027900090469946DDF828B0A8EB0700401C1FFAC8
:1027A00080FAA9EB0500401C80B20090002429E0CB
:1027B000281981B23846FEF782FAFEF758FA002649
:1027C0001CE00000B6000020A801224200100140D9
:1027D0000C0C01404FF48070FE49086140004861D4
:1027E00004FB0A603BF81000FB4908608020F949AF
:1027F0004861086180000861701C86B25645E9DBBB
:10280000601C84B200988442D2DBBDE8F88F2DE9C9
:10281000FF4F84B081468A460020039002900698BC
:10282000A0EB09050798A0EB0A06CDF80490CDF8B7
:1028300000A0002D01DD012705E00DB9002702E011
:102840004FF0FF376D42002E02DD4FF0010806E029
:1028500016B94FF0000802E04FF0FF387642B5425B
:1028600001DD2C4600E034464FF0000B21E0009AD9
:1028700091B2019A90B2FEF78BFF0398284403901F
:102880000298304402900398A04205DD0398001B93
:1028900003900198384401900298A04205DD029807
:1028A000001B02900098404400900BF101001FFAB9
:1028B00080FB601C8345DADD08B0BDE8F08FF0B521
:1028C00004460D4616461F462B46324629462046EC
:1028D000FFF79DFF3B46224629462046FFF797FF1C
:1028E0003B46324639462046FFF791FF3B4632468B
:1028F00029463046FFF78BFFF0BD2DE9F043064631
:102900000F469046002445460320A0EB48093CE0D2
:102910007A1B91B2321990B2FEF73AFF3A1B91B28C
:10292000721990B2FEF734FF3A1991B2721990B24F
:10293000FEF72EFF7A1991B2321990B2FEF728FFF6
:102940007A1991B2321B90B2FEF722FF3A1991B276
:10295000721B90B2FEF71CFF7A1B91B2321B90B231
:10296000FEF716FF3A1B91B2721B90B2FEF710FFF2
:10297000641CB9F1000F03DAA000801D814404E05B
:10298000601B80000A3081446D1EAC42C0DDBDE892
:10299000F0832DE9F84F80460E4617461C46B34695
:1029A0002046E31704EB5373DB1021464FEAE47C27
:1029B00004EB5C7C4FEAEC0CA4EBCC0CBCF1000FFC
:1029C00002D04FF0010C01E04FF0000C63442246AE
:1029D00004EBD27C4FEA6C0C03FB0CF3DBB20093EC
:1029E000A7F12000C7B2002556E00C2C07D107EB59
:1029F00047007A4901EB800010F8059013E0102C95
:102A000005D1774800EB071010F805900BE0182C63
:102A100007D107EBC700734901EB800010F8059060
:102A200001E0BDE8F88F4FF0000A2FE009F08000C8
:102A300030B16D48028831464046FEF7C3FE07E0DC
:102A40000A9828B96948028831464046FEF7BAFE1E
:102A50004FEA49604FEA1069701C86B264484088AA
:102A6000B04200DCDDE7A6EB0B00A0420AD15E46D7
:102A700008F101001FFA80F85D480088404500DC3D
:102A8000CFE706E00AF1010000F0FF0ABAF1080FF3
:102A9000CCDB00BF681CC5B200988542A5DB00BF37
:102AA000BFE710B50246012000E050430B00A1F142
:102AB0000104E1B2F9D110BD2DE9FF4F81B0074605
:102AC00091461E460E9D4FF0000A002439E0301B4F
:102AD000401EC1B20A20FFF7E4FFB9FBF0F00A2163
:102AE000B0FBF1F201FB1208BAF1000F16D1701E13
:102AF000A04213DDB8F1000F0ED10020AB4605EB6C
:102B0000DB71491001FB0471009088B22B46202232
:102B10000299FFF73EFF12E04FF0010A0020AB469A
:102B200005EBDB71491001FB0471009088B208F1DC
:102B30003001CAB22B460299FFF72BFF00BF601C81
:102B4000C4B2B442C3DB05B0BDE8F08F2DE9FF4F3E
:102B500082B0064692461F46DDE90F4800200190EC
:102B600000255EE0781B401EC1B20A20FFF799FFE6
:102B7000BAFBF0F00A21B0FBF1F201FB1209019857
:102B8000C0BB781EA84238DDB9F1000F33D108F080
:102B9000800078B108F00100A34604EBDB71491016
:102BA00001FB0561009088B2234630220399FFF7AC
:102BB000F0FE0EE008F00100A34604EBDB714910C3
:102BC00001FB0561009088B2234620220399FFF79C
:102BD000E0FE24E0001001400C0C0140BEB50008EE
:102BE00032BA000822C0000824000020260000207D
:102BF000B600002001E00120019008F00100A3468A
:102C000004EBDB71491001FB0561009088B209F10A
:102C10003001CAB223460399FFF7BBFE00BF681C10
:102C2000C5B2BD429EDB06B0BDE8F08F2DE9F84786
:102C300004460D4690469946DDE9096704F0FF0A0F
:102C400008EB04001FFA80F809EB05001FFA80F971
:102C500016E0444502DB5446A81985B24D4500DB19
:102C600014E0002000903A78334629462046FFF7CA
:102C700090FE304606EBD07104EB61018CB27F1CF4
:102C800038787E2802DC38782028E2DA00BFBDE8F8
:102C9000F887000008B50121242004F057FA4FF40A
:102CA0008070ADF8000010208DF8030003208DF82F
:102CB00002006946094803F08DFF4FF48071074810
:102CC00004F035F80420ADF800006946044803F02C
:102CD00081FF0421024804F02AF808BD00080140E1
:102CE0000014014010B540F22551654805F060FB25
:102CF000012870D140F22551614805F083FB6048FE
:102D000005F0D6FA5F49087008460078302802D1ED
:102D100000205D4908605B480078312802D101201D
:102D20005949086057480078322802D10220564994
:102D3000086054480078332802D1032052490860C3
:102D400050480078342802D104204F4908604D488B
:102D50000078572801D14D4908704A480078422828
:102D600001D14A49087047480078552801D14749A0
:102D700008704448007848280ED16420444908600F
:102D80000846008881B2434805F00CF940480088A5
:102D900081B2404805F00CF93A4800784C280ED131
:102DA0004B203B4908600846008881B2394805F04D
:102DB000F9F83748008881B2364805F0F9F831480B
:102DC00000784A2807D13448006808B9012000E09B
:102DD00000203149086010BD00B587B001210520F1
:102DE00004F0B4F90121480404F0BDF90420ADF861
:102DF000180003208DF81A0018208DF81B0006A972
:102E0000264803F0E7FE0820ADF8180004208DF8EE
:102E10001B0006A9214803F0DDFE4FF41640029086
:102E20000020ADF80C00ADF80E00ADF81000ADF8C4
:102E300014000C20ADF8120002A9114805F03BF96E
:102E4000012240F225510E4805F0CDF94FF4A06063
:102E500003F0F2FD26208DF8040002208DF8050015
:102E600003208DF8060001208DF8070001A803F06B
:102E7000E8FD0121024805F0AAF907B000BD0000F5
:102E800000440040280000202C00002030000020DA
:102E900034000020002C0140940121420008014030
:102EA0001FB50121042004F051F90121022004F092
:102EB0005AF910208DF80F004020ADF80C000320C7
:102EC0008DF80E0003A9424803F084FE04208DF81B
:102ED0000F008020ADF80C0003A93D4803F07AFEF6
:102EE0000020ADF80600ADF8020042F22730ADF840
:102EF00004004720ADF8000000208DF80800694666
:102F0000344804F05BFA1FBD2DE9F04786B04FF05E
:102F10000009002445E040212D4803F008FF0A2065
:102F200005F0A3FA40212A4803F003FF00BF8021E7
:102F3000274803F0E2FE0028F9D08021244803F05E
:102F4000DCFE18B3002023492431088001212148E8
:102F500004F090FD00BF80211D4803F0CEFE012843
:102F6000F9D000211B4804F085FD1A4805F039F816
:102F7000824607F01DFC0746174A184B07F02CFC49
:102F8000054607F067F901A941F8240001A850F8A7
:102F90002410484607F026FF81460A2005F089FAEA
:102FA000641C052CB7DB0E49484607F089FF8146B3
:102FB00049460C4808F016F906460B4908F012F984
:102FC00005464FF0804107F07BFF06B0BDE8F08773
:102FD00000080140000400408DEDB5A0F7C6B03EEA
:102FE0000000A0400000C8420000AA4338B50446D3
:102FF000F74890F82400C0B114B10220009001E01D
:1030000000200090F24A1268D17BF14A5268107891
:103010006B46012203F061F910B14FF0FF3038BD6B
:103020009DF80010EA48417423E0E948807A10B91D
:103030004FF0FF30F3E724B1E548407C08B10020B1
:10304000EDE714B10120009001E000200090E04A7B
:103050001268D17BDE4A526810786B46012203F079
:103060003CF910B14FF0FF30D9E79DF80010D84877
:1030700041740020D3E738B500241FE0D44800682D
:10308000C07AA04204D0D2480068407DA04200D15E
:1030900012E0CF49496808786B460122214603F0C7
:1030A00067F810B14FF0FF3038BD9DF80020214681
:1030B000C8A005F0F5FA00BF601CC4B2C44840685F
:1030C0000079A042DADC0020EEE770B504460D4638
:1030D000BF480068C07AA04204D0BD480068407D67
:1030E000A04202D14FF0FF3070BDB948406800796E
:1030F000A04202DC4FF0FF30F6E7B5494968087896
:103100002B460122214603F033F8EDE738B504469B
:10311000AF4890F82300A04201D1002038BD14B17F
:103120003020009001E000200090A948807C20B170
:103130009DF8000040F002000090A54890F82200A1
:1031400020B19DF8000040F080000090A04A126875
:10315000117D9F4A526810786B46012203F0BDF83A
:1031600010B14FF0FF30D9E7994880F82340002094
:10317000D4E738B5044604F0700010B10120009087
:1031800005E014B10020009001E040200090904A3A
:103190001268917C8E4A526810786B46012203F0C7
:1031A0009CF820B100218A488172481E38BD9DF8E4
:1031B000000020F04001864801730020009004F0D8
:1031C000400020B99DF8000040F00400009004F099
:1031D000200020B99DF8000040F00200009004F0AB
:1031E000100020B99DF8000040F00100009004F0AC
:1031F000080020B99DF8000040F038000090744AA3
:103200001268D17C724A526810786B46012203F032
:1032100064F820B100216E488172481EC6E724B1CF
:10322000082C02D00020FFF771FF6948847200214A
:103230000175322005F03DF90020B7E738B50446A6
:103240006348807CA04201D1002038BD002C46D0CC
:103250005F4A126811795E4A526810786B46012203
:1032600002F086FF10B14FF0FF30EEE79DF800004E
:1032700020F020000090564A12681179544A526892
:1032800010786B46012203F028F810B14FF0FF30A0
:10329000DBE7032005F00DF9022000904C4890F880
:1032A000220020B19DF8000040F0800000904848C6
:1032B00090F8230020B19DF8000040F0300000900D
:1032C000434A1268117D424A526810786B460122C7
:1032D00003F003F8002851D04FF0FF30B5E73C4A27
:1032E000126811793A4A526810786B46012202F04E
:1032F0003FFF10B14FF0FF30A7E73548807A00F06C
:10330000010028B19DF8000040F02000009004E08A
:103310009DF8000020F0200000902D4A12681179DD
:103320002B4A526810786B46012202F0D6FF10B18A
:103330004FF0FF3089E7032005F0BBF8244890F8F0
:10334000220010B18020009001E000200090204871
:1033500090F8230020B19DF8000040F0300000906C
:103360001B4A1268117D1A4A526810786B46012276
:1033700002F0B3FF10B14FF0FF3066E714488474D9
:10338000002062E708B51248807A10B94FF0FF308C
:1033900008BD002000900E4A1268D17B0C4A52688A
:1033A00010786B46012202F098FF10B14FF0FF3009
:1033B000EEE7074A12685179054A526810786B4661
:1033C000012202F08AFF68B14FF0FF30E0E7000011
:1033D00038000020252335783A20252335780D0A3A
:1033E00000000000F84A12681179F74A5268107814
:1033F0006B46012202F071FF10B14FF0FF30C7E7BA
:10340000F14890F82400002853D00C200090EE4A98
:1034100012681179EC4A526810786B46012202F06A
:103420005CFF10B14FF0FF30B2E7322005F041F8F9
:10343000C0200090E448807A00F0010020B19DF89F
:10344000000040F020000090DF4A12681179DE4A47
:10345000526810786B46012202F03FFF10B14FF026
:10346000FF3095E7D848407C10B10220009001E081
:1034700000200090D44A1268D17BD34A5268107859
:103480006B46012202F029FF10B14FF0FF307FE7B9
:1034900000200090CC4A12685179CB4A52681078CB
:1034A0006B46012202F019FF002855D04FF0FF3083
:1034B0006EE704200090C44A12681179C24A52682B
:1034C00010786B46012202F008FF10B14FF0FF3078
:1034D0005EE7BD48807C20B9BB48807A00F00100DF
:1034E00010B94020009001E060200090B64A1268B8
:1034F0001179B54A526810786B46012202F0EDFE50
:1035000010B14FF0FF3043E7322004F0D2FFAE4855
:10351000407C10B10120009001E000200090AA4AF8
:103520001268D17BA84A526810786B46012202F0DB
:10353000D4FE10B14FF0FF302AE7A34A1268517948
:10354000A14A52681078A04B1033012202F0C5FE48
:1035500010B14FF0FF301BE7002019E770B50446AB
:10356000002624F00104984890F8240008B10020B7
:1035700070BD9548807A10B94FF0FF30F8E7924857
:10358000057C807A2040904908740846007CA0425F
:1035900002D04FF0FF3600E0002614B98A48007DC3
:1035A00018B10120FFF722FD02E00020FFF71EFD09
:1035B0003CB1FFF7E7FE20B1834805744FF0FF30C0
:1035C000D6E73046D4E738B504467F48807A10B94C
:1035D0004FF0FF3038BDBC2C02DB0120009015E01D
:1035E000622C02DB0220009010E02A2C02DB032078
:1035F00000900BE0142C02DB0420009006E00A2C63
:1036000002DB0520009001E0062000906E48C07AA1
:103610009DF80010884201D10020DBE76A4A126859
:103620009178694A526810786B46012202F055FE83
:1036300010B14FF0FF30CDE79DF800106248C17225
:103640000020C7E738B50446282C02DD4FF0FF30D4
:1036500038BDDCB90020FFF759FD00208DF80000CF
:1036600007208DF80100584A1268917C564A52682A
:1036700010786B46022202F030FE10B14FF0FF309E
:10368000E6E70021504801750020E1E70120FFF73F
:103690003DFD20208DF80000012C06D100208DF882
:1036A00001000520FFF78FFF17E0052C06DC012045
:1036B0008DF801000520FFF786FF0EE0142C06DCD4
:1036C00002208DF801000A20FFF77DFF05E00320AE
:1036D0008DF801001420FFF776FF9DF80100072107
:1036E00001EB8010C0B28DF80100374A1268917C5E
:1036F000354A526810786B46022202F0EEFD10B196
:103700004FF0FF30A4E708212F4881720021017398
:10371000012101750020FFF721FF002098E738B54F
:1037200004462948807A10B94FF0FF3038BD26484A
:1037300090F8240010B14FF0FF30F7E72248007DE9
:1037400050B134B1282C04DCE0B2FFF77BFF00203D
:10375000ECE70020FFF776FF042C01DA042404E0F4
:10376000B4F57A7F01DD4FF47A744FF47A7090FBF0
:10377000F4F0401EC0B20090134A12685178124A09
:10378000526810786B46012202F0A7FD10B14FF08D
:10379000FF30CBE79DF80000401C4FF47A7191FB9D
:1037A000F0F081B20848C1810146C9894810FFF78D
:1037B0000AFF0020BAE738B504460348807A28B9E2
:1037C0004FF0FF3038BD000038000020022C06D03A
:1037D000042C07D0082C08D0102C0CD108E00020B5
:1037E00000900BE00820009008E01020009005E019
:1037F0001820009002E04FF0FF30E3E700BFF948E7
:10380000407A9DF80010B0EBE10F01D10020D9E71C
:10381000F44A1268D179F34A526810786B46012253
:1038200002F05BFD10B14FF0FF30CBE79DF80000D8
:10383000C110EC4841720020C4E738B50446E9489D
:10384000807A10B94FF0FF3038BDFA2C09D0B4F5AA
:10385000FA7F09D0B4F57A7F09D0B4F5FA6F0CD1AC
:1038600008E0002000900BE00820009008E0102005
:10387000009005E01820009002E04FF0FF30E3E7F1
:1038800000BFD848007A9DF80010B0EBE10F01D1DD
:103890000020D9E7D34A12689179D24A5268107849
:1038A0006B46012202F019FD10B14FF0FF30CBE75B
:1038B0009DF80000C010CB4908720020C4E71CB579
:1038C00080208DF80000C74A1268917CC54A526872
:1038D00010786B46012202F000FD10B14FF0FF306E
:1038E0001CBD642004F0E5FD00208DF80000BD4AF9
:1038F0001268917CBB4A526810786B46012202F034
:10390000ECFC10B14FF0FF30EAE7B64A1268917D47
:10391000B44A526810786B46062202F029FC10B1B6
:103920004FF0FF30DCE79DF80500C007400F9DF821
:10393000031001F0010140EA41009DF8011001F07F
:10394000010140EA010494B1012C03D10121A548F1
:10395000C17431E0022C03D10021A248C1742BE0D4
:103960002146A1A004F09CFE4FF0FF30B8E79D4A2D
:103970001268D1789B4A526810786B46012202F097
:10398000F7FB10B14FF0FF30AAE79DF8000000F000
:103990000F042CB99E4804F083FE4FF0FF309FE7E0
:1039A000042C06D19BA004F07BFE01218D48C1743C
:1039B00002E000218B48C174FF218A488172FF20F8
:1039C00088490872FF2187484172C1724FF6FF7122
:1039D000C181FF21017481740121017380F82210DB
:1039E000002180F823104175017516300160416097
:1039F0008160163880F8241080F82510C1844FF4B7
:103A0000FA60FFF71AFF10B14FF0FF3068E70220AD
:103A1000FFF7D1FE10B14FF0FF3061E72A20FFF72A
:103A2000D2FD10B14FF0FF305AE73220FFF777FE9A
:103A300010B14FF0FF3053E70020FFF78FFD10B1BA
:103A40004FF0FF304CE70020FFF7F8FB10B14FF0CC
:103A5000FF3045E70020FFF78CFB002040E7704770
:103A60007CB504460D465F48807A00F0700010B9BE
:103A70004FF0FF307CBD5B4A1268117B594A526897
:103A800010786B46062202F073FB10B14FF0FF3046
:103A9000F0E79DF801009DF8001040EA012000B217
:103AA00020809DF803009DF8021040EA012000B23A
:103AB00060809DF805009DF8041040EA012000B2E6
:103AC000A08015B12846FFF7CAFF0020D2E77CB5D9
:103AD00004460D464348807A00F0080010B94FF0C4
:103AE000FF307CBD3F4A1268517B3E4A52681078D5
:103AF0006B46062202F03CFB10B14FF0FF30F0E7BE
:103B00009DF801009DF8001040EA012000B22080DD
:103B10009DF803009DF8021040EA012000B2608089
:103B20009DF805009DF8041040EA012000B2A08035
:103B300015B12846FFF793FF0020D2E72DE9FE4F8D
:103B400005460C462748807A18B94FF0FF30BDE88B
:103B5000FE8F244A1268917B224A5268107802AB89
:103B6000022202F005FB10B14FF0FF30EFE79DF8A5
:103B700009009DF8081040EA012006B214B1204661
:103B8000FFF76DFF17494968C88807F0E3FA154940
:103B900001904968B1F9080007F0C4FA834630463D
:103BA00007F0C0FA5946009007F01AFC82460199C6
:103BB00007F086F981461F4907F014F980464FF057
:103BC0008F4107F00FFB074607F070FA28600020CE
:103BD000BDE710B588B004461CB94FF0FF3008B0FF
:103BE00010BD29E038000020556E737570706F723B
:103BF00074656420736F6674776172652070726F8C
:103C000064756374207265762025642E0A000000B6
:103C100084DB000848616C662073656E73697469A3
:103C200076697479207061727420666F756E642E87
:103C30000A00000000000C42206830B9606820B91A
:103C4000A06810B9002008B010BDFA49496808788A
:103C500006AB0322114602F08BFA10B14FF0FF3091
:103C6000F1E79DF81800082101EB201000F00F008B
:103C7000ADF800009DF8190001EB201000F00F00D6
:103C8000ADF802009DF81A0001EB201000F00F00C3
:103C9000ADF8040020684100BDF90000403091FB00
:103CA000F0F000B2ADF8100060684100BDF902000C
:103CB000403091FBF0F000B2ADF81200A068410076
:103CC000BDF90400403091FBF0F000B2ADF81400F3
:103CD000D8494968087806AB0622114602F048FA2E
:103CE00010B14FF0FF30AEE79DF819009DF81810A5
:103CF00040EA012000B2ADF808009DF81B009DF8D5
:103D00001A1040EA012000B2ADF80A009DF81D002B
:103D10009DF81C1040EA012000B2ADF80C00BDF87F
:103D20001000BDF80810084400B2ADF81000BDF84E
:103D30001200BDF80A10084400B2ADF81200BDF838
:103D40001400BDF80C10084400B2ADF81400BDF822
:103D50001000000A8DF81800BDF81000C0B28DF8F0
:103D60001900BDF81200000A8DF81A00BDF8120003
:103D7000C0B28DF81B00BDF81400000A8DF81C00BD
:103D8000BDF81400C0B28DF81D00AA494968087832
:103D900006AB0622114602F0A0FA10B14FF0FF3038
:103DA00051E700204FE70146A248007A30B10128D0
:103DB00007D0022809D003280FD10AE0FA20088092
:103DC0000EE04FF4FA7008800AE04FF47A70088031
:103DD00006E04FF4FA60088002E00020088000BF8F
:103DE00000BF0020704701469248407A30B1012858
:103DF00007D0022808D003280CD108E00220087060
:103E00000BE00420087008E00820087005E010208E
:103E1000087002E04FF0FF30704700BF8548C07C5B
:103E200018B108784006000E08700020F4E701463B
:103E30008048C07A082817D2DFE800F01704070A84
:103E40000D101318BC20088013E06220088010E0D9
:103E50002A2008800DE0142008800AE00A2008804B
:103E600007E00520088004E000BF00BF00200880B4
:103E700000BF00BF0020704701466E4890F8240044
:103E800010B14FF0FF3070476A48C08908800020A9
:103E9000F9E7014600200880401E704701464FF0B8
:103EA000FF30704701466348007A30B1012807D0DF
:103EB000022808D003280CD108E05F4808600BE016
:103EC0005E48086008E05E48086005E05D480860FC
:103ED00002E04FF0FF30704700BF0020FBE70146D3
:103EE0005448407A30B1012808D002280AD003286B
:103EF00010D10BE04FF4804008800EE041F69C703A
:103F000008800AE04FF48050088006E04FF400601B
:103F1000088002E04FF0FF30704700BF4548C07C8A
:103F200010B10888401008800020F5E7014641489C
:103F3000007C08700020704701463E48807A10B12E
:103F40000120087001E0002008700020704738B59B
:103F500004463848807A10B94FF0FF3038BD354AF2
:103F60001268117C334A526810786B46022202F0C4
:103F7000FFF810B14FF0FF30F0E79DF801009DF819
:103F8000001040EA012000B220800020E6E72DE981
:103F9000FE4F0746884692461D46DDF830B00026A3
:103FA0000024244890F8240010B1601EBDE8FE8F64
:103FB000002028701F48807A10B94FF0FF30F5E7D5
:103FC0001C48007C10B94FF0FF30EFE71948007C27
:103FD00000F0400008B1B01CC6B21648007C00F0EA
:103FE000200008B1B01CC6B21248007C00F01000DE
:103FF00008B1B01CC6B20F48007C00F0080008B140
:10400000B01DC6B20B4A1268917A0A4A52681078FB
:104010006B46022202F0ACF810B14FF0FF30C5E75A
:104020009DF801009DF8001040EA0129B1450BDA26
:104030000020BBE73800002000000343000083425B
:104040003333034233338341FC4840684088B9EB43
:10405000600F17DDF94A1268517CF84A52681078EF
:104060006B46012202F084F810B14FF0FF309DE75B
:104070009DF8000000F0100020B1FFF783F96FF009
:10408000010093E75046FFF7EAFCEC4A1268D17A48
:10409000EA4A526810786B46324602F069F810B16D
:1040A0004FF0FF3082E799FBF6F0401E8BF80000DE
:1040B00000202870B4422AD0E048007C00F00800BC
:1040C00028B3601C1DF800001DF8041040EA012010
:1040D00000B2A8F80000E01C1DF80010A01C1DF89C
:1040E000000041EA002000B2A8F80200601D1DF89F
:1040F0000010201D1DF8000041EA002000B2A8F8C1
:104100000400287840F008002870A01D84B2B44252
:1041100013D0CA48007C00F0400070B1601C1DF84C
:1041200000001DF8041040EA012000B23880287811
:1041300040F040002870A01C84B2B44213D0BF48A5
:10414000007C00F0200070B1601C1DF800001DF81C
:10415000041040EA012000B27880287840F0200066
:104160002870A01C84B2B44213D0B448007C00F084
:10417000100070B1601C1DF800001DF8041040EA2A
:10418000012000B2B880287840F010002870A01CF0
:1041900084B200200AE7F8B504460F461646A74841
:1041A00090F8240010B94FF0FF30F8BDA348807A92
:1041B00010B94FF0FF30F8E7A04A1268917A9F4A91
:1041C000526810786B46022201F0D2FF10B14FF016
:1041D000FF30EAE79DF801009DF8001040EA012554
:1041E000A54203DA00203070401EDEE793484068A5
:1041F0004088B5EB600F17DD904A1268517C8F4AFA
:10420000526810786B46012201F0B2FF10B14FF0F6
:10421000FF30CAE79DF8000000F0100020B1FFF762
:10422000B1F86FF00100C0E7E2B2844B1B68D97AA5
:10423000824B5B6818783B4601F09AFF10B14FF053
:10424000FF30B2E795FBF4F0401E30700020ACE781
:1042500001467A4880F82210002070477CB5054658
:1042600076494968087801AB04220D2101F080FFEE
:1042700008B107207CBD9DF80700C0F301109DF830
:10428000041001F0E00140EAE1008DF800009DF823
:104290000700C0F381009DF8051001F0E00140EA3D
:1042A000E1008DF801009DF8070000F003009DF883
:1042B000061001F0E00140EAE1008DF80200002460
:1042C0001CE01DF8040018B9002045F8240013E094
:1042D0005B4845F8240006E055F82400594906F0EB
:1042E00081FF45F824001DF80400401EC0B20DF8FF
:1042F00004000028F0D100BF601CC4B2032CE0DB36
:104300000020B7E72DE9FE4F06460F460025684618
:10431000FFF7A4FF002442E056F8240057F82410C9
:10432000A0EB010ABAF1000F01DB514601E0CAF12E
:104330000001084606F0F6FE83464FF08F4106F076
:10434000BFFD80465DF82400002106F07BFE16D0FC
:104350005DF82410404606F0B3FD82464FF07E51D2
:1043600007F03EF8814629F0004A3748416A504636
:1043700007F004F812D20120A04005430EE03248B5
:10438000C169404606F0FAFE05D32F48016A40464F
:1043900006F0F4FF02D20120A0400543641C032C68
:1043A000BADB2846BDE8FE8F2DE9FC5F06460F46C6
:1043B000002522494968087801AB03220D2101F04C
:1043C000D7FE10B10720BDE8FC9F9DF8040000F067
:1043D0001F008DF804009DF8050000F01F008DF807
:1043E00005009DF8060000F01F008DF8060000246F
:1043F00062E056F8240057F82410A0EB010BBBF143
:10440000000F01DB594601E0CBF10001084606F040
:1044100089FE4FF08F41009006F052FD814601A8C1
:10442000005DC0B30849086806F094FE834659460B
:10443000064806F045FD80460FE0000038000020E9
:104440007B14AE3E1D5A843FA8CD000800B04C45F9
:10445000FE49404606F0C6FE804601A8005D401EAB
:10446000C0B201A908550028F2D14146484606F0DD
:1044700027FD83464FF07E5106F0B2FF82462AF0B8
:10448000004BF3488169584606F078FF13D20120AB
:10449000A04005430FE0FFE7ED480169484606F0FC
:1044A0006DFE05D3EA484169484606F067FF02D22F
:1044B0000120A0400543641C032C9ADB284682E7B8
:1044C0002DE9F04F87B005460C46914601208DF846
:1044D000100000208DF81100DE4A1268917CDD4A40
:1044E0005268107804AB022201F0F7FE20B14FF0C1
:1044F000FF3007B0BDE8F08FC82003F0DAFF0020DE
:104500008DF81000D34A1268D17BD24A52681078D5
:1045100004AB012201F0E1FE10B14FF0FF30E8E7FB
:10452000CC4A12685179CB4A5268107804AB012208
:1045300001F0D3FE10B14FF0FF30DAE7C54A126840
:10454000917CC44A5268107804AB012201F0C5FE88
:1045500010B14FF0FF30CCE7BE4A1268D17DBD4AA2
:104560005268107804AB012201F0B7FE10B14FF091
:10457000FF30BEE7B74A12681179B64A5268107820
:1045800004AB012201F0A9FE10B14FF0FF30B0E7FB
:104590000C208DF81000AF4A12681179AD4A5268AC
:1045A000107804AB012201F098FE10B14FF0FF30FB
:1045B0009FE70F2003F07DFFA648806A407A8DF8C0
:1045C0001000A44A12689178A24A5268107804AB8D
:1045D000012201F082FE10B14FF0FF3089E79D48C3
:1045E000806A007A8DF810009A4A12685178994AC8
:1045F0005268107804AB012201F06FFE10B14FF049
:10460000FF3076E7B9F1000F07D09248806A807AD0
:1046100040F0E0008DF8100004E08E48806A807A57
:104620008DF810008B4A126891798A4A5268107886
:1046300004AB012201F051FE10B14FF0FF3058E7FA
:10464000B9F1000F07D08348806AC07A40F0E000DB
:104650008DF8100003E07E48C07A8DF810007D4A86
:104660001268D1797B4A5268107804AB012201F0BC
:1046700034FE10B14FF0FF303BE7B9F1000F02D02C
:10468000C82003F016FF40208DF81000714A126810
:104690001179704A5268107804AB012201F01DFEB6
:1046A00010B14FF0FF3024E778208DF81000694AF0
:1046B00012685179674A5268107804AB012201F000
:1046C0000CFE10B14FF0FF3013E76149888903F009
:1046D000F0FE00208DF810005E4A126851795D4AA4
:1046E0005268107804AB012201F0F7FD10B14FF0D1
:1046F000FF30FEE6574A1268917A564A526810789F
:1047000004AB022201F034FD10B14FF0FF30F0E6AF
:104710009DF811009DF8101040EA012B0C209BFB26
:10472000F0F0C6B20020A86068602860A0606060F9
:104730002060824665E0474A1268D17A454A52684D
:10474000107804AB0C2201F013FD10B14FF0FF30D4
:10475000CFE69DF811009DF8101040EA012000B24C
:10476000ADF808009DF813009DF8121040EA0120F2
:1047700000B2ADF80A009DF815009DF8141040EA4B
:10478000012000B2ADF80C00BDF908102068084403
:104790002060BDF90A10606808446060BDF90C1023
:1047A000A0680844A0609DF817009DF8161040EA24
:1047B000012000B2ADF800009DF819009DF8181016
:1047C00040EA012000B2ADF802009DF81B009DF800
:1047D0001A1040EA012000B2ADF80400BDF9001043
:1047E000286808442860BDF90210686808446860B9
:1047F000BDF90410A8680844A8600AF1010000F09F
:10480000FF0AB24597DB1248D0F800C02868C117EC
:10481000090441EA1041070462460023384603F0C8
:104820001AFF32460023CDE9020103F014FF28608D
:104830000748D0F800C06868C117090441EA104170
:10484000070462460023384606E0000054E3853F33
:10485000A8CD00083800002003F0FDFE32460023FA
:10486000CDE9020103F0F7FE6860FE48D0F800C011
:10487000A868C117090441EA1041070462460023F1
:10488000384603F0E8FE32460023CDE9020103F08A
:10489000E2FEA860F348D0F804C02168C8170004FD
:1048A00040EA11480F04624600233846414603F0AF
:1048B000D2FE32460023CDE9020103F0CCFE206097
:1048C000E848D0F804C06068C117090441EA104103
:1048D000070462460023384603F0BDFE324600233B
:1048E000CDE9020103F0B7FE6060DE48D0F804C0F5
:1048F000A068C117090441EA104107046246002379
:10490000384603F0A8FE32460023CDE9020103F049
:10491000A2FEA060A068002804DDA068A0F5803099
:10492000A06003E0A06800F58030A0600020E0E512
:1049300038B50446CC4890F82400A04201D10020AC
:1049400038BD24B3C84890F8250010B94FF0FF30A7
:10495000F6E70020FEF74AFB0020FEF76FFCC24995
:10496000C88CFEF7DCFE00200090BF49496808783B
:104970006B460122232101F0B0FC0121BA4880F8E6
:1049800024100120FEF732FBFEF7FCFC13E00020B0
:10499000FEF72CFBB448007C0090B34949680878C6
:1049A0006B460122232101F098FC0021AE4880F8DB
:1049B0002410FEF7E7FC0020C2E72DE9F04F8DB090
:1049C00083460F4602200C90A74890F8240020B19F
:1049D0000020FFF7ADFF012600E0002603A8FFF747
:1049E000E2F905A8FFF7FFF901A8FFF720FA02A8EE
:1049F000FFF742FA9C4890F80AA004A8FFF796FA3D
:104A0000002407E0002239465846FFF759FD00B957
:104A100002E0641C022CF5DB00BF022C01D1002552
:104A200028E0002407E0012206A909A8FFF748FDB5
:104A300000B902E0641C022CF5DB00BF022C01D19E
:104A4000002517E006A93846FFF75CFC00F0FF08D8
:104A500009A95846FFF7A8FC00F0FF090025B9F1A5
:104A6000000F01D145F00105B8F1000F01D145F06B
:104A7000020500BFFF207C490872FF217A4841727D
:104A8000C1724FF6FF71C181FF2181720174012152
:104A90000173BDF80C00FEF7D0FE9DF81400FEF780
:104AA0008AFEBDF80400FEF78EFDBDF80800FEF793
:104AB00036FE5046FEF75DFB9DF81000FEF74EFDFA
:104AC00016B10120FFF734FF28460DB0BDE8F08F86
:104AD000F8B504460D46164616B94FF0FF30F8BD3E
:104AE0006148807A10B94FF0FF30F8E720128DF856
:104AF0000000E0B28DF801009DF8010028445A49F9
:104B000049684989884202DD4FF0FF30E7E7564A9D
:104B10001268117E544A526810786B46022201F0E6
:104B2000DCFB10B14FF0FF30D9E7EAB24E4B1B6807
:104B3000597D4D4B5B681878334601F0CEFB10B1C0
:104B40004FF0FF30CBE70020C9E7F8B504460D462B
:104B5000164616B94FF0FF30F8BD4348807A10B9B9
:104B60004FF0FF30F8E720128DF80000E0B28DF82A
:104B700001009DF8010028443B4949684989884261
:104B800002DD4FF0FF30E7E7374A1268117E364A00
:104B9000526810786B46022201F09FFB10B14FF073
:104BA000FF30D9E7EAB2304B1B68597D2E4B5B686A
:104BB0001878334601F0DCFA10B14FF0FF30CBE744
:104BC0000020C9E72DE9F04385B005460E46904622
:104BD0009946254890F8250020B14FF0FF3005B0E8
:104BE000BDE8F08316B94FF0FF30F8E7002423E06A
:104BF000281B102801DD102000E0281B87B2321985
:104C000039462046FFF764FF10B14FF0FF30E6E76A
:104C100001AA39462046FFF798FF10B14FF0FF3048
:104C2000DDE730193A4601A903F086FE10B16FF0B6
:104C30000100D4E7E01984B2AC42D9DB4FEA282066
:104C40008DF8000008F0FF008DF80100064A126898
:104C5000917E054A526810786B46022201F03DFBB6
:104C600038B103E0A8CD0008380000204FF0FF3035
:104C7000B5E70121FE4880F82510A0F82690002015
:104C8000ADE70146FA4890F824000870002070470C
:104C90004FF0FF30704702464FF0FF30704701463B
:104CA0004FF0FF307047F8B505460F461446002C0C
:104CB00070D0B5F5FF5F01DDFF2605E0202D01DA9C
:104CC000012601E0C5F3471607B90127282C02DDAC
:104CD0004FF0FF30F8BDE648407D28BBE44890F82F
:104CE000240038B10020FFF723FE0121E04880F8BE
:104CF000201003E00021DE4880F82010DC48163048
:104D0000FFF751F8DA481830FFF76DF8D8481A3035
:104D1000FFF78DF8D6481C30FFF7AEF8D448817AFB
:104D200081771F30FFF702F90020FEF75FF90020BE
:104D3000FEF788FC00208DF80000CD4A12689178BB
:104D4000CB4A526810786B46012201F0C6FA10B1C6
:104D50004FF0FF30BEE740208DF80000C44A1268D3
:104D6000D17BC34A526810786B46012201F0B5FA34
:104D700000B165E08DF800608DF80170BC4A1268E2
:104D8000117ABB4A526810786B46022201F0A5FAEC
:104D900008B155E047E0052003F08BFBB448407AAA
:104DA000072101EBC000C0B28DF80000B04A1268C4
:104DB000D179AF4A526810786B46012201F08DFA22
:104DC00000B13DE020208DF80000012C03D100202F
:104DD0008DF801000EE0052C03DC01208DF80100A8
:104DE00008E0142C03DC02208DF8010002E003200F
:104DF0008DF801009DF80100072101EB8010C0B281
:104E00008DF801009A4A1268917C994A526810788C
:104E10006B46022201F061FA00B111E001219448D1
:104E20004175002056E7924A1632002103E0505C9B
:104E300000B105E0491C0C29F9D34FF0FF3049E7D8
:104E4000FF208B490872FF2189484172C1724FF6D9
:104E5000FF71C181FF21817201740121017301463B
:104E6000887FFEF786F98249C88AFEF7E6FC80490A
:104E7000087EFEF7A0FC7E49488BFEF7A4FB7C4928
:104E8000888BFEF74CFC7A49C87FFEF767FB7848B1
:104E900090F8200010B10120FFF74AFD002174486E
:104EA0004175002016E770B588B002A905A8FFF784
:104EB00084FD0446032C3ED101A8FEF7F3FF0598BC
:104EC00006F030F90646019906F08CF9054606F021
:104ED000EDF80590069806F025F90646019906F0CA
:104EE00081F9054606F0E2F80690079806F01AF9EF
:104EF0000646019906F076F9054606F0D7F80790C0
:104F000005A800F052FA6846FEF7E9FFBDF8001068
:104F1000029848430290BDF800100398484303905C
:104F2000BDF8001004984843049002A800F0D0FA9D
:104F3000002008B070BD0120FBE7014691F9002078
:104F4000002A01DD00201EE091F90020002A01DA8C
:104F5000042018E091F90120002A01DD012012E06F
:104F600091F90120002A01DA05200CE091F90220D4
:104F7000002A01DD022006E091F90220002A01DA70
:104F8000062000E00720704710B504462046FFF7D2
:104F9000D4FF0346E01CFFF7D0FF43EAC00083B212
:104FA000A01DFFF7CAFF43EA801083B2184610BD68
:104FB00070B5002401F0CFF9FEF781FC00283DD147
:104FC0007820FEF7D6F8C4B20CB1012070BD78206D
:104FD000FEF7C4FAC4B20CB10220F7E76420FEF772
:104FE0009EFBC4B20CB10320F0E700F043F9C4B259
:104FF0000CB10420EAE71F48FFF7C6FF054600F0A2
:1050000043F9C4B20CB10520E0E740F2731000F0A0
:105010007CFDC4B20CB10620D8E7642000F0EEFAA3
:10502000C4B20CB10720D1E70CB10820CEE70120B3
:10503000FFF77EFCC4B21CB10920C7E70A20C5E710
:105040000020C3E72DE9F04F99B004460D461646FF
:105050004FF07E574FF000084FF000094FF0000A64
:1050600012A813A918AB0EAACDE9001014A903E0E9
:10507000380000206400002016A800F0A5FE18B13A
:10508000012019B0BDE8F08FBDF84C0000F480702D
:1050900000287CD00E9806F045F883464FF09D41DD
:1050A00005F00EFF07460F9806F03CF883464FF0D8
:1050B0009D4105F005FF8046109806F033F88346C1
:1050C0004FF09D4105F0FCFE8146119806F02AF84C
:1050D00083464FF09D4105F0F3FE824639464FF07E
:1050E000804006F07FF84946059006F07BF841467F
:1050F00007904FF0404006F075F85146059006F0D5
:1051000071F80690079905F06DFE834605F03EFEA6
:10511000CDE9080104F05AFD4FF06632544BCDE959
:105120000A0105F059FBCDE90C0105F093F8206068
:1051300049464FF0804006F055F84946029006F087
:1051400051F8414604904FF0404006F04BF841467C
:10515000029006F047F80390049906F041F983465F
:105160004FF07E5105F03EFE059005F00FFECDE9B3
:10517000080139464FF0804006F034F8414603906C
:1051800006F030F8494604904FF0804000E06AE0B5
:1051900006F028F85146039006F024F88346049957
:1051A00005F020FE059005F0F1FDCDE90601DDE9F1
:1051B000082304F053FF4FF066322D4BCDE90A016E
:1051C00005F00AFBCDE90C0105F044F828605146D2
:1051D000504606F007F849460490484606F002F8A3
:1051E00041460390404605F0FDFF394601903846A0
:1051F00005F0F8FF0090019905F0F4FD0290039985
:1052000006F0EEF88346049906F0EAF8059005F0FA
:10521000BDFDCDE908015146384605F0E3FF49469A
:105220000490404605F0DEFF0390049905F0DAFD96
:105230004FF08041059005F0D5FF834605F0A6FDAF
:10524000CDE90601DDE9082304F008FF4FF06632DE
:10525000074BCDE90A0105F0BFFACDE90C0104F0D6
:10526000F9FF306001E002200BE7002009E70000B1
:1052700066A64C4010B5C8234FF48062F74940F64B
:10528000F630FFF79FFC10BD10B586B00446F4A0C1
:1052900000680390F3A000680290F3A000680190FA
:1052A000F2A00068009004F0030003A9085C8DF8E8
:1052B000140003A8C4F3C101405C8DF8150003A8D5
:1052C000C4F38111405C8DF8160004F0030002A9BC
:1052D000085C8DF8100002A8C4F3C101405C8DF891
:1052E000110002A8C4F38111405C8DF8120005AAD8
:1052F000032140F22640FFF7EBFB18B14FF0FF30DF
:1053000006B010BD04AA032140F22A40FFF7E0FBDB
:1053100010B14FF0FF30F3E701980590009804902A
:1053200004F0040058B19DF8140040F001008DF81D
:1053300014009DF8100040F001008DF8100004F0FA
:10534000200058B19DF8150040F001008DF81500BF
:105350009DF8110040F001008DF8110004F48070F8
:1053600058B19DF8160040F001008DF816009DF828
:10537000120040F001008DF8120005AA03214FF43D
:105380008860FFF7A5FB10B14FF0FF30B8E704AA23
:10539000032140F23140FFF79BFB10B14FF0FF308B
:1053A000AEE7B34804810020AAE71FB50446B04821
:1053B000007A00F0030054F820000190AC48007A15
:1053C00000F0040010B1019840420190A848007A12
:1053D000C0F3C10054F820000290A548007A00F004
:1053E000200010B1029840420290A148007AC0F318
:1053F000811054F8200003909D48008900F48070CB
:1054000010B10398404203909A49019880FB010132
:10541000800F40EA810001909649029880FB0110BC
:10542000820042EA917002909249039880FB011039
:10543000820042EA917003900198000E8DF80000FE
:105440000198000C8DF801000198000A8DF8020007
:105450000198C0B28DF803006A4604214FF47470BD
:10546000FFF736FB18B14FF0FF3004B010BD0298C3
:10547000000E8DF800000298000C8DF801000298D3
:10548000000A8DF802000298C0B28DF803006A4647
:1054900004214FF47570FFF71BFB10B14FF0FF3084
:1054A000E3E70398000E8DF800000398000C8DF8D8
:1054B00001000398000A8DF802000398C0B28DF82D
:1054C00003006A4604214FF47670FFF701FBCCE736
:1054D00070B588B0064601A8FEF701FDBDF80400CE
:1054E0000021C90341EA5045C4036148007A00F035
:1054F000030056F8200005905D48007A00F0040093
:1055000010B10598404205905948007AC0F3C10097
:1055100056F8200006905648007A00F0200010B19E
:105520000698404206905248007AC0F3811056F81F
:10553000200007904E48008900F4807010B1079851
:10554000404207900598C117A0FB042301FB0431DA
:1055500000FB0510810041EA927005900698C11782
:10556000A0FB042301FB043100FB0510810041EA8C
:10557000927006900798C117A0FB042301FB043129
:1055800000FB0510810041EA927007900598000E1B
:105590008DF808000598000C8DF809000598000AA0
:1055A0008DF80A000598C0B28DF80B000698000E21
:1055B0008DF80C000698000C8DF80D000698000A76
:1055C0008DF80E000698C0B28DF80F000798000EF7
:1055D0008DF810000798000C8DF811000798000A4C
:1055E0008DF812000798C0B28DF8130002AA0C21A2
:1055F0004FF42570FFF76CFA08B070BD30B585B078
:1056000004461DA207CA02AB07C3C82C03DD4FF036
:10561000FF3005B030BDC82090FBF4F0401E85B2CD
:10562000280A8DF80000E8B28DF801006A460221D0
:1056300040F21620FFF74CFA10B14FF0FF30E8E7C8
:1056400002AA0C2140F6C120FFF742FA10B14FF038
:10565000FF30DEE7064884810020DAE7D0CD00087D
:105660004CCD6C000CC92C003656760026466600E0
:10567000C400002009E3CA02FEF2ABC4AAF1DFDFD6
:10568000BBAFDFDF0146FC488089088000207047FF
:105690002DE9FC4706460F4606F0070010B1B7F5A6
:1056A000C86F03DD4FF0FF30BDE8FC87384605F0DA
:1056B00051FD8146F14905F003FC80466846FEF73E
:1056C00092FB9DF80000022806D0042816D0082876
:1056D00026D0102848D135E04FF08D41404605F0E6
:1056E00081FD814605F0FEFC84B2E549404605F0A7
:1056F00079FD814605F0F6FC85B238E04FF08C412B
:10570000404605F06FFD814605F0ECFC84B2DD49B2
:10571000404605F067FD814605F0E4FC85B226E0D1
:105720004FF08B41404605F05DFD814605F0DAFC07
:1057300084B2D549404605F055FD814605F0D2FCBE
:1057400085B214E04FF08A41404605F04BFD81469A
:1057500005F0C8FC84B2CD49404605F043FD8146C2
:1057600005F0C0FC85B202E04FF0FF309CE700BFBF
:1057700020128DF80400E0B28DF8050028128DF893
:105780000600E8B28DF8070006F00100A0B101AAFA
:1057900002214FF4EA70FFF79BF910B14FF0FF3090
:1057A00082E70DF1060202214FF49270FFF790F9A3
:1057B00010B14FF0FF3077E706F00200A0B101AA68
:1057C00002214FF4EC70FFF783F910B14FF0FF3076
:1057D0006AE70DF1060202214FF49470FFF778F9A1
:1057E00010B14FF0FF305FE706F00400A0B101AA4E
:1057F00002214FF4EE70FFF76BF910B14FF0FF305C
:1058000052E70DF1060202214FF49670FFF760F99E
:1058100010B14FF0FF3047E7002045E738B50446A8
:105820000020009004F0010020B19DF8000040F03D
:105830003000009004F0020020B19DF8000040F01C
:105840000C00009004F0040020B19DF8000040F02E
:10585000030000906A4601214FF4A470FFF738F965
:1058600038BD38B50446012C01DA012402E0042CCD
:1058700000DD0424601EC0B200906A46012140F29F
:105880004F10FFF725F938BD38B50446052094FBC5
:10589000F0F085B228128DF80000E8B28DF8010012
:1058A0006A4602214FF4EF70FFF712F938BD38B5A0
:1058B0000446052094FBF0F085B228128DF8000014
:1058C000E8B28DF801006A4602214FF4ED70FFF74F
:1058D000FFF838BDF8B505460E464FF47A7095FBD3
:1058E000F0F000FB06F4200E8DF80000200C8DF87F
:1058F0000100200A8DF80200E0B28DF803006A462C
:1059000004214FF4AE70FFF7E3F8F8BD38B5044654
:10591000052094FBF0F084B220128DF80000E0B274
:105920008DF801006A4602214FF4AD70FFF7D0F800
:1059300038BD38B50446052094FBF0F084B220123F
:105940008DF80000E0B28DF801006A4602214FF4A4
:10595000AC70FFF7BDF838BD38B5044614B94FF048
:10596000FF3038BD6A4604214FF45870FFF7EDF858
:1059700010B14FF0FF30F4E79DF8000000069DF8ED
:10598000011040EA01409DF8021040EA01209DF814
:105990000310084320600020E3E738B50446200EDA
:1059A0008DF80000200C8DF80100200A8DF802000F
:1059B000E0B28DF803006A4604214FF45870FFF7F7
:1059C00087F838BD38B5044614B94FF0FF3038BDFC
:1059D0006A4604214FF47170FFF7B7F810B14FF029
:1059E000FF30F4E79DF8000000069DF8011040EA42
:1059F00001409DF8021040EA01209DF80310084381
:105A000000EB8000800020600020E0E738B504460D
:105A10001420B4FBF0F4200E8DF80000200C8DF85B
:105A20000100200A8DF80200E0B28DF803006A46FA
:105A300004214FF47170FFF74BF838BD38B50446B8
:105A400064B120208DF8000028208DF8010030205E
:105A50008DF8020038208DF8030004E0A322042111
:105A6000684602F095FF6A46042140F69E20FFF743
:105A70002FF8FDF787FC38BDC40000200000484324
:105A8000000040460000C045000040450000C04402
:105A900038B5044664B1C0208DF80000C2208DF8EE
:105AA0000100C4208DF80200C6208DF8030004E038
:105AB0008B220421684602F06BFF6A46042140F6FF
:105AC0009820FFF705F8FDF75DFC38BD3EB50446AC
:105AD0006CB1FDA1D1E900208968CDE900200291D7
:105AE0006A4609214FF49760FEF7F2FF3EBDF9A226
:105AF000D2E900109268CDE9010200916A460921BD
:105B00004FF49760FEF7E4FFF0E73EB5044602204D
:105B10008DF80000CA208DF80100E3208DF8020006
:105B200009208DF803006A4604216820FEF7D0FFA3
:105B3000A3208DF8000004F0400048B1C0208DF88B
:105B40000100C8208DF80200C2208DF8030006E095
:105B5000A3208DF801008DF802008DF8030004F4F5
:105B6000C07048B1C4208DF80400CC208DF8050029
:105B7000C6208DF8060006E0A3208DF804008DF8FD
:105B800005008DF80600A3208DF807008DF80800A9
:105B90008DF809006A460A2140F6A720FEF798FF13
:105BA00004F0030018B120208DF8000002E0D82096
:105BB0008DF800006A46012140F6B620FEF788FF06
:105BC00004F0200018B10120FFF780FF02E0002060
:105BD000FFF77CFF04F4C07008B304F4807060B178
:105BE000B2208DF800008B208DF80100B6208DF8D2
:105BF00002009B208DF803000BE0B0208DF8000020
:105C000080208DF80100B4208DF8020090208DF8DE
:105C100003006A46042140F6A220FEF759FF04F073
:105C2000010020B3F8208DF800006A4601214FF4EE
:105C30000B60FEF74DFFFA210720FFF729FD072033
:105C4000FFF7ECFD0120FFF70CFE6420FFF71CFEC0
:105C50004FF4FA70FFF72BFEC821A148FFF73AFE78
:105C60002820FFF753FE0A20FFF763FE08E0D82044
:105C70008DF800006A4601214FF40B60FEF728FF03
:105C800004F0020018B1D9208DF8000002E0D820FD
:105C90008DF800006A46012140F23D70FEF718FFC2
:105CA00004F0040018B10120FFF7F2FE02E000202A
:105CB000FFF7EEFE04F0100018B10120FFF7BEFE62
:105CC00002E00020FFF7BAFE44F008008549488151
:105CD000FDF758FB00208349887304F0400018B199
:105CE0000846807B801D887304F4C07020B17D4815
:105CF000807B801D7B49887304F0140020B17948B3
:105D0000807B10307749887304F0030020B1754818
:105D1000807B001D7349887300203EBD0146714899
:105D200040890880002070472DE9F0410446E07862
:105D300000F0C006E07800F03F05607800F0010058
:105D400098B1EF102846E91705EB5171C910A5EB82
:105D5000C101491C01F0FF086248006820B1614898
:105D6000414602683846904700BF607800F008005E
:105D700030B15C48406818B1B0115A4A5168884740
:105D80000020BDE8F08110B586B0044656A207CACF
:105D900003AB07C357A207CA8DE80700012C09D03F
:105DA000022C0ED103AA0B2140F68220FEF790FEB2
:105DB00006B010BD6A460B2140F68220FEF788FE31
:105DC000F6E74FF0FF30F3E72DE9F04F8DB00746CF
:105DD000884615469946DDE9166B00240020308080
:105DE0004049887B5A4605A9FEF7D5F918B1601ECF
:105DF0000DB0BDE8F08F3B48807A00F01400002819
:105E000061D09DF8140000069DF8151040EA01408D
:105E10009DF8161040EA01209DF8171008432860ED
:105E20009DF8180000069DF8191040EA01409DF801
:105E30001A1040EA01209DF81B10084368609DF885
:105E40001C0000069DF81D1040EA01409DF81E1040
:105E500040EA01209DF81F100843A8609DF820002B
:105E600000069DF8211040EA01409DF8221040EA0A
:105E700001209DF823100843E86004F11000C4B22B
:105E8000286800140190686800140290A868001443
:105E90000390E8680014049001984043029901FBC4
:105EA0000100039901FB0100049901FB010ABAF109
:105EB000706F02DBBAF1885F22DDFDF763FA002024
:105EC0003080401E94E721E0B8AAB38DB4980D3518
:105ED0005D000000B8AAAAAAB088C3C5C700000028
:105EE00009E3CA02C4000020D8B1B9F38BA391B66C
:105EF00009B4D900DAB1B9F38BA391B6DAB4DA00F8
:105F0000B6F9000040F48070308000BF3448807AD9
:105F100000F0400020B305A9601C085C095D40EA60
:105F2000012000B2A8F8000005A9E01C095C05AA40
:105F3000A01C105C41EA002000B2A8F8020005A9EC
:105F4000601D095C201D105C41EA002000B2A8F829
:105F50000400A01DC4B2B6F9000040F00800308073
:105F60001F48408900F4C07008B305A9601C085C94
:105F7000095D40EA012000B2388005A9E01C095CF7
:105F800005AAA01C105C41EA002000B2788005A997
:105F9000601D095C201D105C41EA002000B2B88041
:105FA000A01DC4B2B6F9000040F0700030800C486B
:105FB000807A00F0030018B105A90819FFF7B4FEB4
:105FC0004846FDF74CFD002012E7014604480160F9
:105FD00000207047014602484160002070470000E1
:105FE000C400002070B505460C4600F0CDF9D02065
:105FF00000F074FA00F005FA18B100F0E3F901209E
:1060000070BD284600F06AFA00F0FBF9204600F067
:1060100065FA00F0F6F918B100F0D4F90120EFE7C5
:1060200000F0D0F90020EBE770B504460025BC2C49
:1060300001DB012510E0622C01DB02250CE02A2C9B
:1060400001DB032508E0142C01DB042504E00A2C05
:1060500001DB052500E0062529461A20FFF7C2FFCF
:1060600070BD70B50446B4F57A7F01DD4FF47A74E3
:10607000042C00DA04244FF47A7090FBF4F0401EF4
:10608000C5B229461920FFF7ADFF0546264604EBA9
:10609000D671C1F34F00FFF7C7FF70BD70B504465E
:1060A00000F072F9D02000F019FA00F0AAF92046A9
:1060B00000F014FA00F0A5F900F066F9D12000F024
:1060C0000DFA00F09EF9002000F031FA054600F0CC
:1060D00079F9284670BD10B50446E006010E1C2073
:1060E000FFF780FF10BD10B50446E006010E1B202F
:1060F000FFF778FF10BD10B500F02DF980216B205F
:10610000FFF770FF642002F0D4F900216B20FFF745
:1061100069FF0320FFF7E7FF0020FFF7DCFF3220D5
:10612000FFF79FFF00213820FFF75CFF00216A2066
:10613000FFF758FF00212320FFF754FF802137206D
:10614000FFF750FF7520FFF7A9FF0446682C0BD11D
:1061500001216B20FFF746FF00216C20FFF742FF73
:106160003220FFF77EFF01E0012010BD0020FCE798
:106170002DE9F04106460F4614461D4600F004F98D
:10618000002141EA4601C8B200F0A8F900F039F94F
:1061900020B100F017F90120BDE8F081384600F089
:1061A0009DF900F02EF900F0EFF8012101EB460116
:1061B000C8B200F093F900F024F90DE0012C04D1ED
:1061C000002000F0B4F9287003E0012000F0AFF9DE
:1061D0002870601EC4B26D1C002CEFD100F0F2F8E4
:1061E0000020D9E72DE9F84F6B46022241216820B3
:1061F000FFF7BEFF9DF801009DF8001040EA012066
:106200000FFA80FA504604F0BCFA804600224B4B4D
:1062100004F002F906464A4A4A4B04F04DF8044697
:1062200004F018F883464849584604F0DBFF04465A
:1062300004F03CFF00B2BDE8F88F2DE9FC410446B4
:106240000D4616466B46062243216820FFF790FF55
:106250000746BFB99DF801009DF8001040EA0120F3
:1062600000B220809DF803009DF8021040EA012052
:1062700000B228809DF805009DF8041040EA012036
:1062800000B230803846BDE8FC812DE9FC4104466F
:106290000D4616466B4606223B216820FFF768FF35
:1062A0000746BFB99DF801009DF8001040EA0120A3
:1062B00000B220809DF803009DF8021040EA012002
:1062C00000B228809DF805009DF8041040EA0120E6
:1062D00000B230803846BDE8FC812DE9F04105462A
:1062E0000E461746984600F04FF8002141EA450156
:1062F000C8B200F0F3F800F084F820B100F062F8C2
:106300000120BDE8F081304600F0E8F800F079F8AF
:1063100000240CE018F8040000F0E0F800F071F838
:1063200018B100F04FF80120EBE7601CC4B2BC428A
:10633000F0DB00F047F80020E3E700000040754084
:10634000A4703D0AD74342400000C84210B5022065
:1063500002F08BF810BD08B50121102000F0F6FE08
:106360004FF4C050ADF8000010208DF8030003205A
:106370008DF802006946864800F02CFC4FF4C051AD
:10638000834800F0D4FC08BD10B58148406820F473
:1063900070407F4948600846406840F4405048607B
:1063A00001207C4908607C49C1F8B001FFF7CEFFAD
:1063B000002078490860FFF7C9FF00207649C1F83E
:1063C000B00110BD10B57248406820F470407049AB
:1063D00048600846406840F44050486000206D49DD
:1063E000091D08606C49C1F8AC01FFF7AFFF01203F
:1063F0006849091D08606849C1F8AC01FFF7A6FFAC
:1064000010BD10B500246248406820F47040604917
:1064100048600846406840F40040486001205D49FB
:106420000860FFF793FF01205B49C1F8B001FFF757
:106430008DFF07E0601CC4B2FA2C03DDFFF7C2FF3A
:10644000012010BD5348803800680028F2D151491E
:10645000091D086000BFF4E710B500204D49091D73
:1064600008604B48406820F470404949486008463D
:10647000406840F44050486000204749C1F8AC01F2
:10648000FFF764FF01204349091D0860FFF75EFF25
:1064900000204149C1F8B00110BD10B500203D49B0
:1064A000091D08603A48406820F470403849486047
:1064B0000846406840F44050486001203649C1F821
:1064C000AC01FFF743FF01203249091D0860FFF7C7
:1064D0003DFF00203049C1F8B00110BD70B5044641
:1064E0002B48406820F470402949486008464068BD
:1064F00040F44050486000202649091D08600025EE
:1065000012E0E009234908606006040E01202249D8
:10651000C1F8B001FFF71AFF00201E49091D0860ED
:10652000FFF714FF681CC5B2082DEADB70BD70B51B
:10653000054600241648406820F47040144948601D
:106540000846406840F400404860002615E00020FE
:106550001049091D0860FFF7F9FE01200E49C1F836
:10656000B0016006040E0B488038006808B1601C5A
:10657000C4B2FFF7EBFE701CC6B2082EE7DB15B9FC
:10658000FFF78BFF01E0FFF767FF204670BD0000BB
:1065900000100140AC01224200002242F8B5FD4A41
:1065A000FD49FE48FEF74EFD00287DD1FFF71AFE9B
:1065B000FB490880FB4AFC49FC48FFF766FEFC4AA1
:1065C000FC49FD48FFF739FEF548B0F90000002806
:1065D0000EDA002010232D228C2100904E20FCF793
:1065E000D8F9EF480088404200B2ED49088007E042
:1065F0000020102320228C2100904E20FCF7C9F9A6
:10660000E748B0F90000642190FBF1F41020032367
:1066100022468C2100905620FCF74EFAE048B0F953
:1066200000000A2190FBF1F201FB1204102001236B
:1066300022468C2100907620FCF73EFADB48B0F928
:10664000000004F09EF80646DC4ADD4B04F0C4F876
:10665000044604F039F800B2D44908800846B0F97D
:10666000000000280EDA002010232D22A021009027
:106670004E20FCF78EF9CD480088404200B2CB494D
:10668000088007E0002010232022A02100904E2047
:10669000FCF77FF9C548B0F90000642190FBF1F4E4
:1066A00010200323224600E0A3E1A0210090562001
:1066B000FCF702FABD48B0F900000A2190FBF1F2A4
:1066C00001FB1204102001232246A0210090762015
:1066D000FCF7F2F9B448B0F9000004F052F80646AD
:1066E000B64AB74B04F078F8044603F0EDFF00B269
:1066F000AD4908800846B0F9000000280EDA0020F5
:1067000010232D22B42100904E20FCF742F9A64818
:106710000088404200B2A449088007E0002010230E
:106720002022B42100904E20FCF733F99E48B0F9A6
:106730000000642190FBF1F4102003232246B421D1
:1067400000905620FCF7B8F99748B0F900000A21EC
:1067500090FBF1F201FB1204102001232246B42128
:1067600000907620FCF7A8F99148B0F9000004F0F9
:1067700008F806464FF06632924B03F04DFE044691
:1067800003F0A2FF00B28A4908800846B0F9000071
:1067900000280EDA002010232D22C82100904E2060
:1067A000FCF7F7F882480088404200B28049088030
:1067B00007E0002010232022C82100904E20FCF783
:1067C000E8F87B48B0F90000642190FBF1F4102058
:1067D00003232246C82100905620FCF76DF9744827
:1067E000B0F900000A2190FBF1F201FB1204102025
:1067F00001232246C82100907620FCF75DF97249FA
:106800006648006804F0EEFC044604F04FFC00B259
:106810006E4908800846B0F9000000280EDA002012
:1068200010232D22DC2100904E20FCF7B2F867489F
:106830000088404200B26549088007E0002010232C
:106840002022DC2100904E20FCF7A3F85F48B0F92D
:1068500000000A2190FBF1F4102003232246DC21E2
:1068600000905620FCF728F95848B0F900000A219A
:1068700090FBF1F201FB1204102001232246DC21DF
:1068800000907620FCF718F94F494348006804F05F
:10689000A9FC044604F00AFC00B24C4908800846F2
:1068A000B0F9000000280EDA002010232D22F0217C
:1068B00000904E20FCF76DF844480088404200B23A
:1068C0004249088007E0002010232022F021009098
:1068D0004E20FCF75EF83D48B0F900000A2190FB1D
:1068E000F1F4102003232246F02100905620FCF7FB
:1068F000E3F83648B0F900000A2190FBF1F201FB01
:106900001204102001232246F02100907620FCF78B
:10691000D3F82D491F48006804F064FC044604F0D5
:10692000C5FB00B2294908800846B0F900000028DC
:106930000FDA002010232D224FF4827100904E2098
:10694000FCF727F821480088404200B21F49088020
:1069500008E00020102320224FF4827100904E2086
:10696000FCF717F81948B0F900000A2190FBF1F480
:106970001020032322464FF4827100905620FCF72A
:106980009BF81248B0F900000A2190FBF1F201FBDC
:1069900012041DE078000020740000207000002028
:1069A00088000020800000207E0000207C00002065
:1069B000860000208400002082000020894160E5DC
:1069C000D022E33F66663040000020418A0000206C
:1069D0001020012322464FF4827100907620FCF7AC
:1069E0006BF80448006808B9012000E00020014964
:1069F0000860F8BDA00121420948804709480047C6
:106A0000FEE7FEE7FEE7FEE7FEE7FEE7FEE7FEE75E
:106A1000FEE7FEE704480549054A064B70470000BB
:106A20002F080008310100080002002000080020A3
:106A3000000400200004002031490143314A116064
:106A4000704770B5002100230F22C47804B32D4C89
:106A5000246804F4E064C4F5E064210AC1F104038D
:106A6000CA40447804FA03F18478144021430901B0
:106A7000254C0678A155047804F01F050124AC408C
:106A800005786D11AD0005F1E025C5F8004109E07C
:106A9000047804F01F050124AC401C4D06787611E3
:106AA00045F8264070BD1A4A0A400243154B1B1F89
:106AB0001A60704739B1134A121D12680243114B14
:106AC0001B1D1A6006E00F4A121D126882430D4B0F
:106AD0001B1D1A607047042808D14FF0E021096996
:106AE00041F004014FF0E022116107E04FF0E02196
:106AF000096921F004014FF0E022116170470000A4
:106B00000000FA050CED00E000E400E080E100E0A8
:106B100080FFFF1F10B50446CC48844208D10121F4
:106B2000042000F02DFB0021042000F029FB46E0AA
:106B3000C748844208D10121082000F021FB002130
:106B4000082000F01DFB3AE0C248844208D1012130
:106B5000102000F015FB0021102000F011FB2EE0AA
:106B6000BD48844208D10121202000F009FB00210A
:106B7000202000F005FB22E0B848844208D1012122
:106B8000402000F0FDFA0021402000F0F9FA16E064
:106B9000B348844208D10121802000F0F1FA00219D
:106BA000802000F0EDFA0AE0AE48844207D10121CE
:106BB000801500F0E5FA0021A01500F0E1FA10BD03
:106BC00010B50121084600F0DBFA0021012000F099
:106BD000D7FA10BD2DE9F04102460025002600201D
:106BE00000230024002791F803C00CF00F0591F852
:106BF00003C00CF0100CBCF1000F03D091F802C0E0
:106C00004CEA050591F800C0BCF1000F31D01468C2
:106C100000202BE04FF0010C0CFA00F3B1F800C09B
:106C20000CEA03069E4220D183004FF00F0C0CFAB1
:106C300003F7BC4305FA03FC4CEA040491F803C0D3
:106C4000BCF1280F06D14FF0010C0CFA00FCC2F881
:106C500014C00AE091F803C0BCF1480F05D14FF011
:106C6000010C0CFA00FCC2F810C0401C0828D1D35B
:106C70001460B1F800C0BCF1FF0F34DD546800208F
:106C80002EE000F1080C4FF0010808FA0CF3B1F8FF
:106C900000C00CEA03069E4221D183004FF00F0C86
:106CA0000CFA03F7BC4305FA03FC4CEA040491F820
:106CB00003C0BCF1280F05D100F1080C08FA0CF84C
:106CC000C2F8148091F803C0BCF1480F07D100F15D
:106CD000080C4FF0010808FA0CF8C2F81080401CAC
:106CE0000828CED35460BDE8F0814FF6FF710180D3
:106CF000022181700421C170704702460020936810
:106D00000B400BB1012000E000207047014688686D
:106D100080B2704702460020D3680B400BB10120BF
:106D200000E0002070470146C86880B270470161EA
:106D30007047416170470AB1016100E041617047ED
:106D4000C16070474FF480320A4382618161826181
:106D500082698269704702460020434B18684FF6EB
:106D60008073184040EA021008433F4B1860704798
:106D70003E49C8617047F0B50A460023002400214F
:106D8000002500F00046B6F1004F02D1364EF16901
:106D900001E0354E7168C0F3034583B200F440163C
:106DA000B6F5401F08D121F070612F4E766826F0AD
:106DB00070662D4F7E6012E000F48016B6F5801FDD
:106DC00006D1032606FA05F4A14341F0706106E0FE
:106DD000460D360103FA06F6B14341F0706122B167
:106DE000460D360103FA06F6314300F00046B6F1CF
:106DF000004F02D11C4EF16101E01B4E7160F0BDED
:106E000030B500228B071C0F0F2303FA04F2164B38
:106E100008338C1053F824309343134C08348D10EE
:106E200044F8253023468C1053F824308C07240F67
:106E300000FA04F423430C4C08348D1044F8253038
:106E400030BD0A49DC31086070470000000801408D
:106E5000000C0140001001400014014000180140E6
:106E6000001C0140002001400000014000002042C1
:106E7000DF48006840F00100DD49086008464068CE
:106E8000DC490840DA49486008460068DA490840A9
:106E9000D74908600846006820F48020086008464A
:106EA000406820F4FE0048604FF41F00886070477F
:106EB000CF49096821F48031CD4A11601146096833
:106EC00021F480211160B0F5803F03D0B0F5802F10
:106ED0000ED106E0C649096841F48031C44A116008
:106EE00007E0C349096841F4A021C14A116000E0EC
:106EF00000BF00BF704710B50146002200230020EC
:106F00004A11012A02D1BA4C236806E0022A02D1B2
:106F1000B74C236A01E0B64C636A01F01F020124FA
:106F200094401C400CB1012000E0002010BD38B599
:106F3000002000900024002500BF3120FFF7DBFF78
:106F400005460098401C00900098B0F5A06F01D055
:106F5000002DF2D03120FFF7CEFF08B1012400E070
:106F60000024204638BD01460020A14A106820F0C8
:106F7000F80040EAC10010607047A04908607047FF
:106F8000024600209A4B586820F47C1042EA010324
:106F90001843974B586070479849086670470146F8
:106FA0000020934A506820F0030008435060704767
:106FB0008F48406800F00C007047014600208C4A62
:106FC000506820F0F00008435060704701460020F0
:106FD000874A506820F4E0600843506070470146DB
:106FE0000020834A506820F4605040EAC10050609D
:106FF000704729B17E4A527A02437D4B5A7204E0AF
:107000007B4A527A82437A4B5A7270477B49D83115
:107010000860704701460020754A506820F44040DF
:107020000843506070470021714A20321170704A45
:1070300082F82010012802D004280AD104E001219E
:107040006B4A2032117005E00521694A2032117027
:1070500000E000BF00BF704769490860704764499D
:10706000096A0143624A1162704765494439086000
:10707000704730B500210022002400235C4D6D686C
:1070800005F00C0121B1042905D0082923D105E020
:107090005C4D056022E05B4D05601FE0544D6D685E
:1070A00005F47012524D6D6805F48034022505EB2D
:1070B00092421CB9544D554305600BE04C4D6D6830
:1070C00005F400351DB1504D5543056002E04D4DAE
:1070D0005543056002E04B4D056000BF00BF444DC5
:1070E0006D6805F0F0010909484D6B5C0568DD40ED
:1070F00045603F4D6D6805F4E061090A434D6B5CE6
:107100004568DD4085603A4D6D6805F46051C90AF7
:107110003E4D6B5C4568DD40C560354D6D6805F4DE
:107120004041890B3A4D6B5CC568B5FBF3F50561D1
:1071300030BD29B12E4A526902432D4B5A6104E0F9
:107140002B4A526982432A4B5A61704729B1284A17
:1071500092690243264B9A6104E0254A9269824370
:10716000234B9A61704729B1214AD2690243204BCF
:10717000DA6104E01E4AD26982431D4BDA6170472E
:1071800029B11B4AD2680243194BDA6004E0184A5D
:10719000D2688243164BDA60704729B1144A1269EB
:1071A0000243134B1A6104E0114A12698243104BE7
:1071B0001A61704712494039086070470F49C86426
:1071C00070470B49C87170470948406A40F08070A9
:1071D00007494862704701460020054A92680A4004
:1071E0000AB1012000E00020704701498872704711
:1071F000001002400000FFF8FFFFF6FE00004242D0
:107200008004424200127A0000093D008C000020F8
:107210009C00002010B50446FE48844208D101219C
:10722000C014FFF7ADFF0021E014FFF7A9FFC4E091
:10723000B4F1804F08D101210846FFF7AEFF0021CD
:107240000120FFF7AAFFB8E0F348844208D10121EA
:107250000220FFF7A2FF00210220FFF79EFFACE013
:10726000EE48844208D101210420FFF796FF002157
:107270000420FFF792FFA0E0E948844208D10121F1
:107280000820FFF78AFF00210820FFF786FF94E01F
:10729000E448844208D101211020FFF77EFF00213D
:1072A0001020FFF77AFF88E0DF48844208D10121EF
:1072B0002020FFF772FF00212020FFF76EFF7CE007
:1072C000DA48844208D101214014FFF759FF002118
:1072D0006014FFF755FF70E0D548844209D10121C1
:1072E000C804FFF74DFF00214FF40020FFF748FFCF
:1072F00063E0D048844209D101210805FFF740FF2F
:1073000000214FF48010FFF73BFF56E0CA4884424B
:1073100009D101214805FFF733FF00214FF4001088
:10732000FFF72EFF49E0C548844208D101214020E3
:10733000FFF733FF00214020FFF72FFF3DE0C0485B
:10734000844208D101218020FFF727FF00218020FF
:10735000FFF723FF31E0BB48844208D101218015AB
:10736000FFF71BFF0021A015FFF717FF25E0B64828
:10737000844209D101210804FFF702FF00214FF4E4
:107380008030FFF7FDFE18E0B048844209D10121AA
:107390004804FFF7F5FE00214FF40030FFF7F0FE40
:1073A0000BE0AB48844208D101218804FFF7E8FED6
:1073B00000214FF48020FFF7E3FE10BD0022028879
:1073C000944B98420ED0994B98420BD0B0F1804F1D
:1073D00008D0914B984205D0904B984202D0904BE8
:1073E000984204D14FF68F731A404B881A438D4B45
:1073F000984207D08C4B984204D04FF6FF431A4076
:10740000CB881A4302808B8883850B880385814B48
:1074100098420BD0854B984208D08B4B984205D0B0
:107420008A4B984202D08A4B984201D10B7A03864C
:1074300001238382704770B5002400220023058C4D
:107440004FF6FE7635400584028C8388048B4FF618
:107450008F752C40B51E2C400D882C43751E2A407C
:107460000D892A434D882A436A4DA8420BD06F4D9F
:10747000A84208D0744DA84205D0744DA84202D04D
:10748000734DA84213D14FF6F7752A404D892A4310
:107490004FF6FB752A408D882A434FF6FF652B4037
:1074A0004FF6FF552B408D892B43CD892B4383808D
:1074B0000483CD888586028470BD70B500240022C7
:1074C0000023058C4FF6EF7635400584028C8388C7
:1074D000048B48F6FF752C404FF6FF452C400D8875
:1074E0004FF6FF7606EA05252C434FF6DF752A4056
:1074F0000D8906EA05152A434D8806EA05152A4333
:10750000444DA84202D0494DA8421DD14FF67F7587
:107510002A404D894FF6FF7606EA05152A434FF6B5
:10752000BF752A408D8806EA05152A434FF6FF35B8
:107530002B404FF2FF752B408D8906EA85052B43C2
:10754000CD8906EA85052B4383800483CD88058792
:10755000028470BD70B5002400220023058C4FF614
:10756000FF6635400584028C8388848B4FF68F75C7
:107570002C404FF6FC752C400D882C434FF6FF55E0
:107580002A400D894FF6FF7606EA05252A434D88E5
:1075900006EA05252A431F4DA84202D0234DA842E2
:1075A0001DD14FF2FF752A404D894FF6FF7606EA4E
:1075B00005252A434FF6FF352A408D8806EA052522
:1075C0002A434EF6FF752B404DF6FF752B408D89F3
:1075D00006EA05152B43CD8906EA05152B43838062
:1075E0008483CD888587028470BD70B50022002316
:1075F0000024058C4EF6FF7635400584038C848884
:10760000828B48F6FF752A404FF6FF452A400D88C9
:1076100020E00000002C0140000400400008004071
:10762000000C0040001000400014004000340140F5
:10763000004C01400050014000540140001800403F
:10764000001C004000200040004001400044014078
:10765000004801404FF6FF7606EA05252A434DF61D
:10766000FF752B400D8906EA05352B434D8806EA48
:1076700005352B43FA4DA84202D0FA4DA84208D155
:107680004BF6FF752C408D894FF6FF7606EA85157F
:107690002C4384808283CD88A0F84050038470BD41
:1076A000828B4FF2FF331A408283828B4FF6FF7337
:1076B00003EA01231A4382837047F0B50C4615464E
:1076C000002200210026078C4EF6FF7C07EA0C07FB
:1076D0000784828B018C4FF6FF7707EA043640F669
:1076E000FF473A404FF6FF7707EA05273A434FF640
:1076F000FF7707EA03373A43D94FB8420ED0D94F44
:10770000B8420BD0B0F1804F08D0D74FB84205D067
:10771000D64FB84202D0D64FB84206D14DF6FF77C9
:10772000394046F48057394305E047F6FF57394062
:1077300044F48057394382830184F0BD828B4FF635
:10774000F3731A408283828B0A4382837047F0B5B9
:107750000C461546002200210026078C4FF6FF6CD0
:1077600007EA0C070784828B018C4FF6FF7707EA44
:1077700004264FF60C773A404FF6FF7707EA0317D7
:107780002F433A43B64FB8420ED0B64FB8420BD053
:10779000B0F1804F08D0B44FB84205D0B34FB842D3
:1077A00002D0B34FB84206D14FF6FF57394046F4E6
:1077B0008077394305E04FF2FF57394044F4807732
:1077C000394382830184F0BD028B4FF2FF331A40AC
:1077D0000283028B4FF6FF7303EA01231A430283ED
:1077E0007047F0B50C461546002200210026078C94
:1077F0004FF6EF7C07EA0C070784028B018C4FF6EB
:10780000FF7707EA041640F6FF473A404FF6FF7746
:1078100007EA03373A434FF6FF7707EA05273A436B
:107820008F4FB8420ED08F4FB8420BD0B0F1804F7F
:1078300008D08D4FB84205D08C4FB84202D08C4F43
:10784000B84206D14FF6DF77394046F0100739438A
:1078500005E04FF65F77394044F010073943028363
:107860000184F0BD028B4FF6F3731A400283028B42
:107870000A4302837047F0B50C46154600220021EA
:10788000068C4FF6FE773E400684028B018C4FF645
:107890000C7632407E1C06EA03162E433243704EAD
:1078A000B0420ED06F4EB0420BD0B0F1804F08D036
:1078B0006D4EB04205D06D4EB04202D06C4EB0421B
:1078C00006D14FF6FD76314044F00106314305E024
:1078D0004FF6F576314044F00106314302830184CE
:1078E000F0BD70B505460C465D4885420ED05D483A
:1078F00085420BD0B5F1804F08D05B48854205D05A
:107900005A48854202D05A48854200D100E000BF63
:10791000208850B92389A28861882846FFF7ABFFE9
:10792000E1882846FFF79EFF25E0208804280AD139
:107930002389A28861882846FFF753FFE1882846FB
:10794000FFF742FF17E0208808280AD12389A28880
:1079500061882846FFF7FBFEE1882846FFF7EEFE28
:1079600009E02389A28861882846FFF7A6FEE188FE
:107970002846FFF795FE70BD2DE9F04105460C46FF
:1079800000260127608808B9022600E00026A088AA
:10799000012801D1022700E001272088A0B923890E
:1079A000A28861882846FFF766FFE1882846FFF72E
:1079B00059FF23893A4631462846FFF712FFE188EE
:1079C0002846FFF701FF13E02389A2886188284633
:1079D000FFF707FFE1882846FFF7F6FE23893A46BE
:1079E00031462846FFF747FFE1882846FFF73AFF70
:1079F000BDE8F0810A884B881A438B881A43CB88EC
:107A00001A430B891A434B891A438B891A43A0F8EE
:107A1000442070474FF6FF71818000210180C180B2
:107A20004180017270470021018041808180C180C6
:107A3000018141818181C1817047002101804180A4
:107A4000012181800021C1800181704700210180D6
:107A500041808180C1800181418181817047000026
:107A6000002C0140003401400004004000080040A8
:107A7000000C004021B1028842F00102028004E0C3
:107A800002884FF6FE731A400280704731B1B0F899
:107A9000442042F40042A0F8442005E0B0F844201D
:107AA000C2F30E02A0F8442070471AB183890B4339
:107AB000838102E083898B43838170478182704791
:107AC00041EA0203A0F8483070471AB183890B439A
:107AD000838102E083898B438381704701894FF65C
:107AE000F8721140018170470A46002101894FF662
:107AF0008F73194011430181704730B504460D461C
:107B000029462046FFF7F0FF208940F0070020813A
:107B100030BD2DE9F04104460D4616461F46602D46
:107B200006D13B46012231462046FFF75AFE05E0CA
:107B30003B46012231462046FFF79DFE294620465E
:107B4000FFF7D2FF208940F007002081BDE8F081D7
:107B500030B50C4600210189C9B24FF6FF7505EA20
:107B60000325154325432943018130BD2DE9F0410B
:107B700005460E4617469846002443463A46314687
:107B80002846FFF7E5FF2C894FF6F870044044F0D3
:107B900007044FF68F70044044F070042C81BDE858
:107BA000F081F0B504460D4616461F463B46324668
:107BB00029462046FFF7CCFF208940F480402081F1
:107BC000F0BD0185828270470A46002101884FF688
:107BD0008F731940114301807047F0B50C4615466C
:107BE0001E460021002200230189028B038C4FF6E0
:107BF000F877394021434FF6FC473A4040F20117ED
:107C00003A434FF6DD773B404FF6FF7707EA06171A
:107C10002F433B43018102830384F0BD0A460021C8
:107C2000018B4FF68F7319401143018370470A4649
:107C30000021018B48F6FF7319404FF6FF7303EAEA
:107C400002231943018370470A460021818B4FF6B6
:107C50008F7319401143818370470A460021818B3D
:107C600048F6FF7319404FF6FF7303EA02231943E6
:107C70008183704721B1028842F08002028004E0D3
:107C800002884FF67F731A400280704721B18288C4
:107C900042F00402828004E082884FF6FB731A40AF
:107CA0008280704721B1828842F00802828004E01D
:107CB00082884FF6F7731A408280704721B182881C
:107CC00042F00102828004E082884FF6FE731A407F
:107CD000828070470A460021018B4FF6F7731940E6
:107CE0001143018370470A460021018B4FF2FF7355
:107CF00019404FF6FF7303EA0223194301837047CB
:107D00000A460021818B4FF6F77319401143818396
:107D100070470A460021818B4FF2FF7319404FF6DE
:107D2000FF7303EA02231943818370470A46002147
:107D3000018B4FF6FB7319401143018370470A46CC
:107D40000021018B4FF6FF3319404FF6FF7303EA12
:107D500002231943018370470A460021818B4FF6A5
:107D6000FB7319401143818370470A460021818BC0
:107D70004FF6FF3319404FF6FF7303EA022319430E
:107D8000818370470A460021018B4FF67F731940AB
:107D90001143018370470A460021018BC1F30E0194
:107DA0004FF6FF7303EA02231943018370470A4623
:107DB0000021818B4FF67F731940114381837047F7
:107DC0000A460021818BC1F30E014FF6FF7303EACF
:107DD00002231943818370470A460021018C4FF624
:107DE000FD7319401143018470470A460021018C3C
:107DF0004FF6F77319401143018470470A4600217A
:107E0000018C4FF6DF7319404FF6FF7303EA02133C
:107E10001943018470470A460021018C4FF67F7395
:107E200019404FF6FF7303EA0213194301847047A8
:107E30000A460021018C4FF6FF5319404FF6FF739D
:107E400003EA02231943018470470A460021018C8A
:107E50004FF2FF7319404FF6FF7303EA02231943F1
:107E6000018470470A460021018C4DF6FF731940CA
:107E70004FF6FF7303EA023319430184704730B5AC
:107E8000002301248C40A3B2048C9C430484048C02
:107E900002FA01F5ADB22C43048430BD30B50023A5
:107EA00004248C40A3B2048C9C430484048C02FA06
:107EB00001F5ADB22C43048430BD70B503460020FB
:107EC00000241846183001258D40ACB21D8CA54306
:107ED0001D8409B1082909D100EB6100056825F06E
:107EE000700505600568154305600EE00D1FC5F3BC
:107EF0004E052844056825F4E045056005684FF601
:107F0000FF7606EA02263543056070BD21B102887E
:107F100042F00202028004E002884FF6FD731A402C
:107F20000280704721B1028842F00402028004E01E
:107F300002884FF6FB731A400280704721B1828895
:107F400042F08002828004E082884FF67F731A40FC
:107F50008280704702884FF6F7731A4002800288C9
:107F60000A430280704782884FF68F731A408280DE
:107F700082880A438280704702894FF6F8731A405C
:107F8000028102890A430281704702894FF67F739A
:107F90001A40028102890A43028170478184704736
:107FA0008185704781867047018770478187704758
:107FB000A0F84010704702884FF6FF431A40028035
:107FC00002880A43028070470146888E7047014646
:107FD000088F70470146888F70470146B1F840000E
:107FE00070470146888C70470146088D70470246ED
:107FF0000020138A0B400BB1012000E000207047E5
:10800000CA430282704730B5024600200023002494
:10801000158A05EA0103958905EA010413B10CB13B
:10802000012000E0002030BDCA43028270470000FA
:1080300010B50446FB48844209D101218803FFF7AB
:108040009FF800214FF48040FFF79AF832E0F6489D
:10805000844209D101214804FFF79FF800214FF421
:108060000030FFF79AF825E0F048844209D1012159
:108070008804FFF792F800214FF48020FFF78DF875
:1080800018E0EB48844209D10121C804FFF785F8C4
:1080900000214FF40020FFF780F80BE0E548844210
:1080A00008D101210805FFF778F800214FF480106E
:1080B000FFF773F810BD2DE9F04786B005460E4670
:1080C0000024A24600BFA1460027B08900B100BF2E
:1080D0002F462C8A4CF6FF700440F08804432C8213
:1080E000AC894EF6F3100440B08831890843718999
:1080F00008430443AC81AC8A4FF6FF400440B0898A
:108100000443AC8201A8FEF7B4FFC648874202D1FF
:10811000DDF810A001E0DDF80CA0A88900F4004013
:1081200040B10AEBCA0000EB0A1031684900B0FB0D
:10813000F1F807E00AEBCA0000EB0A103168890089
:10814000B0FBF1F86420B8FBF0F0040120096421D1
:1081500001FB1089A88900F4004040B1322000EBF7
:10816000C900B0FBF1F000F00700044308E0322042
:1081700000EB09106421B0FBF1F000F00F000443A4
:108180002C8106B0BDE8F0874FF416510160002144
:108190008180C18001810C21418100218181704752
:1081A00010B502460020108A4FF2FF0318400B88DA
:1081B0004C8823438C882343CC8823431843108264
:1081C00010BD0021018041808180C180704721B1B4
:1081D000828942F40052828104E082894DF6FF7365
:1081E0001A4082817047F0B503460024002600251E
:1081F000002040F66A17B94200D100BF1846C1F30B
:10820000421401F01F06012707FA06F5012C01D1DF
:108210000C3004E0022C01D1103000E014301AB10F
:1082200007682F43076002E00768AF430760F0BDAF
:108230001AB1838A0B43838202E0838A8B43838251
:108240007047028A4FF6F0731A400282028A0A438C
:108250000282704782894FF2FF731A4082818289BD
:108260000A438281704721B1828942F002028281F1
:1082700004E082894FF6FD731A4082817047028ABA
:108280004FF6DF731A400282028A0A430282704765
:1082900021B1028A42F48042028204E0028A4BF653
:1082A000FF731A4002827047C1F308028280704750
:1082B00001468888C0F308007047818941F00101B8
:1082C00081817047028BD2B20283028B42EA012283
:1082D00002837047028B02F47F420283028B0A43BF
:1082E0000283704721B1828A42F02002828204E038
:1082F000828A4FF6DF731A408282704721B1828AE8
:1083000042F01002828204E0828A4FF6EF731A4034
:108310008282704721B1828A42F00802828204E0A0
:10832000828A4FF6F7731A408282704721B18289A0
:1083300042F40042828103E08289C2F30E0282810C
:10834000704721B1828A42F40062828204E0828A0C
:108350004FF2FF731A4082827047828A4FF6FB7396
:108360001A408282828A0A438282704721B1828ABD
:1083700042F00202828204E0828A4FF6FD731A40C4
:108380008282704702460020B1F5007F00D100BF15
:1083900013880B400BB1012000E00020704701F46E
:1083A0000072B2F5007F00D100BFCA43028070475F
:1083B00070B50246002400230025002040F66A160E
:1083C000B14200D100BFC1F3421501F01F030126E5
:1083D00006FA03F3012D02D19689334006E0022DFF
:1083E00002D1168A334001E0968A33400C120126EE
:1083F00006FA04F41688344013B10CB1012000E0F1
:10840000002070BD10B50022002340F66A14A1427E
:1084100000D100BF0A1201249440A3B2DC430480BF
:1084200010BD0000003801400044004000480040FA
:10843000004C00400050004010B56FF00400FEF703
:108440004AFB2E4800682E49B0FBF1F02D49087018
:108450000846007800EB4001C1EBC0104FF6FF71F9
:1084600001EAC0002849088010BD0146254A12785B
:108470004A434FF0E0235A6100229A611A4612697A
:1084800042F001021A6100BF4FF0E022106900F0D3
:1084900001021AB100F48032002AF5D04FF0E02238
:1084A000126922F001024FF0E0231A6100229A6162
:1084B00070470146144A12884A434FF0E0235A613C
:1084C00000229A611A46126942F001021A6100BF45
:1084D0004FF0E022106900F001021AB100F480327E
:1084E000002AF5D04FF0E022126922F001024FF08D
:1084F000E0231A6100229A617047000010000020FA
:1085000000127A00A0000020A2000020014600BF57
:10851000704700BF4B4A128802F04002002AF9D08F
:10852000C2B2484B1B1D1A80704710B586B0044676
:10853000012144F20400FEF709FE4FF40070ADF88B
:10854000140003208DF8160018208DF8170005A9D7
:108550003D48FEF73FFB4FF48060ADF81400042067
:108560008DF8170005A93848FEF734FB4FF4A060DA
:10857000FEF762FA25208DF8000003208DF8010037
:108580008DF8020001208DF803006846FEF759FAC5
:1085900001940020ADF80800ADF80A00ADF80C0019
:1085A000ADF810000C20ADF80E0001A92548FFF72A
:1085B00082FD012240F225512248FFF714FE0121DD
:1085C0002048FFF704FE06B010BD10B540F225515B
:1085D0001C48FFF7EDFE10B31A48FFF769FEC4B25E
:1085E0001A48008800F40040C8B91848008800F410
:1085F000804060B10A2C03D000201449088020E09C
:108600001248008840F400401049088019E00D2C01
:1086100006D10E48008840F480400C49088010E0E4
:108620000A480088C0F30D0009490C540748008827
:10863000401C0649088008460088C72801DD002044
:10864000088010BD0038014000080140A80000204B
:10865000D4000020704710B54C1084EA530404D5B0
:108660004042C1F1000138BF491E1B4204D55242AD
:10867000C3F1000338BF5B1E00F096F914F0804F81
:1086800004D04042C1F1000138BF491E14F0004F30
:1086900004D05242C3F1000338BF5B1E10BD00007E
:1086A0000FB4044910B503AA029800F083FC10BC73
:1086B0005DF814FBA40000200FB41CB5074B06AAFC
:1086C0007B4469460090059800F05BFC00206946F9
:1086D00000F06AFC1CBC5DF814FB0000E50800001B
:1086E00070B5044685690068C10601D5302600E0F2
:1086F0002026C00707D070BDD4E90121304690473D
:10870000206A401C20626D1EF6D570BD70B504460F
:1087100085690078C00707D170BDD4E90121202008
:108720009047206A401C20626D1EF6D570BD000087
:108730002DE9F0410646002410687529314616A53A
:1087400010D0AFF30080002802DA404213A507E002
:1087500031688A0701D512A502E0490704D511A5A1
:10876000012401E0AFF3008000210A2206F1240772
:1087700009E0B0FBF2FCB0FBF2F302FB1C0030306E
:1087800078541846491C0028F3D123462A4630461F
:10879000BDE8F04100F08AB9000000002D000000A3
:1087A0002B0000002000000070B504460D46214655
:1087B0001068AFF300802188090502D50F4A7A447A
:1087C00002E00E4A7A440E32002104F1240305E04F
:1087D00000F00F060009965D5E54491C0028F7D191
:1087E00020780023000704D5702D02D009B10223A0
:1087F00011322046BDE8704000F058B90452000024
:108800002DE9F05F894604464FF0000ADFF824B1F5
:10881000FB44C0F820A02046E168884700287DD0AE
:10882000252806D0D4E901219047206A401C206207
:10883000F1E700255F462046E16888472028064684
:1088400007DB312E05D2B81910F8200C08B105430A
:10885000F1E7A80701D525F00405C4F81CA00027FE
:10886000C4F818A02A2E09D0304601F0A7F938B371
:1088700004EB8708303EC8F8186019E059F8041B6B
:10888000204604EB87029161E1688847012F064684
:1088900018D1E069002820DA25F020051DE0D8F87D
:1088A000180000EB800006EB40003038C8F81800D4
:1088B0002046E1688847064601F080F90028EED19D
:1088C000012F0AD02E2E08D12046E16888477F1C50
:1088D0000646022F45F02005C4DBA069002803DA14
:1088E000404245F00105A061E80701D025F01005E0
:1088F000A6B1A6F14100192802D8203645F400653A
:108900004A463146204625604D46F7F74BFC60B19C
:10891000012807D0ED1D25F0070000E007E000F179
:10892000080978E705F1040975E730467AE7206A17
:10893000BDE8F09FDA51000040EA010310B59B0743
:108940000FD1042A0DD310C808C9121F9C42F8D0B9
:1089500020BA19BA884201D9012010BD4FF0FF306A
:1089600010BD1AB1D30703D0521C07E0002010BD80
:1089700010F8013B11F8014B1B1B07D110F8013B0C
:1089800011F8014B1B1B01D1921EF1D1184610BDED
:1089900002F0FF0343EA032242EA024200F01EBB58
:1089A000704770477047704753EA020C00F06980C7
:1089B0002DE9F04B4FF00006002B1FBFB3FA83F5F3
:1089C00003FA05F424FA05F65E4012BF1643B2FA24
:1089D00082F502FA05F4C5F120051EBF22FA05FC56
:1089E00044EA0C04203556EA044C4FEA144418BFFC
:1089F000641C4FF000084FF00009904271EB030C2B
:108A000039D3002919BFB1FA81F701FA07F6B0FA94
:108A100080F700FA07F6C7F120071EBF20FA07FC0F
:108A200046EA0C062037B6FBF4FCA7EB0507103F1F
:108A300007F01F0BCBF120060CFA0BFB2CFA06F605
:108A400044BFB3460026202FA4BF5E464FF0000B64
:108A50005BEA060C08BF4FF0010B19EB0B09ABFBEF
:108A6000027C48EB0608C01B06FB02CC0BFB03CCC8
:108A700071EB0C01C1E70B46024641464846BDE892
:108A8000F08B13B54FF000004FF00001AFF3008002
:108A9000BDE81C40704710B500F0C4FA006810BD76
:108AA00010B5044600F0BEFA046010BD2DE9F04791
:108AB0000D4699469246044600F12408016888064E
:108AC00004D5E06921F01001216000E00120A842F6
:108AD00001DD471B00E00027A1697A1902EB0900BC
:108AE000081AA0612078C00602D42046FFF7F8FDDE
:108AF000002608E0D4E901211AF806009047206A10
:108B0000401C761C20624E45F4DB2078C0060AD556
:108B10002046FFF7E5FD06E0D4E90121302090472B
:108B2000206A401C2062381EA7F10107F4DC07E030
:108B3000D4E9012118F805009047206A401C206202
:108B4000281EA5F10105F3DC2046FFF7DFFD2078A4
:108B5000000602D50220BDE8F0870120FBE7704740
:108B60002DE9FF4F0C461E464FF0FF378BB0D2E980
:108B70000001DDF860800A908A46C1F30A5505B904
:108B80003D46002108464FF00000BAF1000F00F406
:108B9000400005DA00EB80004FF4400101EA50008C
:108BA0004FEA9059B9F1010F00DDB9460A9850EA31
:108BB0004A000ED044F61050A5F2FF3545432F145D
:108BC000B8F1000F1ED07542291E1EDDC9F100024A
:108BD0001CE0B8F1010F4FF0000001D0302103E09C
:108BE000F24305E02154401CB042FBDB304600223A
:108BF000002121540B99C1F80880C1E900200FB071
:108C0000BDE8F08FBD1B6D1CDEE74A4600DA694205
:108C100006A800F091FA06AB93E8070003AB83E8DF
:108C2000070050460A9900F091FB8DE80700A0F577
:108C300000501F3800900398002D09DD42F21F01FB
:108C40004A46084403A90390684600F0F0FD08E096
:108C5000A0F500504A461F3803A90390684600F06B
:108C6000FAFD8DE807000004000C03D04FF0FF3040
:108C7000410800E01046B8F1000F03D00022009236
:108C800015461EE0751E05D400F0D0F9303262554D
:108C90006D1EF9D5B3460122084302D000227F1C85
:108CA00004E02078302801D100227F1E002A099795
:108CB00086D01DE0112D07DA00F0B8F93032625588
:108CC0006D1C50EA0102F5D1084302D00098C8B1EA
:108CD0000EE00021681E05E0235C625C63542254B0
:108CE000401E491C8142F7DBAB46A81B401E099081
:108CF000002004F80B000B98099AC0F80880C0E91E
:108D0000002B7CE711264FF0000859E72DE9F04FC2
:108D100088460446D21D22F0070191B0D1E9000136
:108D2000CDE90A0100F0CDFE02460B98C00F01D03C
:108D30002D2007E02068810701D52B2002E02021AB
:108D400001EAC000032A099001D0072A05DB034687
:108D50004146204600F0B0F90BE12078800601D5AD
:108D6000E06900E00620B8F1650F814606D0B8F151
:108D7000660F18D0B8F1670F70D131E00020B9F15B
:108D8000110F009001DB112301E009F101030AAA90
:108D900001A90CA8FFF7E4FEDDE90C70002609F13B
:108DA0000105834647E001204B4600904FF0004705
:108DB0000AAA01A90CA8FFF7D3FEDDE90DB00C99B2
:108DC0005D46002610B909F101000D18B9EB050048
:108DD00003D4C0F1FF3609F10105A5EB09002BE032
:108DE000B9F1010F01DA4FF001090020B9F1110FBB
:108DF0000090484601DD112300E003460AAA01A9BC
:108E00000CA8FFF7ADFEDDE90C704D460026834649
:108E1000207800070AD4AB4500DA5D4601A8012D91
:108E200004DD411911F8011C302907D04F4502DA41
:108E300017F1040F04DA012082460FE06D1EEEE701
:108E4000002F02DCED1B3E4403E0781CA84200DD4D
:108E50007D1CB81B00F1010A4FF000472078000785
:108E600003D4AA4501DB4FF0FF3A0021B7F1004FD0
:108E70000DF143088DF8431024D002202B23002F3E
:108E800001DA7F422D230A21021EA0F1010000DC3D
:108E90005FB197FBF1FC97FBF1F201FB1C7C1746DD
:108EA0000CF1300C08F801CDEEE7A8F101000370D9
:108EB0002188090501D5452100E06521A0F10108BF
:108EC00000F8011C09980FA9A1EB0807FF1D00B1CC
:108ED0000120411901EBEA70A1693844081A401ECB
:108EE000A0612078C00602D42046FFF7F9FB09985C
:108EF00028B1D4E901219047206A401C20622078E3
:108F0000C00622D52046FFF7EBFB1EE0002E04DB57
:108F1000B34502DD01A8805D00E03020D4E90121E5
:108F20009047206A401C2062761CAAF101005FEA8B
:108F3000000A0AD100F072F8C0680168405CD4E908
:108F400001219047206A401C2062281EA5F10105DE
:108F5000DCDC07E0D4E9012118F8010B9047206A16
:108F6000401C2062381EA7F10107F3DC2046FFF702
:108F7000CDFB032011B043E601694A1C0261087869
:108F8000704700B58FB0CDE9013100210591054949
:108F90007944CDE9031011466846FFF731FC0FB064
:108FA00000BD0000E5FFFFFF0A6802F8010B0A6040
:108FB00070470000074B70B50D467B44FFF7E1FF9B
:108FC0000446284600F026F910B14FF0FF3070BD7E
:108FD000204670BD55F5FFFF4FF000020429C0F098
:108FE000128010F0030C00F01B81CCF1040CBCF1DA
:108FF000020F18BF00F8012BA8BF20F8022BA1EB2D
:109000000C0100F00DB95FEAC17C24BF00F8012B10
:1090100000F8012B48BF00F8012B7047004870474B
:10902000BC010020004870479C01002030B5B0F121
:109030000A024FEA900E71F100034EEA817EB0EB16
:109040000E0061EB91014FEA101E4EEA017E10EB1B
:109050000E0041EB11114FEA102E4EEA016E10EB9B
:109060000E0041EB11214FEA104E4EEA014E10EB7B
:109070000E0041EB1141401841F100014FEAD000D0
:1090800040EA41704FEAD10110EB80054FEA8104BC
:1090900044EA907444EB01046D1944EB0404521B40
:1090A000A3414FF0000348BF0A3200D530BD401C39
:1090B00041F1000130BD00002DE9F0411F4604469A
:1090C00003260168072A01F4006004DB08B116A535
:1090D00005E016A503E008B115A500E015A521F0EF
:1090E00010002060A069C01EA0610FB1401EA061E9
:1090F0002046FFF7F5FA4FB1D4E9012138469047F1
:10910000206A401C2062C01C206206E0206AFAE748
:10911000D4E9012115F8010B9047761EF8D22046BC
:10912000FFF7F4FABDE8F0814E414E006E616E002B
:10913000494E4600696E66002DE9F04781461646A5
:109140008AB0334878440DC88DE80D003048784423
:10915000801C03AC0DC884E80D0041F69B30084428
:10916000372190FBF1F290FBF1F5A5F1800501FBB1
:1091700012041B3C02D56442012000E00020DFF80D
:1091800090A080460027FA44AAF1BE0A0DE0E0074D
:1091900009D03246684607EB47010AEB810100F02F
:1091A0005AFB8DE8070064107F1C002CEFD1184F8C
:1091B0007F44AC3F18E0E80714D007EB04100DF132
:1091C000180A90E80E008AE80E00C068F04201D14B
:1091D00098190890324606A903A800F03CFB03AB9F
:1091E00083E807006D10641C002DE4D13246694607
:1091F000B8F1000F03A802D000F019FB01E000F065
:109200002AFBC9E90001C9F808200AB0BDE8F087C7
:10921000244A0000007B00F0800070474FF00002FD
:1092200000B5134694469646203922BFA0E80C505C
:10923000A0E80C50B1F12001BFF4F7AF090728BF37
:10924000A0E80C5048BF0CC05DF804EB890028BFB3
:1092500040F8042B08BF704748BF20F8022B11F0DC
:10926000804F18BF00F8012B70470000004870477E
:109270009C0100207546FFF7F9FFAE4605006946E0
:10928000534620F00700854618B020B5FDF7C2FB15
:10929000BDE820404FF000064FF000074FF00008F7
:1092A0004FF0000B21F00701AC46ACE8C009ACE878
:1092B000C009ACE8C009ACE8C0098D467047044657
:1092C000AFF300802046F6F78DFF00004FF0013C21
:1092D00050F8042B51F8043B9A4221D1A2EB0C0325
:1092E000934313EACC1317D150F8042B51F8043BE5
:1092F0009A4215D1A2EB0C03934313EACC130BD182
:1093000050F8042B51F8043B9A4209D1A2EB0C030C
:10931000934313EACC13DBD04FF00000704700BF3B
:10932000D01A01BAB1FA81F101F0180122FA01F064
:10933000CB40C1F12001DBB2C0B2C01A2CFA01F35C
:10934000D11A914311EAC311E6D170475FEA400C8C
:1093500008BF91F0000F4FEA8C234FEAC12243EA85
:1093600051514FEA1C5018BF00F5F0404FEA300051
:1093700018BF41F000415FEA6C5C00F02980BCF14D
:10938000FF3F08BF40F080407047130C06BF120437
:109390004FF0100C4FF0000C130E04BF12020CF132
:1093A000080C130F04BF12010CF1040C930F04BF3F
:1093B00092000CF1020CD30F04BF52000CF1010C0F
:1093C00011464FF00002A0F11F00A0EB0C00704707
:1093D00011F0004F08BF704731F000413FF4D5AFA6
:1093E0000B0C06BF09044FF0100C4FF0000C0B0ED5
:1093F00004BF09020CF1080C0B0F04BF09010CF1AA
:10940000040C8B0F04BF89000CF1020CCB0F04BFBE
:1094100049000CF1010CCCF12003A0EB0C0022FA66
:1094200003F302FA0CF241EA030100F10100704774
:1094300020F07F4C80EA030023F07F47ACEB07036A
:1094400003F57C5300F0004003F1FF032DE9804950
:109450004FEA154B09B44FEA144325EA0B4E24EAB0
:1094600003480FF2042606EB132749083E785FEA0B
:10947000320203FB0667C7F5000707FB06F64FEA53
:1094800054374FEAD64606F1020607FB066CCCF1CC
:10949000005C4FEA1C472CEA074C07FB06F40CFB68
:1094A00006F504EB15464FEA961634BF00204FF040
:1094B00000404FEAD13706FB07FC4FEA1C4C0CFB7F
:1094C0000BF7D21B03FB0CF761EB07010CFB0EF74C
:1094D000B0EB074072EB17420CFB08F734BFA2EB6E
:1094E0000742B2EB074261EB17414FEA0C444FEAE7
:1094F000910706FB07FC4FEA1C4C0CFB0BF7B0EB8B
:10950000C74072EB573203FB0CF734BFA2EBC742E4
:10951000B2EBC74261EB57310CFB0EF7B0EBC70063
:1095200072EB57720CFB08F734BFA2EBC702B2EB29
:10953000C70261EB5771039F4FEA816141EA9211C3
:1095400004EBCC044FEAD1374FEA826206FB07FCFA
:1095500042EA90124FEA80604FEA1C4C0CFB0BF77A
:10956000D21B03FB0CF761EB07010CFB0EF7B0EB12
:10957000074072EB17420CFB08F734BFA2EB07421F
:10958000B2EB074261EB17414FEA8C554FEA910766
:1095900004EB9C2406FB07FC4FEA1C4C0CFB0BF76E
:1095A000B0EBC74072EB573203FB0CF734BFA2EBB2
:1095B000C742B2EBC74261EB57310CFB0EF7B0EB81
:1095C000C70072EB57720CFB08F734BFA2EBC7025F
:1095D000B2EBC70261EB577115EB4C254FEA816185
:1095E00041EA92114FEA82624FEAD13742EA901281
:1095F00006FB07FC44F100044FEA80604FEA1C4C74
:109600000CFB0BF7D21B03FB0CF761EB07010CFB08
:109610000EF7B0EB074072EB17420CFB08F734BFB4
:10962000A2EB0742B2EB074261EB174115EB1C15A9
:109630004FEA813141EA92414FEA823242EA904256
:109640004FEA80304FEA0C7644F1000448EA0343C5
:109650004EEA0B484FF0000EB2EB080C71EB03071B
:1096600024BF624639464EEB0E0E4FF0000B001839
:10967000524149414BEB0B0BB2EB080C71EB03076A
:109680007BF1000B24BF624639464EEB0E0E4FF0C5
:10969000000B0018524149414BEB0B0BB2EB080C8D
:1096A00071EB03077BF1000B24BF624639464EEB9A
:1096B0000E0E51EA020718BF46F0010616EB0E76B1
:1096C00055F1000254F1000103D5BDE88901BDE860
:1096D0000088BDE88901BDE80048B619524141EB58
:1096E0000101A3F10103704780807F7E7D7C7B7A3E
:1096F0007978777676757473727171706F6E6E6D3E
:109700006C6C6B6A6A6968686766666564646363E3
:1097100062616160605F5F5E5E5D5D5C5C5B5B5A69
:109720005A595958585757565655555554545353D6
:1097300052525251515050504F4F4F4E4E4D4D4D31
:109740004C4C4C4B4B4B4A4A4A494949484848477C
:1097500047474746464645454544444444434343BA
:109760004342424242414141002B26D4770021D05E
:109770001CB54FEA370703B44FF010004FF010014B
:109780004FF000000FBCBDE810400BF1010BBBF126
:10979000010F08BF5FEA170722BF12F1010211F1A2
:1097A00001014FF0004143F1000300F0004043EAA3
:1097B00000007047F9D35708DAE746EA064613F186
:1097C000400F4FEA16461FDD13F1200FDFBF16438F
:1097D0000A46002120335B42C8D0C3F1200746EA85
:1097E000064602FA07F74FEA164646EA0706C3F1AD
:1097F000200722FA03F201FA07F721FA03F14FF0EA
:10980000000342EA0702B1E746EA020646EA0646D4
:109810004FEA164646EA0106BCBF46EA0646360C43
:109820004FF000034FF000024FF000019EE72DE9DA
:10983000C048934630B491E8380007C831EA400C7C
:1098400048BF34EA430C03D5FFF7F2FDFFF78CFF66
:10985000F0BCBDE800882DE9C048934630B491E8DB
:10986000380007C810F0804F08BF13F0804F03D1B5
:1098700000F005F8FFF778FFF0BCBDE8008820F0A5
:109880007F4780EA030023F07F4C07EB0C03A3F52E
:109890007C5300F00040A3F1FE0392F0000F00F0B3
:1098A000B38095F0000F00F077802DE901494FEA71
:1098B00011404FEA144621EA004800FB06FC24EA66
:1098C000064708FB06F607FB08F800FB07F718EB4E
:1098D00006484CEB164C4FEA124B18EB07484FEA80
:1098E00015464CEB174022EA0B4E0BFB06FC25EA13
:1098F00006470EFB06F607FB0EFE0BFB07F71EEBFB
:10990000064E4CEB164C4FF000061EEB074E4CEB90
:10991000174B18EB0B0840F1000018EB0E0B58EB3F
:10992000000840F100008F1A4FF000013CBFC9430E
:10993000661B14BFB5EB040C00213CBFC943F61BEA
:109940004FEA17444EEA8E0E27EA04454FEA1C47B9
:1099500004FB07622CEA074C05FB07F70CFB05F636
:1099600004FB0CFC16EB074642EB174216EB0C46C9
:1099700042EB1C421BEB060658EB0202414146EA51
:109980009E0601D5BDE80189B619524141EB01019E
:10999000A3F10103BDE801894FEA14454FEA1147DD
:1099A00024EA054621EA074C05FB07F406FB07F706
:1099B0000CFB06F105FB0CFC11EB074144EB1744D3
:1099C0004FEA124711EB0C4144EB1C4422EA074CCE
:1099D00005FB07F206FB07F70CFB06F605FB0CFC84
:1099E00016EB074642EB174216EB0C4642EB1C45C2
:1099F0006A1854F1000148BF7047B619524141EB53
:109A00000101A3F10103704795F0000F37D04FEA31
:109A100011424FEA144721EA024624EA074C02FBAE
:109A200007F106FB07F70CFB06F402FB0CFC14EB3A
:109A3000074441EB17414FEA154714EB0C4441EB47
:109A40001C4125EA074C02FB07F506FB07F70CFB58
:109A500006F602FB0CFC16EB074645EB174516EB2A
:109A60000C4645EB1C42121951F1000148BF7047EA
:109A7000B619524141EB0101A3F1010370474FEACE
:109A800014454FEA114724EA054621EA074C05FB35
:109A900007F106FB07F70CFB06F24FF0000605FB8B
:109AA0000CFC12EB074241EB174112EB0C4251EB5D
:109AB0001C4148BF7047921841EB0101A3F101031B
:109AC0007047490050EAC12018BF04204A0D18BF52
:109AD00040F0010040F2FF72B2EB515F08BF40F06E
:109AE0000200012808BF052070472DE9F0414F1EF4
:109AF00000EBC7010446D1E9000115461E4637F0C8
:109B000006020DD02A46334600F066FE7F1E04EBA7
:109B1000C703D3E9002300F0CFFB37F00602F1D1F1
:109B2000022F25D0042F13D0062F18BFBDE8F081D7
:109B30002A46334600F050FED4E90A2300F0BCFB6D
:109B40002A46334600F048FED4E9082300F0B4FB6F
:109B50002A46334600F040FED4E9062300F0ACFB71
:109B60002A46334600F038FED4E9042300F0A4FB73
:109B70002A46334600F030FED4E9022300F09CFB75
:109B80002A46334600F028FED4E90023BDE8F04120
:109B900000F092BB012201F0CCBC00F08DBB002292
:109BA00013461046114600F037BC0000024A002060
:109BB000110701F0BEBC000001FDFFFF30380A288C
:109BC00001D2012070470020704700002DE9F04DC0
:109BD0008D4F21F0004A86B005460C46BA452ADB77
:109BE000AAEB070028430AD08848824501DC1AD135
:109BF000CDB106B02846BDE8F04DFFF7CBBF844A93
:109C0000844B284600F0E8FD07460E46824A834B07
:109C10002846214600F0E0FD06B03A463346BDE84E
:109C2000F04D00F049BB0120FEF73AFF06B0BDE859
:109C3000F04DFFF7B4BF7A48824542DABAF1795F56
:109C40000BDA2846FFF73DFF042808BFFFF7AEFFF9
:109C5000284606B02146BDE8F08D2A460B46104640
:109C600000F0BAFD834602466E480E460B460621BA
:109C70007844FFF73AFF5A46334600F0ADFD804680
:109C800069488A465A46334604217844FFF72DFF37
:109C90005A46334600F0A0FD00223B4600F00CFB84
:109CA00002460B464046514600F0B6FB2A46234684
:109CB00000F092FD06B02A462346BDE8F04D00F0C4
:109CC000FBBA284624F0004100223D463B4600F006
:109CD00081FE4FF0FF3201F02CFC0646024653484D
:109CE0000F460B4606217844FFF7FFFE32463B46FF
:109CF00000F072FDCDE900014D4832463B4604219B
:109D00007844FFF7F2FE32463B4600F065FD002244
:109D10002B4600F0D1FA834602913046394600F0D6
:109D20005DFA804643480D46504517DCDDE90001E9
:109D30005A46029B00F070FB42462B4600F04CFD59
:109D400042462B4600F0B8FA012201F0F2FB304AFD
:109D5000304B00F031FF304A304B4CE04FF0000AFE
:109D600052460B46404600F0A7FACDE90310524692
:109D70002B461046194600F02FFD32463B4600F0B8
:109D800029FEDDE9033200F047FB06460F46DDE918
:109D900000015A46029B00F03FFB834600910122DE
:109DA0003046394601F0C5FB194A1A4B00F012FE45
:109DB00006460F4601224046294601F0BAFB5A46A4
:109DC000009B00F009FD32463B4600F0F5FE0646DA
:109DD0000F4601225046294601F0ABFB0E4DDFF83D
:109DE00058802A46434600F0F5FD32463B4600F0D7
:109DF000F1FD2A46434600F0EDFD002CD8BF81F06E
:109E0000004106B0BDE8F08D0000F03F0000F07F9B
:109E1000075C143326A6913C182D4454FB21F93FCE
:109E20000000E03F8C3D0000A23D0000163D000018
:109E30002C3D00003333EF3FFB21E93F2DE9F84F84
:109E400004460D4621F0004000917349814211DC27
:109E50007249884201DC06D12CB120462946BDE872
:109E6000F84FFFF797BE6E48002DCCBF6D496E4985
:109E7000BDE8F88F6D49814211DD6D498142D8BF3F
:109E80004FF0FF366DDD20462946FFF71AFE042805
:109E900008BFFFF78BFE20462946BDE8F88F6549CD
:109EA000654F25F00045814233DD6449814219DD6B
:109EB000002632464FF080432046294600F0FCF948
:109EC00080468A4601222046294601F032FB0022C4
:109ED0003B4600F071FE4246534600F09DFA0446B0
:109EE0000D463EE001260022BA463B462046294662
:109EF00000F0E2F980460F460022534620462946EC
:109F000000F05AFE42463B4600F086FA04460D46F3
:109F100027E04B4981421BDDDFF828A10226002201
:109F200053462046294600F057FC00223B4600F0ED
:109F3000C3F980460F46002253462046294600F0CA
:109F40003BFE42463B4600F067FA04460D4608E0F9
:109F5000032622462B4600203B4900F05DFA0446CA
:109F60000D4622462B461046194600F035FC8B461E
:109F7000824602460B4600F02FFC07460246334855
:109F800088460B4606217844FFF7AFFD52465B46F4
:109F900000F022FC82462E488B463A464346052175
:109FA0007844FFF7A2FD3A46434600F015FC02460E
:109FB0000B46002E504659460CDA00F07DF9224639
:109FC0002B4600F009FC01B022462B46BDE8F04FBD
:109FD00000F000BD00F070F922462B4600F0FCFBBB
:109FE0001C4A7A4402EBC603D3E9002300F0E4FDE7
:109FF00022462B4600F0E0FD174A7A4402EBC603E6
:10A00000D3E9002300F0E6FC009A002AB8BF81F0F3
:10A010000041BDE8F88F0000000010440000F07F10
:10A02000182D4454FB21F93FFB21F9BF0000DC3F10
:10A030000000203E0000F33F0000F03F0000E63F3C
:10A04000008003400000F83F0000F0BF2E3B0000FE
:10A05000EC3A00008A3A0000523A00002DE9F04D37
:10A060009446CCF1000423F000464CEA0404524F1D
:10A0700046EAD4749A46884621F00042BC4206D88B
:10A08000454240EA050442EAD474BC4204D9BDE822
:10A09000F04D6246FFF781BDAAF14055A5F17F65FD
:10A0A00055EA0C040BD0022404EAAA74434DDFF8ED
:10A0B00010E144EAD87452EA000B04D00CE0BDE889
:10A0C000F04DFFF7BBBE002C14BF012CBDE8F08D96
:10A0D000022C30D0032C32D056EA0C0B0AD0BE42F0
:10A0E00020D1BA4209D126F0804622F08042334680
:10A0F000114617E000291ADB25E0DFF8C8B0FB4461
:10A10000002C04BFDBE90001BDE8F08D012C02BF8B
:10A11000DBE9000181F00041BDE8F08D022C0AD09E
:10A12000032C0CD0BA4212D1B8F1000F0BDA23483D
:10A130002549BDE8F08D28462449BDE8F08D284624
:10A140007146BDE8F08D1D482149BDE8F08D921B98
:10A1500012153C2AC4BF19481D490EDCBAF1000F84
:10A16000BEBF12F13C0F0020014606DB624600F044
:10A1700053F921F00041FFF761FE002C08BFBDE854
:10A18000F08D012C04BF81F00041BDE8F08D114A33
:10A19000114B022C07D000F00FFD2A46BDE8F04D10
:10A1A0000A4B00F009BD00F007FD2A46BDE8F04D5E
:10A1B000064B00F00FBC00000000F07F182D445447
:10A1C000FB2109C0E6390000FB21F9BFFB21094052
:10A1D000FB21F93F075C143326A6A13C2DE9F04191
:10A1E00006460F4600F002FC04000D4618BF012091
:10A1F000284320F00040C0F17F6000F1E040C00F34
:10A200000ED0301C18BF0120384320F00040C0F1B0
:10A210007F6000F1E040C00F04BF0120FEF740FC6A
:10A2200020462946BDE8F08110B500290AD00878FB
:10A23000002807D005487844FFF748F8002801D0E7
:10A24000002010BD0248784410BD0000BE39000057
:10A25000B639000021F00042A2F16052B2F5801F31
:10A2600001F0004328BFD2F17F6C0BD95FEA001CDC
:10A2700043EAC20242EB507018BF704728BF20F07B
:10A2800001007047B2F5801FBCBF184670474FEA07
:10A29000410C1CF5001F02D2084601F06AB870B5E7
:10A2A00000F044FB00000089FFF7F6BF4FF00040CC
:10A2B000A0F580007047000010B591EA030F48BF79
:10A2C00083F0004300F18084841A71EB030C05D203
:10A2D000121943EB0C03001B61EB0C01DFF824E1C6
:10A2E0004FEA1154A4EB135C1EEA430F18BF9EEA19
:10A2F000445F73D023EA0E03DCF1200E21EA0451FF
:10A3000043F4801332D322FA0CFE10EB0E0023FA32
:10A310000CFE41EB0E01CCF1200E03FA0EFE10EB09
:10A320000E0051F10001B1F5801FCCF1200E32D2A8
:10A3300001EB045112FA0EF2BDE8104058BF70470D
:10A34000401C38BF5FEA420218BF7047002814BFA4
:10A3500020F0010041F100014FEA410313F5001F15
:10A3600038BF7047A1F1C04100F02EBB012A43EB7A
:10A370000302ACF1200CDCF11F0E32BF4FF0000ED7
:10A3800023FA0CF310EB030041EB0451B4EB115F23
:10A39000D0D0A1EB045101F5801149085FEA3000EB
:10A3A00001EB04510ED350F1000038BF12FA0EFE3B
:10A3B00008D1BDE81040C9E7401C38BF5FEA42023F
:10A3C000CAD1C3E7BDE810404FEA410313F5001FAF
:10A3D00038BF7047A1F1C04100F0F6BA9EEA445F71
:10A3E00008D011EA5E0FBDE8104004BF01F0004143
:10A3F00000207047BDE8104070B500F097FA00BF2C
:10A4000064FBBE3E0000E0FF02494FF0000001F097
:10A410005EB800BF0000F87F2DE9C04130B4DFF81E
:10A42000A0C23CEA111418BF3CEA131400F0EC80FF
:10A4300081EA03051CEA111444EAD57418BF1CEA2A
:10A44000131500F0C780A4EB05044FF0004545EA62
:10A45000C12145EAC32341EA505143EA525304F172
:10A460007F74994204F500344FEAC0204FEAC222BB
:10A4700008BF904200F09C804FEA13650FF240162F
:10A48000765D4FEA134506FB05F7C7F1807706FBBB
:10A4900007F74FEAD737A7FB03687642C8F580383D
:10A4A000A7FB06CE38BFA8F1010807FB08E64FF06E
:10A4B000000EA6FB028CE6FB03CEDCF1000CCEF115
:10A4C000004E38BFAEF1010EA6FB0C584FF000074E
:10A4D0004FF00005E6FB0E87A1FB08C6A0FB07CEE8
:10A4E00016EB0E0645F10005E1FB076515F1E04EA0
:10A4F0007EBFA4F580345FEA46066D4116F1800701
:10A5000045F100054FEA17274FEA066647EA056757
:10A51000A6F1DE46B6F1805F4FEA15251FD9384611
:10A5200024F0010C05EBC471BCF1FE6F01EB0C11C2
:10A5300002D8F0BCBDE8008124425CBF01F5801E5A
:10A540009EEAC47F02D4F0BCBDE80081244238D426
:10A55000F0BCA1F1C041BDE8004100F035BA4FEABE
:10A56000D22242EA43524FEAD323A7FB02864FEAA4
:10A57000D02040EA415007FB03661EEA0E0F4FEA67
:10A58000D12105FB026658BFA6EB0056B6EB00567C
:10A590004FEA520E4EEAC37E18EB0E0E56EB530EE8
:10A5A000BDD518EB02085E417F1C55F10005B6E7EA
:10A5B0004FF480154FF000074FF000064FF00008F1
:10A5C000ADE7F0BC4FF0000001F1C04101F00041E7
:10A5D000BDE8008111EA0C1F0CEA131500D00CE055
:10A5E00013EA0C1F00F025804FF00000F0BC81EA58
:10A5F000030101F00041BDE80081F0BCBDE800416D
:10A6000081EA030100F0E0B9F0BCBDE8004170B59B
:10A6100000F08CF9097EFC3E00F007B881EA0301E6
:10A620004FF0000001F00041704781EA030100F0A3
:10A63000CBB9F0BCBDE800414FF0000021497047A4
:10A64000FFFDFBF9F7F5F4F2F0EEEDEBE9E8E6E4F7
:10A65000E3E1E0DEDDDBDAD8D7D5D4D3D1D0CFCD7E
:10A66000CCCBCAC8C7C6C5C4C2C1C0BFBEBDBCBBB7
:10A67000BAB9B8B7B6B5B4B3B2B1B0AFAEADACABB2
:10A68000AAA9A8A8A7A6A5A4A3A3A2A1A09F9F9E8C
:10A690009D9C9C9B9A99999897979695959493933E
:10A6A000929191908F8F8E8E8D8C8C8B8B8A8989D5
:10A6B0008888878786858584848383828281818058
:10A6C0000000FF070000F87F4FEA41034FEA5353B1
:10A6D000A3F58063D3F11E03C8BFD3F1210C0CDDB9
:10A6E0004FF0004242EAC12242EA505232FA03FCE1
:10A6F0008CEAE17CACEBE1707047102BC4BF00200A
:10A70000704703F5787CBCF1FF3F04D06FF0004246
:10A7100082EA2100704770B500F008F94992248060
:10A7200000207047F2E700004FEA1153A3F5806361
:10A73000D3F11E03A8BFD3F1200C08DB4FF0004279
:10A7400042EAC12252EA505232FA03F070470942FB
:10A750000BD4102BC4BF0020704703F5787CBCF1EC
:10A76000FF3F05D04FF0FF3070474FF000007047BB
:10A7700070B500F0DBF800BF4992248000207047DC
:10A78000F0E710F0004248BF4042B0FA80F310FA00
:10A7900003F10AD0C3F11D0303F580634FEA415072
:10A7A00002EB035202EBD12170474FF000007047DB
:10A7B000B0FA80F310FA03F10AD0C3F11D0303F5D8
:10A7C00080634FEA41504FEA035202EBD1217047B8
:10A7D0004FF0000070470000DFF848C170B51CEA78
:10A7E000111E1EBF1CEA13159EEA0C0F95EA0C0FF2
:10A7F00000F06F8081EA030423EA4C134EEAD47E12
:10A8000021EA4C1141F4801143F48013AE44A1FBC2
:10A81000024CA0FB0365AEF17F7E361955EB0C05AB
:10A82000A1FB034C4CF10003A0FB021C16EB0C0631
:10A83000654153F10003094218BF46F0010613F4C5
:10A84000007F0BD14FEA03314FEA0530340341EA70
:10A85000155140EA16506FF003020AE04FEAC32197
:10A860004FEAC520F40241EA555140EA56506FF0D4
:10A87000020202EB2E4201EB025585EACE710AD0AC
:10A880005FEA440C18BF24F0004450F1000041F18D
:10A89000000120EAD47040F2FE7C624500D270BD17
:10A8A000A84214BF4FF080444FF04044002E08BF30
:10A8B0000024BEF1806FA8BFA1F1C041BDE8704087
:10A8C00080F282804FF0000001F1C04101F00041B0
:10A8D00070479EEA0C0F0CEA131518BF95EA0C0F8F
:10A8E00006D04FF0000081EA030E0EF0004170BD6B
:10A8F00000F01CF88900013E00F007B800F009B82C
:10A900004FEA430C5FEA5C5C08D081EA030100F087
:10A910005BB84FEA410C5FEA5C5CF6D14FF0000097
:10A92000014970470000FF070000F87F0EF1020E9A
:10A930002EF0030E5EF8046B364205D4012A43EB79
:10A94000030515F5001F12D8012841EB010C1CF579
:10A95000001F0CD80ED14FEAD17C15F5001F0CEB6F
:10A960004C0C0CF1020C08BF4CEBD37C04E04FF014
:10A97000080C01E04FEAD37C0CEB4C0526FA05F6F7
:10A9800006F00706B6F1040C06D20EEB860CBDE805
:10A9900070404CF0010C6047DFE80CF0090B02023C
:10A9A0004FF000414FF00000A1F5002170BD1946A5
:10A9B0001046012851EB010418BFD4F5001484BFE0
:10A9C000002001F0004170BD0808A0F500114FEA19
:10A9D0003101704791EA030F10B581F000413FF556
:10A9E00073AC83F0004300F0EFB800002DE9F041B4
:10A9F00001F5801CBCF5001FC0F2C3804FEA115C5A
:10AA000021EA0C510CF1FD0C41F480115FEA5C0C61
:10AA10000CF5C07C01D3400049413DA4890241EAC4
:10AA2000905187028E0E0A0CA45D04FB04F602FB13
:10AA300006F6C6F14046A4FB0662F60D46EA42263B
:10AA400006FB06F4A4FB01235242C3F1404338BF86
:10AA50005B1EA6FB02420024E6FB0324D20B42EA63
:10AA60004446A6FB0623A1FB02E2A3FB07E4A418CD
:10AA70004FF0000252F10002E3FB01426442C2F1D6
:10AA8000404E38BFAEF1010EA6FB04234FF000028A
:10AA9000E6FB0E32A2FB03464FF00004B61954F158
:10AAA0000004E2FB0264A1FB06E6A4FB07E816EB48
:10AAB00008064FF0000858F10008E4FB01687642F0
:10AAC000C8F1405838BFA8F10108A2FB06E4A3FB77
:10AAD00008E52D194FF0000454F10004E2FB08547E
:10AAE000A1FB05E6A7FB04E818EB06084FF00006FB
:10AAF00056F10006E1FB048618F1200556F1000628
:10AB0000A809A8F11B08B10908F03F08B8F10A0F1D
:10AB100040EA86601CD901EB0C51BDE8F08100BF12
:10AB2000FCF5EEE8E2DDD8D3CFCBC7C3C0BDB9B6E4
:10AB3000B4B1AEACA9A7A5A3A19F9D9B9A989695E9
:10AB40009392908F8D8C8B89888786858483828170
:10AB5000A0FB006800FB01F208EB4208B8EB872875
:10AB600007D5341858EB0104D5D5401C51F100012C
:10AB7000D1E7341A78EB0104CDD4401E71F1000105
:10AB8000C9E75FEA4C0C5FEA9C5C0DD105D34FF03E
:10AB9000000001F00041BDE8F081BDE8F04170B572
:10ABA000FFF7C4FE6DDBFFBEBDE8F0414FF00000D3
:10ABB000004970470000F87F10B591EA030F48BFC5
:10ABC00083F000433FF580AB841A71EB030C07D28E
:10ABD00012198CF0004C43EB0C03001B61EB0C01D1
:10ABE000DFF8A4E14FEA1154A4EB135C1EEA430F13
:10ABF00018BF9EEA445F00F0B08023EA6E03524221
:10AC000021EA0451C3EB6E0338BF5B1EDCF1200E5A
:10AC100025D322FA0CFE10EB0E0043FA0CFE41EB9A
:10AC20000E01CCF1200E03FA0EFE10EB0E0051F1D6
:10AC30000001CCF1200E29D412FA0EF201EB0451DE
:10AC4000BDE8104058BF7047401C1CBFB2F1004F18
:10AC5000704700280CBF491C20F00100704712EB20
:10AC6000020E43EB030218BF4FF0010E4EEA420200
:10AC7000ACF1200CDCF11E0E54D943FA0CFE10EBA3
:10AC80000E0051F1FF31CCF11E0ED5D50EF1010EA3
:10AC900012FA0EFE404141EB010101EB445C5FEA18
:10ACA0005C5C10D910EBDE7001EB045138BFBEF1D3
:10ACB000004FBDE8104018BF704700280CBF491C6A
:10ACC00020F00100704730D24FEAD42C11F500116A
:10ACD00024F400641BD0B1FA81F20B3AA41AA41E2A
:10ACE000D2F12003914030FA03F31943904001EB75
:10ACF000CC71002C01EB0451BDE81040A8BF704797
:10AD000001F1C0414FF0000001F000417047B0FA7E
:10AD100080F310FA03F100D110BDE41A173C480586
:10AD2000C90AE4E701EB045110BD491001EB0451DD
:10AD3000BDE810404FEA300002E04FF000017047DC
:10AD40004A0008BF0042F8D0B2F5001F28BF704784
:10AD500001F000414FF0000070479EEA445F07D0C9
:10AD600011EA5E0FBDE8104004BF002100207047CB
:10AD7000BDE8104070B5FFF7D9FD00BF40DFF63EDB
:10AD800083F00041104670470000E0FF43004FEAA7
:10AD9000D30C4FEA3C0C43401FBF40070CF16051FD
:10ADA00013F0FE4F70471CF0006F03D100200CF031
:10ADB000004170470CF0004343EA507010B540EA80
:10ADC000CC0000F090FA00BF000000924FEA0001B2
:10ADD000FFF7FABD4FF000414FF00000A1F5002150
:10ADE0007047000090EA010F48BF81F0004100F178
:10ADF000FE82421A3CBF801A89184FEAD0524FF0A7
:10AE00007F4C1CEA410FA2EBD15318BF9CEA026FA2
:10AE100000F03B804FF0004C4CEA00204CEA01214E
:10AE200021FA03FC10EB0C0C1ED202F1FF325FEA98
:10AE30001C2040EBC25038BF70471CF07F0F4FEA18
:10AE4000400C18BFBCF17F4F38BF7047C3F12003DF
:10AE5000994008BF20F00100BCF17F4F38BF704718
:10AE6000A0F1C04000F085BA4FEA3C00000A40EB78
:10AE7000C25028BF1CF0FF0F4FEA400CE6D018BFAD
:10AE8000BCF17F4F38BF7047EAE79CEA026F05D0FC
:10AE900010EA5C0F08BF00F00040704710B500F0EA
:10AEA00022FA00BF64FBBE3E401058BFC0F14040D4
:10AEB000491058BFC1F140418142EFF30080704713
:10AEC0004FF47F0C1CEAD0121EBF1CEAD11392EA89
:10AED0000C0F93EA0C0F00F0858090EA010F48BF39
:10AEE00042F4807240F4000C41F400002CF07F41E9
:10AEF00020F07F4000B58142A2EB03020FF2081C54
:10AF0000ACEB504EC0F100009EF800E04FEA4E0E50
:10AF100000FB0EFC38BF49004FEA2C1C02F5FA0278
:10AF20000CFB0EF34FEACE1E4FEA112C4FEAC12163
:10AF30000EEB635E42EB22420EFB0CFC4FEA1C530D
:10AF400000FB03114FEA112C4FEA01310EFB0CFC00
:10AF50004FEADC4C00FB0C11C14228BF09184CEB36
:10AF600003335DF804EB10EB410143EBC250B2F543
:10AF70007C0F38BF704729D512F0F00F1CBF00F1CD
:10AF8000C04000F00040704700818283848586873E
:10AF900088898B8C8D8E8F919293959697999A9C98
:10AFA0009D9FA0A2A3A5A7A8AAACAEB0B2B3B5B707
:10AFB000B9BCBEC0C2C5C7C9CCCED1D4D7D9DCDFDD
:10AFC000E2E6E9ECF0F3F7FAFE0000004FEA400C8D
:10AFD0000CF1807CBCF17E4F28BF7047B0F1C040BF
:10AFE00000F0C7B990EA010F0CEAD11348BF42F450
:10AFF0008072624538BF634507D213F47F0F16D0C5
:10B0000080EA010000F00040704710B500F06BF9D5
:10B01000097EFC3E00F005B880EA010000F0004027
:10B02000704780EA010000F0004000F0A2B912F47D
:10B030007F0F04BF0248704780EA010000F099B911
:10B040000000C07F50EA010C00F113801CF5000FD6
:10B0500058BFBCF5000F01D48842704707D710F5E0
:10B06000000F58BF11F5000F15D488427047894270
:10B0700070471CF5000F04D5BCF5000FF7D58142D1
:10B0800070474FF0807C1CEB400F38BF1CEB410F2A
:10B0900001D28142704710B500F025F99224490091
:10B0A0004FF000504FF08051FFF7FEBE41000B0EF5
:10B0B000D3F19E0208D950F400034FEA032323FA88
:10B0C00002F048BF4042704710B500F00CF900BFD5
:10B0D00049922480002070476FF0004282EA2000ED
:10B0E00070470000C10DD1F19E0206DB4FEA00233C
:10B0F00043F0004323FA02F07047004207D54FEABD
:10B100004001B1F1FE4F02D24FF00000704710B580
:10B1100000F0E9F849922480002070476FEA20008F
:10B120007047000010F0004148BF4042B0FA80F381
:10B1300010FA03F2C3F19D030BD051EAC35101EBA6
:10B140001220530638BF704700F1010008BF20F0FD
:10B1500001007047B0FA80F310FA03F2C3F19D03C7
:10B160000AD0D90501EB1220530638BF704700F111
:10B17000010008BF20F001007047000050EA010CF8
:10B1800000F113801CF5000F58BFBCF5000F01D46F
:10B190008842704707D710F5000F58BF11F5000F10
:10B1A00015D488427047894270471CF5000F04D5BA
:10B1B000BCF5000FF7D5814270474FF0807C1CEB47
:10B1C000400F38BF1CEB410F01D28142704710B5D0
:10B1D00000F089F8922449004FF000504FF0805160
:10B1E000FFF762BE4FF47F0C1CEAD0121EBF1CEAB0
:10B1F000D11392EA0C0F93EA0C0F00F0478090EA0B
:10B20000010F48BF42F480724FF0004C4CEA00201E
:10B210004CEA012102EB0302A0FB0113A2F500029C
:10B22000002918BF43F001035B0028BF4FEA330336
:10B2300042EB22425FEA132C4CEBC2502EBFBCEB18
:10B24000436FB2F57C0F70474FEA036CBCF1004FBF
:10B2500008BF20F00100B2F57C0F38BF70470BD556
:10B2600082F0FF0212F5803FC8BF704700F1C04076
:10B27000D8BF00F00040704700F5000C5FEA4C0CAE
:10B2800048BF7047B0F1C04000F073B890EA010FBA
:10B290000CEAD11348BF42F48072624538BF63455F
:10B2A00004D280EA010000F00040704710B500F0C1
:10B2B0001AF800BF8900013E00F007B800F009B895
:10B2C0005FEA410C5FEA1C6C08D080EA010000F0E4
:10B2D00050B85FEA400C5FEA1C6CF6D14FF00040BA
:10B2E000A0F5800070470EF1020E2EF0030E5EF8FE
:10B2F000044B244204D44FEA4102B2F17F4F11D8EB
:10B300004FEA4003B3F17F4F0CD80ED14FEAD07C07
:10B31000B2F17F4F0CEB4C0C0CF1020C08BF4CEB64
:10B32000D17C04E04FF0080C01E04FEAD17C0CEB3B
:10B330004C0324FA03F404F00704B4F1040C06D21D
:10B340000EEB840CBDE810404CF0010C6047DFE8C8
:10B350000CF0070802024FF00040A0F5800010BD7D
:10B360000846420018BFD2F1807288BF00F000404A
:10B3700010BDFF2141EAD050C005704751EA000CD2
:10B3800000F113801CF5000F58BFBCF5000F01D46D
:10B390008142704707D711F5000F58BF10F5000F15
:10B3A00015D481427047894270471CF5000F04D5BF
:10B3B000BCF5000FF7D5884270474FF0807C1CEB3E
:10B3C000410F38BF1CEB400F01D28842704780EA22
:10B3D000010081EA000180EA0100FFF7F8BE0000E9
:10B3E00090EA010F48BF81F000413FF502AD421ADB
:10B3F00004D882F00042A0EB020011444FEAD05280
:10B400004FF07F4C1CEA410FA2EBD15318BF9CEACE
:10B41000026F4AD04FF0004C4CEA00204CEA012168
:10B4200021FA03FCB0EB0C0C0FD412F0FE0F36D057
:10B430005FEA4C001DD5001240EBC25038BF704788
:10B440001CF03F0F18BF70470BE0A2F101025FEA4A
:10B450001C2040EBC25038BF70471CF07F0F18BF54
:10B460007047C3F12003994014BF401E20F0010033
:10B47000704780084FEA122308BF7047B0FA80FC7B
:10B48000A2EB0C02CCF1280C60FA0CF093EA122F1C
:10B4900004BF00EBC25070474FEAC3707047130AF5
:10B4A0005FEADC1008BF7047F6E79CEA026F04D041
:10B4B00010EA5C0F08BF0020704710B5FFF713FFBC
:10B4C00040DFF63E81F000407047FDF71FBC0CF0F6
:10B4D0000F03092B08BF082000F059800A2B0BD05E
:10B4E000082B18BF704708BF1CF0400F0AD04FF060
:10B4F00000004FF0000170471CF0400F18BF4FF0E4
:10B50000004070471CF0100F08D020F0704300F08E
:10B510007F4242EAD3014FEA4370704700F0604037
:10B5200021F07F4242EA000201F07F4040EA72705F
:10B5300070474FF0FF0C4CF4E06C1CEA11531CBF39
:10B540009CEA030C9445C2BFDA4201EB02517047FA
:10B55000002B0DD0BCF1000F0FD0002A01F00041EC
:10B56000A4BF41F0E04141F07F614FF0000070471F
:10B5700001F000414FF00000704750EA01334FF0F6
:10B580009B0C18BF4CF0806C7EF43EAF70471CF4EF
:10B59000801F11D01CF4E02F03D06FEACC3149009A
:10B5A00070474FF04050EFF3008222F0704242EAC1
:10B5B000000282F3008870474FF0000070470000DF
:10B5C00000000000000000000000000000003F40FC
:10B5D000000000000000000030004000300040008B
:10B5E000000009000BC03D000BC03D00090018C061
:10B5F00024407FE0224031800000180024C01B005E
:10B600000D803240018003801C4027401C80074091
:10B61000004010006000000000000000000000007A
:10B62000000000001F8020404020000040202040FB
:10B630001F8000000000090006001F8006000900AE
:10B640000000040004003F8004000400000000101B
:10B65000006000000000000000000400040004007E
:10B660000400040000000000004000000000000092
:10B670000000002001C006003800400000001F80CC
:10B680002040204020401F800000000010403FC0AC
:10B6900000400000000018C0214022402440184013
:10B6A000000010802040244024401B800000020045
:10B6B0000D0011003FC0014000003C8024402440A8
:10B6C0002440238000001F80244024403440038015
:10B6D00000003000200027C03800200000001B8040
:10B6E0002440244024401B8000001C0022C0224033
:10B6F00022401F8000000000000008400000000001
:10B7000000000000000004600000000000000000D5
:10B7100004000A00110020804040090009000900CF
:10B7200009000900000000004040208011000A00CC
:10B7300004001800200023402400180000001F808F
:10B740002040274029401F400000004007C039002A
:10B750000F0001C0004020403FC0244024401B8017
:10B7600000001F802040204020403080000020400A
:10B770003FC0204020401F80000020403FC02440A8
:10B780002E4030C0000020403FC024402E0030003A
:10B7900000000F0010802040224033800200204033
:10B7A0003FC0040004003FC02040204020403FC074
:10B7B0002040204000000060202020203FC02000CA
:10B7C000200020403FC024400B0030C020402040DB
:10B7D0003FC020400040004000C03FC03C0003C0CC
:10B7E0003C003FC0000020403FC00C4023003FC051
:10B7F00020001F802040204020401F80000020406B
:10B800003FC024402400180000001F802140214038
:10B8100020E01FA0000020403FC02440260019C0A7
:10B82000004018C0244024402240318000003000F5
:10B8300020403FC020403000000020003F800040FA
:10B8400000403F80200020003E0001C0070038007B
:10B850002000380007C03C0007C03800000020402E
:10B8600039C0060039C0204000002000384007C021
:10B87000384020000000304021C02640384020C021
:10B880000000000000007FE0402040200000000099
:10B8900070000C00038000400000000040204020A9
:10B8A0007FE00000000000002000400020000000B9
:10B8B0000000001000100010001000100010000028
:10B8C0000000400000000000000000000280054071
:10B8D000054003C0004020003FC0044004400380F6
:10B8E0000000000003800440044006400000000007
:10B8F0000380044024403FC0004000000380054016
:10B90000054003400000000004401FC024402440C4
:10B910002000000002E005500550065004202040A1
:10B920003FC00440040003C000400000044027C0A2
:10B9300000400000000000100010041027E000008C
:10B94000000020403FC00140070004C004402040E8
:10B9500020403FC000400040000007C0040007C076
:10B96000040003C00000044007C00440040003C0FA
:10B9700000400000038004400440038000000410E5
:10B9800007F00450044003800000000003800440DE
:10B99000045007F00010044007C0024004000400F7
:10B9A0000000000006400540054004C00000000003
:10B9B00004001F8004400040000004000780004095
:10B9C000044007C000400400070004C001800600D6
:10B9D0000400060001C0070001C00600000004408A
:10B9E00006C0010006C0044000000410071004E077
:10B9F0000180060004000000044005C00640044029
:10BA000000000000000004007BE040200000000077
:10BA100000000000FFF000000000000040207BE07C
:10BA200004000000000040008000400020002000D2
:10BA300040000000000000000000000000000000C6
:10BA400000000000000000001FCC000C00000000FF
:10BA500000000000080030006000080030006000B6
:10BA60000000022003FC1E20022003FC1E200220F6
:10BA7000000000000E1811043FFF10840C78000035
:10BA800000000F0010840F3800C007781884007879
:10BA9000000000780F8410C411240E9800E4008484
:10BAA00000080800680070000000000000000000AE
:10BAB000000000000000000007E018182004400209
:10BAC0000000000040022004181807E000000000F9
:10BAD00000000240024001800FF00180024002405D
:10BAE00000000080008000800FF80080008000804F
:10BAF00000000001000D000E00000000000000002A
:10BB00000000000000800080008000800080008035
:10BB100000800000000C000C00000000000000008D
:10BB200000000000000600180060018006001800F8
:10BB30002000000007F0080810041004080807F0AF
:10BB400000000000080408041FFC000400040000BA
:10BB5000000000000E0C10141024104411840E0C70
:10BB6000000000000C1810041104110412880C705D
:10BB70000000000000E00320042408241FFC00242F
:10BB8000000000001F981084110411041088107028
:10BB90000000000007F008881104110418880070E4
:10BBA000000000001C00100010FC13001C0010001E
:10BBB000000000000E3811441084108411440E3827
:10BBC000000000000700088C10441044088807F0AB
:10BBD0000000000000000000030C030C0000000047
:10BBE000000000000000000101060000000000004D
:10BBF000000000000080014002200410080810042A
:10BC00000000022002200220022002200220022046
:10BC10000000000010040808041002200140008009
:10BC2000000000000E001200100C106C10800F00BD
:10BC3000000003E00C1813E4142417C4082807D0EC
:10BC400000000004003C03C41C40074000E4001C4A
:10BC5000000410041FFC1104110411040E8800706C
:10BC6000000003E00C1810041004100410081C104D
:10BC7000000010041FFC100410041004080807F052
:10BC8000000010041FFC1104110417C4100408184C
:10BC9000000010041FFC1104110017C01000080060
:10BCA000000003E00C181004100410441C7800403D
:10BCB000000010041FFC10840080008010841FFC12
:10BCC00010040000100410041FFC100410040000F5
:10BCD000000000030001100110011FFE1000100001
:10BCE000000010041FFC110403801464181C1004CD
:10BCF000000010041FFC1004000400040004000CE9
:10BD0000000010041FFC1F0000FC1F001FFC10049B
:10BD1000000010041FFC0C04030000E010181FFCBE
:10BD2000100007F00808100410041004080807F0B9
:10BD3000000010041FFC10841080108010800F0081
:10BD4000000007F0081810241024101C080A07F23D
:10BD5000000010041FFC1104110011C011300E0C62
:10BD6000000400000E1C11041084108410441C38C0
:10BD700000001800100010041FFC10041000180030
:10BD8000000010001FF810040004000410041FF845
:10BD9000100010001E0011E0001C007013801C0039
:10BDA00010001FC0103C00E01F0000E0103C1FC04E
:10BDB00000001004180C163401C001C01634180C11
:10BDC000100410001C00130400FC13041C001000DD
:10BDD00000000804101C1064108413041C041018C4
:10BDE00000000000000000007FFE40024002400210
:10BDF0000000000030000C0003800060001C000305
:10BE0000000000004002400240027FFE00000000EF
:10BE10000000000000002000400040004000200022
:10BE2000000000010001000100010001000100010B
:10BE30000001000040004000200000000000000061
:10BE4000000000000098012401440144014400FC6A
:10BE5000000410001FFC0088010401040088007029
:10BE60000000000000700088010401040104008843
:10BE700000000000007000880104010411081FFC8C
:10BE80000004000000F8014401440144014400C8DA
:10BE900000000000010401040FFC11041104110052
:10BEA0001800000000D601290129012901C9010655
:10BEB000000010041FFC008401000100010400FCCC
:10BEC000000400000104190419FC0004000400002F
:10BED00000000000000300010101190119FE00002B
:10BEE000000010041FFC0024004001B4010C0104F8
:10BEF00000000000100410041FFC000400040000F7
:10BF00000000010401FC0104010001FC0104010026
:10BF100000FC010401FC008401000100010400FC9C
:10BF20000004000000F8010401040104010400F809
:10BF30000000010101FF0085010401040088007078
:10BF4000000000000070008801040104010501FFE9
:10BF500000010104010401FC0084010401000180CE
:10BF60000000000000CC01240124012401240198D8
:10BF7000000000000100010007F8010401040000B6
:10BF80000000010001F8000400040004010801FCA5
:10BF90000004010001800170000C001001600180AC
:10BFA000010001F0010C003001C00030010C01F073
:10BFB000010000000104018C00740170018C010477
:10BFC0000000010101810171000E00180160018073
:10BFD000010000000184010C013401440184010CC2
:10BFE0000000000000000000000001003EFC4002D4
:10BFF00040020000000000000000FFFF0000000001
:10C0000000000000400240023EFC01000000000071
:10C010000000000060008000800040004000200020
:10C0200020000000000000000000000000000000F0
:10C030000000000000000000000000000000000000
:10C0400000000000000000000000000000000000F0
:10C0500000000000000F80380FFE380F803800000D
:10C0600000000000000000000000000000000000D0
:10C070000100000600000C0000380000310000063E
:10C0800000000C000038000030000000000000003C
:10C09000000061800067F807F9800061800061801E
:10C0A0000061800061800067F807F980006180000E
:10C0B000000000000000000001C0E003E0F00630D6
:10C0C000080418081FFFFE040E080787F00381E02C
:10C0D00000000000000001F000060C000404080647
:10C0E0000C7001F9C0000E00003BE000EC180708DE
:10C0F00008040C180003E00000000001E00007F055
:10C1000003F818041C0804170807E1D003C0E00076
:10C1100023B0003C080020080000100000000000D0
:10C12000000100003100003200001C00000000008F
:10C1300000000000000000000000000000000000FF
:10C1400000000000000000000000000000000000EF
:10C1500000007F0001FFC00780F00C0018100004F1
:10C160002000020000000000002000021000040C6B
:10C1700000180780F001FFC0007F000000000000F1
:10C18000000000000000000000000000000042006D
:10C19000006600006600003C0000180003FFC000BD
:10C1A0001800003C0000660000660000420000002D
:10C1B0000000080000080000080000080000080057
:10C1C00001FFC0000800000800000800000800008F
:10C1D00008000000000000010000310000320000F3
:10C1E0001C00000000000000000000000000000033
:10C1F000000000000000000000000800000800002F
:10C2000008000008000008000008000008000008FE
:10C21000000008000008000000000000000000000E
:10C220000000380000380000380000000000000066
:10C2300000000000000000000000000000000000FE
:10C240000000000600001C000070000180000E00CD
:10C2500000380000C0000700001C00003000000093
:10C260000000000000007F8001FFE00380700600F6
:10C270001804000804000806001803807001FFE09D
:10C28000007F8000000000000000000001000801A5
:10C29000000801000803FFF807FFF800000800008D
:10C2A0000800000800000000000000000001C03885
:10C2B00002C0580400980401180402180404180667
:10C2C0001C1803F81801E0F800000000000000004E
:10C2D0000001C0E003C0F0040008040808040808D6
:10C2E00006180803F41801E7F00001E00000000060
:10C2F0000000000000000300000D000011000061BC
:10C300000000810803010807FFF80FFFF80001088B
:10C310000001080000000000000000E007FCD0065B
:10C320000808061008061008061008061838060F38
:10C33000F00607C0000000000000000000003F8081
:10C3400001FFE003843002081804100804100804F8
:10C350001008071810030FF00007C00000000000CD
:10C360000000000003C0000700000600000600F8FF
:10C370000607F806180006E00007000006000000A7
:10C38000000000000001E1E003F7F006341004189B
:10C3900008041808040C08040C0806161803F3F027
:10C3A00001C1E000000000000000F80003FC3003C1
:10C3B00006380402080402080402080404100308F2
:10C3C000F001FFC0007F000000000000000000003E
:10C3D000000000000000000000007038007038000D
:10C3E00070380000000000000000000000000000A5
:10C3F0000000000000000000000000000000301AF3
:10C4000000301C00000000000000000000000000E0
:10C4100000000000000000000008000014000022DE
:10C420000000410000808001004002002004001054
:10C4300008000800000000000000210000210000AA
:10C440002100002100002100002100002100002126
:10C45000000021000021000000000000000000009A
:10C460000800080400100200200100400080800045
:10C47000410000220000140000080000000000003D
:10C480000003C00004C000040000080038080F3892
:10C490000808380810000C300007E00003C0000056
:10C4A0000000000000003F8000FFE0038070020FEA
:10C4B0001006708804C088048308047F8802C09036
:10C4C00003012000FE400000080000180001F800F1
:10C4D0003E0801C20007020007E20000FE00001F44
:10C4E000C80001F800003800000804000807FFF841
:10C4F00007FFF804080804080804080804080806E8
:10C50000180803F41801E7F00001E0000000000043
:10C5100000003F8001FFE003807002001804000863
:10C520000400080400080400100600200780C00072
:10C53000000004000807FFF807FFF80400080400E3
:10C540000804000804001802001003807001FFE0D6
:10C55000007F8000000004000807FFF807FFF804D0
:10C560000808040808040808040808043E08040031
:10C570000806001801006000000004000807FFF82A
:10C5800007FFF80408080408000408000408000471
:10C590003E000600000600000180000000000000D0
:10C5A00000003F8001FFE0038070060018040008CF
:10C5B0000402080402080203F00783F000020000EE
:10C5C000020004000807FFF807FFF8040808000845
:10C5D0000000080000080000080004080807FFF831
:10C5E00007FFF80400080000000000000400080431
:10C5F000000804000807FFF807FFF804000804001B
:10C600000804000800000000000000000000000610
:10C6100000000700000104000104000104000307FA
:10C62000FFFE07FFFC0400000400000400000400FB
:10C630000807FFF807FFF8040C08001800003E0088
:10C6400004C7800503C80600F80400380400180079
:10C65000000804000807FFF807FFF80400080000BE
:10C66000080000080000080000080000080000188A
:10C6700000006000000004000807FFF807800807BA
:10C68000FC00007FC00003F80007C00078000780AE
:10C690000807FFF807FFF804000804000807FFF880
:10C6A00007000803C00000E000003800001E000082
:10C6B00007000001C00400F007FFF80400000000BC
:10C6C00000007F8001FFE00380700600180400086E
:10C6D00004000806001803003001FFE0007F80001E
:10C6E000000004000807FFF807FFF804040804042A
:10C6F00000040400040400040400060C0003F80015
:10C7000001F000000000000000007F8001FFE00356
:10C7100080700600880400880400C806003C0300FE
:10C720003E01FFE6007F8400000004000807FFF8D8
:10C7300007FFF8040808040800040C00040F0004B4
:10C740000BC00610F003F03801E0080000080000FC
:10C750000001E0F803F0300630100418080418084F
:10C76000040C08040C080206180207F00781E00018
:10C770000000018000060000040000040000040026
:10C780000807FFF807FFF804000804000004000091
:10C7900006000001800004000007FFE007FFF0042E
:10C7A0000018000008000008000008000008000051
:10C7B0000804001007FFE004000004000006000069
:10C7C00007E00007FE00041FE00001F80000380049
:10C7D00001E0043E0007C000060000040000040061
:10C7E0000007E00007FFC0041FF80007C007F800BB
:10C7F00007FF80043FF80007C004F80007000004AA
:10C80000000000000004000806001807C07805F1C9
:10C81000C8003E00001F800463E80780F806001887
:10C820000400080000000400000600000780000764
:10C83000E008047C08001FF80007F800180804E06E
:10C8400008070000060000040000000000010008C6
:10C850000600380400F80403E8040F08047C080507
:10C86000F00807C00807001804006000000000007E
:10C87000000000000000000000000000003FFFFE7C
:10C8800020000220000220000220000220000200FE
:10C89000000000000000000008000007000000C0C9
:10C8A000000038000006000001C000003000000E4B
:10C8B0000000010000000000000000002000022035
:10C8C00000022000022000022000023FFFFE0000C4
:10C8D0000000000000000000000000000000000058
:10C8E00000000008000010000030000020000030B0
:10C8F0000000100000080000000000000000000020
:10C900000100000100000100000100000100000121
:10C910000000010000010000010000010000010012
:10C9200000010000000000000000002000002000C6
:10C9300000100000100000000000000000000000D7
:10C940000000000000000000000000F00019F800E6
:10C950001B18002208002608002408002410003FAD
:10C96000F8001FF800000800001800000004000094
:10C9700007FFF80FFFF0001818001008002008004B
:10C980002008003018001FF0000FC0000000000059
:10C99000000007C0001FF000183000200800200829
:10C9A000002008003C08001C10000060000000008F
:10C9B00000000000000007C0001FF0003818002031
:10C9C0000800200800200804101007FFF80FFFF0EF
:10C9D0000000100000000000000000000007C00080
:10C9E0001FF0001230002218002208002208003236
:10C9F00008001E10000E20000000000000002000B3
:10CA000000200800200801FFF803FFF806200804B2
:10CA10002008042008072000030000000000000098
:10CA20000000000E000E6E001FF30031B10020B1B7
:10CA30000020B1003191001F13002E1E00200E00B7
:10CA4000300000000004000807FFF80FFFF8001096
:10CA500008002000002000002008003FF8001FF818
:10CA60000000080000000000000000000020080096
:10CA70002008002008063FF8063FF80000080000E4
:10CA80000800000800000000000000000000000096
:10CA90000000030000030020010020010020030625
:10CAA0003FFE063FFC000000000000000000000008
:10CAB0000004000807FFF80FFFF8000188000300DA
:10CAC000002FC00038F800203800200800000800BF
:10CAD000000000000000000004000804000804003A
:10CAE0000807FFF80FFFF800000800000800000822
:10CAF000000000000000002008003FF8003FF800A0
:10CB00001008002000003FF8003FF8001008002047
:10CB100000003FF8003FF800000800000000200877
:10CB2000003FF8003FF8001008001000002000004F
:10CB30002008003FF8001FF8000008000000000077
:10CB4000000007C0000FF000183000300800200877
:10CB5000002008003008001830000FF00007C00067
:10CB60000000000000002001003FFF003FFF001018
:10CB700011002009002008002008003038001FF0B4
:10CB8000000FC00000000000000007C0001FF00000
:10CB90003818002008002008002009001011001F8C
:10CBA000FF003FFF000001000000002008002008F7
:10CBB000002008003FF8003FF800080800100800B7
:10CBC00020080020000030000030000000000000BD
:10CBD00000000000000C78001E1800330800230835
:10CBE0000021080021880021980030F00038600002
:10CBF000000000000000200000200000200000FFD6
:10CC0000F003FFF800200800200800200800003092
:10CC1000000000000000000000002000003FF000C5
:10CC20007FF8000018000008000008002010003FF6
:10CC3000F8007FF00000100000000000000020005D
:10CC4000003000003C00003F800023F0000078002E
:10CC50000070002380003C00003000002000002015
:10CC600000003C00003FE00023F80000E000270047
:10CC7000003E00003FE00021F80001E0003E00001F
:10CC80002000000000002008002008003838003E86
:10CC9000680027800003C8002CF8003838002018EE
:10CCA0000020080000000000000020000030030009
:10CCB0003C01003F830023EC000070002380003C17
:10CCC0000000200000200000000000000000000024
:10CCD0000038080020380020F80023E8002F8800E2
:10CCE0003E08003808002018000070000000000016
:10CCF000000000000000000000000000000008002C
:10CD00000014001FF7FC30000620000200000000A5
:10CD10000000000000000000000000000000000013
:10CD200000000000FFFFFF00000000000000000006
:10CD300000000000000000000000000020000230A1
:10CD400000061FF7FC0014000008000000000000AF
:10CD500000000000000000000000000000180000BB
:10CD600060000040000040000020000010000008AB
:10CD700000000400000400000C000010000000008F
:10CD800075191A0C6A231B1C1F207274433B41380F
:10CD9000393A6B6C376F06246D6E700068000004C2
:10CDA00076005401F7FD0001830000000008000038
:10CDB0000001001832000500000020410000D242AE
:10CDC000295C0F3E9A99993E3333733F295C0F3E9D
:10CDD00000007000000000240000000200030000BA
:10CDE00000650054FFEF0000FA80000B1282000182
:10CDF000030C30C30E8C8CE914D5400213710F8ED6
:10CE00003883F8833000F883258EF8833000F88368
:10CE1000FFFFFFFF0FFEA9D6240004001A8279A1AC
:10CE20000000003CFFFF00000010000038836FA2EC
:10CE3000003E03304000000002CAE3093E800000CB
:10CE40002000000000000000400000006000000022
:10CE5000000C0000000C186E000006920A16C0DFDD
:10CE6000FFFF0256FD8CD377FFE1C496E0C5BEAA52
:10CE700000000000FFFF0B2B0000165700000359B5
:10CE80004000000000001DFA00026C1D00000000C0
:10CE90003FFFDFEB003EB3B6000D227800002F3CD1
:10CEA00000000000001942B5000039A20000B3657F
:10CEB000D90E9FC91DCF4C34300000005000000037
:10CEC0003BB67AE80064000000C8000000000000E3
:10CED000100000001000FA921000225E000D229F48
:10CEE0000001000000320000FF46000063D4000093
:10CEF0001000000004D6000004CC000004CC0000A8
:10CF0000000010720000004000000000000000005F
:10CF10000006000200050007000000000064000099
:10CF20000000000000000005000500640020000073
:10CF300000000000000000000000400000000300AE
:10CF400000000032F8980000FF650000830F000029
:10CF5000FF9BFC000000000000000000000000003B
:10CF600000000000000000000000000000000000C1
:10CF700000000000000000000000000000001000A1
:10CF800040000000000000060000B26A000200003D
:10CF90000001FB830068000000D9FC007CF1FF83E6
:10CFA0000000000000650000006403E80064002841
:10CFB000000000250000000016A000000000100086
:10CFC00000001000002F0000000001F4000010001D
:10CFD00000280000FFFF4581FFFFFA7200000000FB
:10CFE00000000000004400050005BAC6004778A212
:10CFF0000000000100000000000006000000001416
:10D000000000254D002F706D000005AE000C02D011
:10D010000000000000000000000000000000000010
:10D02000001B0000000000000000000000000000E5
:10D030000064000000080000000000000000000084
:10D0400000000000000000000000000000000000E0
:10D0500000000000000000000000000000000000D0
:10D0600000000000000000000000000000000000C0
:10D0700000000000000000000000000000000000B0
:10D0800000000000000000000000000000000000A0
:10D09000001B00000000000000000000000E000E59
:10D0A00000000AC70004000000000032FFFFFF9CE0
:10D0B00000000B2B000000020000000100000064D3
:10D0C000FFE500000000000000000000000000007C
:10D0D000000000010000000000010000000000004E
:10D0E000000180000001800000018000002426D3A0
:10D0F0000000000000000000000600100096003C48
:10D10000000000000000000000000000000000001F
:10D110000C0A4E68CDCF770950166759C619CE82D2
:10D1200000000000000000000000000000000000FF
:10D13000000000000000000017D78400030000007A
:10D140000000000000000000C7938F9D1E1B1C19EB
:10D1500000000000000000000000000000000000CF
:10D1600000000000000000000203188500004000DD
:10D1700000000003000000030000000000000000A9
:10D18000400000000000000000000000000000005F
:10D19000000000000000000000000000000000008F
:10D1A000000000000000000000000000000000007F
:10D1B00000000000677DDF7E72902E554CF6E688F9
:10D1C000000000000000000000000000000000005F
:10D1D000D8DCB4B8B0D8B9ABF3F8FAB3B7BB8E9E0D
:10D1E000AEF132F51BF1B4B8B08097F1A9DFDFDF03
:10D1F000AADFDFDFF2AAC5CDC7A90CC92C97F1A918
:10D2000089264666B28999A92D557DB0B08AA8961F
:10D21000365676F1BAA3B4B280C0B8A89711B283DB
:10D2200098BAA3F0240844106418B2B9B49883F1F2
:10D23000A329557DBAB5B1A38393F0002850F5B268
:10D24000B6AA839328547CF1B9A3829361BAA2DA77
:10D25000DEDFDB819AB9AEF5606870F1DABAA2DF81
:10D26000D9BAA2FAB9A38292DB31BAA2D9BAA2F88A
:10D27000DF85A4D0C1BBAD83C2C5C7B8A2DFDFDFE5
:10D28000BAA0DFDFDFD8D8F1B8AAB38DB4980D35D6
:10D290005DB2B6BAAF8C96198F9FA70E161EB49AC0
:10D2A000B8AA872C547CBAA4B08AB691325676B20A
:10D2B0008494A4C808CDD8B8B4B0F19982A82D55EB
:10D2C0007D98A80E161EA22C547C92A4F02C5078A7
:10D2D000F184A898C4CDFCD80DDBA8FC2DF3D9BAF5
:10D2E000A6F8DABAA6DED8BAB2B68696A6D0F3C841
:10D2F00041DAA6C8F8D8B0B4B882A892F52C548800
:10D3000098F135D9F418D8F1A2D0F8F9A884D9C782
:10D31000DFF8F883C5DADF69DF83C1D8F40114F1DF
:10D32000A8824EA884F311D182F5D992289788F16A
:10D3300009F41C1CD884A8F3C0F9D1D99782F1292B
:10D34000F40DD8F3F9F9D1D982F4C203D8DEDF1A8B
:10D35000D8F1A2FAF9A88498D9C7DFF8F8F883C7FA
:10D36000DADF69DFF883C3D8F40114F198A8822EBC
:10D37000A884F311D182F5D992509788F109F41C51
:10D38000D884A8F3C0F8F9D1D99782F149F40DD81F
:10D39000F3F9F9D1D982F4C403D8DEDFD8F1AD882E
:10D3A00098CCA809F9D98292A8F57CF1883ACF9453
:10D3B0004A6E98DB6931DAADF2DEF9D88795A8F2CA
:10D3C00021D1DAA5F9F417D9F1AE8ED0C0C3AE825F
:10D3D000C684C3A88595C8A588F2C0F1F4010EF1F2
:10D3E0008E9EA8C63E56F554F18872F40115F19848
:10D3F00045856EF58E9E0488F142985A8E9E068869
:10D4000069F4011CF1981E1108D0F504F11E970271
:10D4100002983625DBF9D985A5F3C1DA85A5F3DFB6
:10D42000D88595A8F309DAA5FAD88292A8F578F1FB
:10D43000881A849F26889821DAF41DF3D8879F39AB
:10D44000D1AFD9DFDFFBF9F40CF3D8FAD0F8DAF971
:10D45000F9D0DFD9F9D8F40BD8F3879F39D1AFD9F8
:10D46000DFDFF41DF3D8FAFCA869F9F9AFD0DADEF2
:10D47000FAD9F88F9FA8F1CCF398DB45D9AFDFD06C
:10D48000F8D8F18F9FA8CAF38809DAAF8FCBF8D804
:10D49000F2AD978D0CD9A5DFF9BAA6F3FAF412F222
:10D4A000D8950DD1D9BAA6F3FADAA5F2C1BAA6F386
:10D4B000DFD8F1BAB2B68696A6D0CAF349DAA6CBBF
:10D4C000F8D8B0B4B8D8AD84F2C0DFF18FCBC3A820
:10D4D000B2B68696C8C1CBC3F3B0B48898A821DB96
:10D4E000718D9D71859521D9ADF2FAD88597A828BF
:10D4F000D9F408D8F28D29DAF405D9F285A4C2F25C
:10D50000D8A88D9401D1D9F411F2D88721D8F40A82
:10D51000D8F28498A8C801D1D9F411D8F3A4C8BB13
:10D52000AFD0F2DEF8F8F8F8F8F8F8F8D8F1B8F675
:10D53000B5B9B08A95A3DE3CA3D9F8D85CA3D9F8D5
:10D54000D87CA3D9F8D8F8F9D1A5D9DFDAFAD8B1BF
:10D550008530F7D9DED8F830ADDADED8F2B48C9960
:10D56000A32D557DA083DFDFDFB591A0F629D9FB80
:10D57000D8A0FC29D9FAD8A0D051D9F8D8FC51D9D3
:10D58000F9D879D9FBD8A0D0FC79D9FAD8A1F9F982
:10D59000F9F9F9A0DADFDFDFD8A1F8F8F8F8F8AC8C
:10D5A000DEF8ADDE8393AC2C547CF1A8DFDFDFF630
:10D5B0009D2CDAA0DFD9FADB2DF8D8A850DAA0D05C
:10D5C000DED9D0F8F8F8DB55F8D8A878DAA0D0DFA3
:10D5D000D9D0FAF8F8F8F8DB7DF8D89CA88CF530AB
:10D5E000DB38D9D0DEDFA0D0DEDFD8A848DB58D9C1
:10D5F000DFD0DEA0DFD0DED8A868DB70D9DFDFA007
:10D60000DFDFD8F1A888902C547C98A8D05C38D162
:10D61000DAF2AE8CDFF9D8B087A8C1C1B188A8C64C
:10D62000F9F9DA36D8A8F9DA36D8A8F9DA36D8A866
:10D63000F9DA36D8A8F9DA36D8F78D9DADF818DAC8
:10D64000F2AEDFD8F7ADFA30D9A4DEF9D8F2AEDE0B
:10D65000FAF983A7D9C3C5C7F1889BA77AADF7DECE
:10D66000DFA4F8849408A797F300AEF29819A48871
:10D67000C6A39488F632DFF28393DB09D9F2AADFDE
:10D68000D8D8AEF8F9D1DAF3A4DEA7F1889B7AD81E
:10D69000F38494AE19F9DAAAF1DFD8A881C0C3C522
:10D6A000C7A39283F628ADDED9F8D8A350ADD9F838
:10D6B000D8A378ADD9F8D8F8F9D1A1DADEC3C5C7B7
:10D6C000D8A18194F818F2B089ACC3C5C7F1D8B815
:10D6D000B4B09786A8319B069907AB9728889BF032
:10D6E0000C201440B0B4B8F0A88A9A285078B79BA0
:10D6F000A8295179247059446938644831F1BBAB89
:10D7000088002C547CF0B38BB8A804285078F1B072
:10D7100088B49726A85998BBABB38B02264666B04F
:10D72000B8F08A9CA82951798B2951798A2470599B
:10D730008B2058718A4469388B3940688A64483133
:10D740008B30496088F1AC002C547CF08CA8042804
:10D750005078F1889726A85998AC8C02264666F036
:10D76000899CA8295179247059446938644831A9A1
:10D770008809205970AB11384069A8193148608C6C
:10D78000A83C415C207C00F187981986A86E767EC3
:10D79000A999882D557DD8B1B5B9A3DFDFDFAED00B
:10D7A000DFAAD0DEF2ABF8F9D9B087C4AAF1DFDF87
:10D7B000BBAFDFDFB9D8B1F1A3978E60DFB084F2E1
:10D7C000C8F8F9D9DED89385F14AB183A308B583A7
:10D7D0009A0810B79F10D8F1B0BAAEB08AC2B2B6EC
:10D7E0008E9EF1FBD9F41DD8F9D90CF1D8F8F8AD1B
:10D7F00061D9AEFBD8F40CF1D8F8F8AD19D9AEFB6D
:10D80000DFD8F416F1D8F8AD8D61D9F4F4ACF59CFD
:10D810009C8DDF2BBAB6AEFAF8F40BD8F1AED0F887
:10D82000AD51DAAEFAF8F1D8B9B1B6A3839C08B914
:10D83000B1839AB5AAC0FD3083B79F10B58B93F220
:10D840000202D1ABDADED8F1B080BAABC0C3B28489
:10D85000C1C3D8B1B9F38BA391B609B4D9ABDEB0CB
:10D86000879CB9A3DDF1B38B8B8B8B8BB087A3A384
:10D87000A3A3B28BB69BF2A3A3A3A3A3A3A3A3A327
:10D88000A3F1B087B59AA3F39BA3A3DCBAACDFB92D
:10D89000A3A3A3A3A3A3A3A3A3A3A3A3A3A3A3A358
:10D8A000D8D8D8BBB3B7F1AAF9DAFFD9809AAA2899
:10D8B000B48098A720B79787A86688F07951F1902F
:10D8C0002C870CA781976293F07171608594012970
:10D8D000517990A5F1284C6C870C95188578A38315
:10D8E00090284C6C886CD8F3A28200F210A8921990
:10D8F00080A2F2D926D8F188A84DD948D896A8395F
:10D9000080D93CD89580A839A68698D92CDA87A7E3
:10D910002CD8A8899519A980D938D8A88939A9807F
:10D92000DA3CD8A82EA83990D90CD8A8953198D926
:10D930000CD8A809D9FFD801DAFFD89539A9DA2679
:10D94000FFD890A80D8999A810809821DA2ED8893F
:10D9500099A83180DA2ED8A886963180DA2ED8A8F8
:10D96000873180DA2ED8A88292F34180F1D92ED85F
:10D97000A882F31980F1D92ED882ACF3C0A28022FC
:10D98000F1A62EA72EA92298A829DAACDEFFD8A2EC
:10D99000F22AF1A92E8292A8F23180A696F1D9003E
:10D9A000AC8C9C0C30ACDED0DEFFD88C9CACD010A4
:10D9B000ACDE8092A2F24C82A8F1CAF235F19688D0
:10D9C000A6D900D8F1FF3031323334353637383903
:10D9D00041424344454640305800303132333435BB
:10D9E0003637383961626364656640307800040018
:10D9F000000800000000000000020001000010000C
:10DA0000555555555555C53F7D6FEB0312D6D4BFBF
:10DA10005544880E55C1C93F3B8F68B52882A4BFC5
:10DA200088B20175E0EF493F09F7FD0DE13D023F86
:10DA30004B2D8A1C273A03C0C88A599CE52A00400E
:10DA400059018D1B6C06E6BF82922EB1C5B8B33F5B
:10DA50004FBB610567ACDD3F182D4454FB21E93F06
:10DA60009BF681D20B73EF3F182D4454FB21F93FF5
:10DA7000E2652F227F2B7A3C075C143326A6813C7B
:10DA8000BDCBF07A8807703C075C143326A6913C26
:10DA9000C4EB98999999C9BF711623FEC671BCBF92
:10DAA0006D9A74AFF2B0B3BF9AFDDE522DDEADBFFA
:10DAB0002F6C6A2C44B4A2BF0D5555555555D53F12
:10DAC000FF8300922449C23F6E204CC5CD45B73F2D
:10DAD000513DD0A0660DB13FEB0D76244B7BA93FA5
:10DAE00011DA22E33AAD903F000000000000000090
:10DAF00002400000000000A00000000005400000FF
:10DB0000000000C8000000000C4000000000409C25
:10DB100000000000194000000020BCBE0000000012
:10DB200034400000BFC91B8E00000004B540000057
:10DB3000504BCFD06607E2CF010000006C410000DF
:10DB40003E8251AADFEEA73401000000D942000056
:10DB5000DCB5A0E23A301F97FFFFFFFFB44500009D
:10DB6000FD25A0C8E9A3C14FFFFFFFFFFF3F000055
:10DB70000000008000000000FF3F00000000008067
:10DB80000000000050726F64756374204944207275
:10DB9000656164206173203020696E64696361741B
:10DBA00065732064657669636520697320656974AF
:10DBB00068657220696E636F6D70617469626C650F
:10DBC000206F7220616E204D5055333035302E0A53
:10DBD0000000000010DC000800000020AC00000085
:10DBE0006C010008BCDC0008AC00002054070000F9
:10DBF000880100081C00000043000000F8FFFFFF40
:10DC00000C0000000E0000000F0000002E000000BD
:10DC10000000000000000000000000000000C841FB
:10DC200000A24A04000000000000000001020304FA
:10DC3000060708090000FFFF0000000000000000C8
:10DC4000570000004B00000080CD00089CCD00086C
:10DC500000000000000000000000000000000000C4
:10DC600000000000000000000000000000000000B4
:10DC7000A8CD000801000000010000000100000024
:10DC80000000000000000000000000000000000094
:10DC90000000000000000000000000000000000084
:10DCA000010203040102030406070809020406082E
:0CDCB00000000000000000000000000068
:0400000508000131BD
:00000001FF
